:10000000D849002029250000CD75000015250000E5
:1000100015250000152500001525000015250000F8
:100020000000000000000000000000008D2600001D
:100030001525000000000000252600001525000001
:10004000252800002528000025280000252800007C
:10005000252800002528000025280000252800006C
:10006000252800002528000025280000252800005C
:10007000252800002528000025280000252800004C
:1004700025280000252800002528000053B94AB986
:10048000002908BF00281CBF4FF0FF314FF0FF309C
:1004900000F00CB8ADF1080C6DE904CE00F010F8D6
:1004A000DDF804E0DDE9022304B07047704700BFC7
:1004B000034613F8012B002AFBD1181A01387047A4
:1004C0002DE9F04786468C460846089E1546744638
:1004D0001946002B40F0C1808542B2FA82F245D91C
:1004E0004AB1C2F1200300FA02FC954094402EFA72
:1004F00003F343EA0C0C4FEA154EA8B2230CBCFBE5
:10050000FEF80EFB18CC08FB00F943EA0C439945B2
:1005100028D9EB1808F1FF3704D2994502D9A8F180
:1005200002072B44A3EB0903A4B2B3FBFEFC0EFBB2
:100530001C330CFB00F044EA0344A04214D92C19EC
:100540000CF1FF3304D2A04202D9ACF102032C44D7
:10055000241A43EA07401EB1D4400023346073607C
:10056000BDE8F0874746DDE76346F1E792BB431BF2
:1005700001214FEA154EAFB2200CB3FBFEFC0EFB7F
:100580001C330CFB07F840EA0343984561D9EB188C
:100590000CF1FF3004D2984502D9ACF102002B4493
:1005A000A3EB0803A4B2B3FBFEFC0EFB1C330CFB55
:1005B00007F744EA0344A7424DD92C190CF1FF3345
:1005C00004D2A74202D9ACF102032C44E41B43EA53
:1005D0000040C0E7C2F120039540944020FA03F1A7
:1005E0002EFA03F34FEA154E9040AFB20343B1FB2E
:1005F000FEFC0EFB1C10190C0CFB07F841EA004135
:10060000884522D969180CF1FF3004D2884502D9F7
:10061000ACF102002944A1EB08019BB2B1FBFEFC46
:100620000EFB1C110CFB07F743EA01439F420ED956
:10063000EB180CF1FF3104D29F4202D9ACF1020158
:100640002B44DB1B41EA004193E76046E3E7614648
:10065000F7E76046A4E76346B8E7834206D916B9D0
:10066000002108467CE7C6E900E0F9E7B3FA83F722
:100670008FB9834201D3724508D8BEEB020460EB08
:10068000030301209C461EB9002169E73846FAE7BA
:10069000C6E9004CF8E7C7F1200CBB400EFA07F59D
:1006A00022FA0CF42EFA0CF1BA401C4320FA0CF397
:1006B000B8404FEA144901431FFA84FEB3FBF9F82E
:1006C00009FB18300B0C08FB0EFA43EA00439A456D
:1006D00040D9E31808F1FF3004D29A4502D9A8F1B5
:1006E00002002344A3EB0A0389B2B3FBF9F809FB28
:1006F000183308FB0EFE41EA03418E452CD96118E0
:1007000008F1FF3304D28E4502D9A8F10203214437
:1007100043EA0040A1EB0E01A0FB02984145CE4602
:10072000434602D306D14D4504D20138B9EB020E3F
:1007300068EB0403002EA7D0B5EB0E0261EB0301BA
:1007400001FA0CFC22FA07F3F9404CEA0303C6E96C
:10075000003199E74046C5E74346D9E72DE9F8431C
:1007600000AF0321244A254806F05BFE0321244AFA
:10077000224806F056FE002400F048F800F0D2F8B7
:1007800000F048F91F4EDFF880800134E30702D4FF
:10079000204600F065F8204600F0E6F8204600F01C
:1007A00043F906FB04F3B3F1333F1ED807F0ECFC2A
:1007B000E9468AB06D464FF47A7CA0FB0C0E47F6F2
:1007C000122200230CFB01E1C5E90584FFF756FE68
:1007D0002A460623C5E9080142F8103F00234FF4DA
:1007E0004351064801F0E6F8CD46002147F61220B5
:1007F00004F0F4FBC9E700BF60940000A091000082
:100800007C940000CDCCCCCC9D940000F8B500AF1A
:100810000E4C032120460E4A06F003FE6E4688B0B9
:100820006A4603250B4B53610B4B936142F8105FF3
:1008300000234FF4C851204601F0BCF8B546074AE2
:100840002946204606F0EDFDBD46F8BD00920000A9
:10085000BE940000F2940000A595000028950000C9
:10086000B0B52C4964240B6800AF03F111020723D3
:1008700090FBF3F3C3EBC303C31A13440B6032239F
:1008800090FBF3F103FB110190FBF4F304FB130362
:1008900003F58C538EB001F67F0114336A4609B21A
:1008A0009BB21D4D55611D4D956191FBF4F504FB07
:1008B000151109B21162B3FBF4F104FB113351625B
:1008C000C8219BB2936200EB400393FBF1F401FB60
:1008D0001433643B1BB2D362C0EBC00393FBF1F44F
:1008E00001FB1433643B1BB21363142390FBF3F13D
:1008F00003FB11000A2300F2CA3080B2D5615063B5
:1009000042F8103F00234FF4A241054801F052F88D
:10091000BD46B0BD08260020559500009595000005
:100920000092000098B500AF0B4C032120460B4A03
:1009300006F077FD88B06A46094B5361094B936115
:10094000032342F8103F00234FF4C851204601F022
:1009500031F8BD4698BD00BFD0910000C0950000A1
:10096000F2950000C6960000F0B505026B429BB2FE
:10097000ADB258BF5D420F2390FBF3F3C3EB0313FB
:1009800083B09842044602AF05F500250AD100F570
:100990000453343300932B0C0221194A19481B04C9
:1009A00006F052FD1E2294FBF2F302FB13432BB917
:1009B00001212B46144A134806F03CFD052094FB08
:1009C000F0F303EB8303E31A17D16E468AB002AA51
:1009D0000E4951610E49C2E90615614201F0070155
:1009E00004F0070458BF4C42146242F8100F4FF451
:1009F0002451044800F0DEFFB5460437BD46F0BD83
:100A000026960000D09100005A9600008C960000B7
:100A1000B79600000321024A024806F002BD00BF5B
:100A2000DF960000C8910000B0B510F0030382B05B
:100A3000044602AF13D16D4688B002AA164951612F
:100A40001649916141F234214143D161042142F8B8
:100A5000101F4FF40451124800F0ACFFAD461E22A7
:100A600094FBF2F302FB13433BB90E4B01210093BD
:100A70000D4A0E4B0A4806F0E7FC0F2394FBF3F3F4
:100A8000C3EB0312944205D10221094A04480C33F6
:100A900006F0D0FCBD46B0BD10970000A697000040
:100AA000C8910000FE0FDCBA43970000EFBEADDE38
:100AB0007B9700002DE9F04F91B0009302F0040302
:100AC0000293C2F3C2030133840705460E46DDF8E4
:100AD00068800392059340F0BB81041D30B1072963
:100AE00009D86FF01B0011B0BDE8F08F01F00706C8
:100AF0003444C6F10806009B4FF000094FF0040A89
:100B0000591E4FF0FF334F460193CB465346CDF865
:100B100010900DB1009A22600598002800F3E8803B
:100B20009848009A824203D397488242C0F0E080FE
:100B3000039AA4EB050E92074FEA9E0000F1038191
:100B40000F2F00F2B180002D00F0058107F1400267
:100B50000DEB020C019A0CF8200C0CF8102C0498E8
:100B600001300490E7E07A285DD84B280ED847285A
:100B700059D829282DD8252852D054D820287AD0C1
:100B80002338D0F1000B4BEB000B74E04C382E28CF
:100B900049D8DFE800F07048484848484848484885
:100BA00048484B484848484848484859484B4B599A
:100BB0005959704B6D487048184B184848827F4B04
:100BC00048484B487F0000204FF0000B4FF0040ACC
:100BD00038E001222A38C0B202FA00F010EA0E0F03
:100BE00049D110F0625C2FD110EA020B43D060466D
:100BF000013C5444B4FBFAF40AFB04F4002D61D028
:100C0000A3EB050CA444B4453FF66BAF002868D1B4
:100C1000042B47D158F8043B2360042304342AE012
:100C2000019A013A01924FF0000B24E011F8010CF7
:100C30006C2834D1002011F8023C83466C2BC5D1BE
:100C40004FF0080A5346D3E708F1070828F00708D1
:100C5000073424F00704F8E802AB35B106982044C5
:100C6000B0423FF63EAFC4E900AB4FF0000B083492
:100C70004FF0080A534611F8010F002878D0BBF155
:100C8000000F7FF470AF2528F5D14FF0010B019BC9
:100C9000013301934FF0040AECE7584694E7002033
:100CA0008346A5E7082B02D06FF015001BE708F17B
:100CB000070828F00708F8E80223C4E900230823FE
:100CC0000834D8E768B9042B02D108F10408A4E776
:100CD000082BE9D108F1070828F0070808F10808EF
:100CE000EDE7059A013A059258F8042B009210E7B7
:100CF000039A900720D54FF0010CA4EB050E4FEAA4
:100D00009E00BEF5007FCFD20F2FCDD8F5B107F1F1
:100D100040020DEB020E019AC0B20EF8200C0EF844
:100D2000102CBCF1000F3FF41AAF60F07F000EF8FA
:100D3000200C09F101090137C5F108024FF6DA7EEE
:100D40000434069297E74FF0000CDAE7BCF1000F8D
:100D500001D00136EFE7029802360028EBD1009867
:100D6000CDE90631FFF7A4FBDDE906310644E2E7F1
:100D7000631BB3F5806F97D245B9A6F10804E0185C
:100D8000B1E600BFDC8700002CA00000029A9B089F
:100D900028602B709DF81030C2B1EB7085F802907E
:100DA000B9F1000F05D0002208A8C5F1010C974247
:100DB0000ED14FF0000AC5F101030DF12008019397
:100DC0000DF1300B574512D1601B8CE66B70E5E7D7
:100DD00010F8013B190608D50CEB040EB64503F0DC
:100DE0007F033FF67EAE04F8013B0132DFE7B9F145
:100DF000000F03D098F90020002A17DB029BD3B123
:100E00001AF80B2004F8012B0022019B181910443A
:100E1000B0423FF666AE98F80000009904F8010B66
:100E20002046039207F051FC039A14440AF1010A88
:100E300008F10108C6E798F8002055F82230009321
:100E4000029B009845F82230FFF732FB421CDCE79A
:100E50006FF00D0047E600BF2DE9F04F97B000AFEF
:100E6000D7F880B03B62CBF3C0030446894690F8C4
:100E700002A0FA62BB6141B9457800780AEB8000B4
:100E800020444D4517D8A0EB0409E378FB61BAF183
:100E9000000F02D01BF0010F16D1FB6953BBFB6A98
:100EA0001BB1494620463A6A98474D4628465C376A
:100EB000BD46BDE8F08F461C3046FFF7F9FA013019
:100EC000304409F10109DCE7626823787A62FA6A42
:100ED0009900796104EB8301002A40F001810E46FC
:100EE0004FF000084D4601EB0A094E454CD101EB8D
:100EF0000A0610E01BF0020FD1D023789A007A6125
:100F0000626804EB83017A62FA6A002A77D14D465F
:100F1000904601EB0A061BF0050F0CBF02230123CC
:100F2000FB62FB6906EB430A0BF00203BB6256450A
:100F3000BCD016F8021B16F8013C54F82390994BCC
:100F4000994502D3984B994536D3BB69002B40D0C5
:100F5000786A05F04EFE00283BD0E9468AB06A4622
:100F6000924B53617B6AC2E906314FF400731384DC
:100F70008F4B42F8103F00234FF412518D4800F080
:100F800019FD023DCD46D2E716F8013BF96254F84F
:100F90002300FFF78DFAD7F88430F96A01304BB19E
:100FA000D7F8883098453EBFD7F8843023F818002A
:100FB00008F10108054498E7BB6923B1786A05F098
:100FC00018FE0028C9D11BF0010F05D1FB6AED1AEC
:100FD000ADE7BB6A002BAAD04846FFF769FAD7F8FD
:100FE000843053B1D7F8883098453FBFD7F8842074
:100FF000431C22F8183008F10108054497E7BAF1BC
:10100000000F73D01BF0040673D0D046002607F102
:10101000480052463B61B96207F057FBB96A3B6929
:1010200001EB0A02BA62FA69F9695200FA60BA6A17
:1010300002EB41023A610BF00202BA603A69B96A06
:101040008A4258D162781BF0020F18BF00217A62E1
:1010500008BF4FEA5801B2181BF0010FD2B240F09E
:101060009F801BF0040F14BF40460020BB616270DC
:10107000A070E17020463A6A7969FB6A9847051EBC
:10108000FFF614AFBB69414623707B6A3A6A63700E
:10109000FB6984F802A0E37007F14800FB6A9847F7
:1010A000B0F10008C0F2BA807B69A9EB0A01C91A45
:1010B000FB683A6AC91AD7E90A0398470028C0F2C0
:1010C000AF804FF0000BA84408EB000507F1380A89
:1010D000B34571D300213A6A0846FB6A9847E5E6B2
:1010E00056464FF0000807F1380092E75646D046C2
:1010F00096E7B04694E7BA6A12F8021B12F8015C50
:10110000BA6254F82500274A904202D3264A9042F8
:101110001ED3BA6932B1786A7B6005F06AFD7B68DC
:1011200000288BD1BA6802BB08F1280207F1300C05
:1011300008F10100944407F1580208F1020852FA3C
:1011400080F00CF8101C5FFA88F800F8105C75E766
:10115000BA693AB1786A7B6005F04BFD7B6800287C
:101160007FF46CAF1BF0010F09D006F1280207F1E4
:101170003000711C161806F8205CCEB25EE71BF03A
:10118000040F3FF45BAF08F1280207F1300008F1CB
:10119000010102EB000808F8105C5FFA81F84DE7E6
:1011A000002063E7DC8700002CA00000C19700004E
:1011B00004000001B09100001BF80A3054F823909D
:1011C00087F83730D7F884302BB3D7F888309B4571
:1011D00021D2D7F8843033F81B8001213A6AFB6AA8
:1011E00007F13700984700281ADB0544B8F1000FD3
:1011F00006D14846FFF75CF900F101081FFA88F8AC
:10120000414648463A6AFB6A9847002808DB05448D
:101210000BF1010B5CE74FF00008DEE7454645E6C1
:10122000054643E6014B1860704700BFD000002020
:1012300080B505460E461746984603F021FF034643
:1012400007F0C2FA0446DFF81890424649F8003029
:1012500039463046A84754F8090001F0CDF900BFDF
:10126000080000002DE9F047058B0446280790464A
:1012700011D4022905F0070540F0CC80204605F086
:1012800058FF78B10138218B042811D8DFE800F02D
:10129000C2106D85950001290CBF45F0100545F081
:1012A0002005258388F31188BFF36F8FBDE8F08791
:1012B00001F0070AAA4500F0A5800027B9463E467E
:1012C000A368002B00F0BC8041F00801218388F363
:1012D0001188BFF36F8FA168002900F0BA800D68F4
:1012E000002900F0B680334652462046D1F80480EB
:1012F000C047002D76D02B6829461D46F0E701F047
:1013000007035A1F012A1BD8002221F00701062BD0
:10131000276889B2C4E9002209D13B4603E0628B09
:10132000013262831B68002BF9D141F00201204693
:10133000218305F0FEFE00287AD041F0200176E0FE
:10134000042B0AD121F0070189B22046218305F040
:10135000F0FE10B141F020012183218B01F0070A3A
:10136000AA454FD00027B946AAE7236921F0070113
:1013700041F00601062DD3F8009021832DD1B9F15B
:10138000000F3FD041F00801218388F31188BFF39B
:101390006F8F20463949C84729E021F007012369AA
:1013A00041F0040189B2042DD3F804902183E6D0E2
:1013B00000274FF0040A3E4682E721F00701236927
:1013C00041F0050189B2052DD3F808902183D6D0CC
:1013D00000274FF0050A3E4672E700274FF0060A45
:1013E0003E466DE72B4687E7B9F1000FD1D1EFF309
:1013F0001188202383F31288BFF36F8F238B23F090
:1014000008032383258BEA062ED525F010032383BA
:1014100005F007056669218B002EBFF670AF00232B
:101420002768C4E9003321F0070141F0010121835D
:10143000218B4FF0000901F0070AAA457FF440AF65
:10144000002F9CD041F00801218388F31188BFF35D
:101450006F8F002FC8D03D6839463346524620462C
:1014600005F093FE2F46F4E7AB067FF51BAF25F0A2
:101470002003238305F0070500E700BFB7710000D4
:101480002DE9F047044607464FF00109DFF8508088
:1014900014B93846BDE8F08794FAA4F5B5FA85F595
:1014A00009FA05F32E0108EB05156FEA030A24EA91
:1014B00003042B7B002BEBD058F806301B694BB98B
:1014C0004644736804222846196807EA0A0705F0AB
:1014D00038FFDDE7284698470028D9D1F0E700BF5C
:1014E0001892000030B5002289B00F490F4806F06D
:1014F0004DFE002200230024CDE906230E230C4DCF
:10150000CDE903344FF440722846CDE90144094B3C
:101510000949009403F0C4FA0849284606F026FD5C
:10152000204609B030BD00BF4115000098230020BF
:101530000003002059180000982D00207598000025
:10154000014803F013BA00BFD80200202DE9F0478C
:10155000804621480F4605F0D8FE0646002833D0C5
:1015600000252846BDE8F087237B83B12368DB682C
:101570000BB120469847636883F8069023681B697F
:10158000D3B9636804222046196805F0DAFE0136F3
:1015900010345445E8D3B8F1000FE2D0002DDFD06D
:1015A0002846FFF76DFF0546002FF7D0002140F2D7
:1015B000391003F013FDF1E7204698470028E0D0EA
:1015C00009FA06F31D43E2E705464FF00109034C13
:1015D000DFF80CA0DDE700BF1C26002018920000F9
:1015E00028920000014B53F8200070477C920000C5
:1015F00008B5034608462BB1044A136000F070FC9E
:10160000002008BD6FF01500FBE700BFD4000020EC
:1016100010B5044C237813B9034803F0A7F901234C
:10162000237010BD902D0020D802002010B5044674
:10163000094805F06AFE3CB1084BD3E8EF1F0139B9
:10164000C3E8E21F002AF8D1054806F0ABFDBDE86B
:101650001040044803F08AB9142600201826002000
:1016600098230020D802002000200146034BD3E835
:10167000EF0FC3E8E21F002AF9D1704714260020BB
:1016800070B5FFF7F1FF0546074C084EB44200D392
:1016900070BD63685B792BB123685B6813B1294621
:1016A000204698471034F1E7189200002892000075
:1016B00010B5044C0449204605F0D4FB034B1C60D4
:1016C00010BD00BF38020020689200000C260020E8
:1016D00000230D4A10B513700C4A0D4913600D4AD2
:1016E0000D481360FFF784FFFFF7E2FF0B4B0C4937
:1016F00018468B4200D310BD1A1A5C6812110132D1
:1017000022711033F5E700BF912D00201426002030
:1017100040420F00182600200773000018920000B6
:1017200028920000014600220023014805F0BBBBBF
:1017300038020020014805F054BC00BF38020020E8
:10174000024B0146186805F0A0BC00BF0C26002023
:10175000014805F0D5BC00BF3802002070B5274B0A
:101760001878002849D0FFF7E5FF0546002841D149
:10177000234B244C1B68002B19DD06F005FD4FF4AC
:101780007A75A0FB050647F61222002305FB0161CE
:10179000FEF774FED4E90032C01A40F2E93361EB7F
:1017A0000201984271F1000101D3FFF769FFD4E90A
:1017B000003213F57A7342F10002C4E90032BDE849
:1017C0007040FFF7C5BF63685B7923B12368294682
:1017D00020461B6898471034B442F4D32846FFF7DC
:1017E000AFFF094BD3E8EF1F0139C3E8E21F002A1E
:1017F000BED0F7E7054C064EEEE770BD902D0020F9
:1018000014260020902300201826002018920000A3
:101810002892000070B50D4D297861B90120FFF7BD
:1018200095FE0B4C0B4EB44206D3FFF797FF0028F2
:10183000FBD101232B7070BD63685B791BB12368FA
:1018400020469B6898471034EDE700BF912D00209B
:10185000189200002892000000212DE9F047084668
:10186000FFF774FE044658B340F21B684FF00009BE
:1018700006F0AAFF1B4B1C4A1B58136033B11B4BCD
:101880001B68092B02DD1A4803F070F80025194F78
:10189000DFF85CA044B12046FFF7F2FD044618B91A
:1018A0004FF0FF384FF0FF39FFF758FF064628B9D1
:1018B000B5B942464B46504603F08CF83546E9E749
:1018C0004FF0FF384FF0FF39D2E72B689B691BB10F
:1018D00000222846114698471035BD42F5D3E8E767
:1018E000054DFAE708000000102600201826002009
:1018F000D8020020289200001892000013B5184862
:1019000005F003FD174B1B7873B1EFF3118420230F
:1019100083F31288BFF36F8FFFF720FF84F31188E2
:10192000BFF36F8F02B010BD0F4B1B68002BF9D0B7
:1019300050B9002200230D48CDE9002347F61222BA
:10194000002303F085FEEDE70928EBD1074806F0F8
:1019500029FC074802B0BDE8104003F007B800BFFB
:1019600018260020912D002010260020982300200A
:10197000D802002010B5064B04461B689847214644
:10198000A060044805F00EFBBDE81040FFF7B6BFAD
:10199000D400002038020020044A054B9B1AB1EB0A
:1019A000D30F34BF52F8310000207047A0910000DF
:1019B000189200002DE9F04F8FB0C1F34A2804AF10
:1019C0000D469146B8607B600C0DB8F1000F63D0F6
:1019D00000264FF0040B4FF00A0A07F11403C7F872
:1019E0000C80C7E907667E620193CDF808B0CDF898
:1019F00000A007F11C0332464846F968FFF72CFAAD
:101A0000B0F5006F03461CD36C468AB0D9F80410B9
:101A100004AB26481A46C3E9050140F2FF71D961BB
:101A20004FF400711984224B42F8103F4FF41251C9
:101A300033462048FFF7BEFFA5462C37BD46BDE81C
:101A4000F08FC0F30A0804F11700184420F00700D3
:101A500080083B60FFF766FE68F35325044690B1AB
:101A60003B6800F11001C7E9083607F11403F9617A
:101A7000CDE900A3CDF808B048460F4AF96807F150
:101A80001C03FFF7E9F968F353252A4620467B68D3
:101A9000B96805F076FCD0E704F1170020F00700E4
:101AA0008008FFF73FFE0446EDE700BF8A9800007C
:101AB00004000001D8910000557300002DE9F04F9B
:101AC00087B00446DDE9105ADDE91279934698465D
:101AD0000391BFB13B46524610210020CDF8009043
:101AE000CDF81490FEF7E6FFB0F5006F06460AD376
:101AF00040F2FF730221174A174807B0BDE8F04FC4
:101B000005F098BC3E4605F11700304420F0070070
:101B10008008FFF707FE04F007040BF0070BE40052
:101B200044EA8B1444EA462444EA0554054640B18D
:101B30003FB13B4652463146CDF800901030FEF79B
:101B4000B9FF434622462846039907B0BDE8F04F47
:101B500005F017BCC9980000D8910000406820B17A
:101B6000034BC01A40F3CF0070474FF0FF3070476F
:101B7000A09100000EB403B503AB53F8042B01464B
:101B80000448019301F06EF802B05DF804EB03B075
:101B9000704700BF97740000CA0605D48B064CBF7F
:101BA00002490349FFF7E6BF704700BF02990000F2
:101BB000019900002DE9F04F89B09B46149B9DF8D8
:101BC0004CA00693159B04460593169B0D46904624
:101BD000179E0493BAF1000F00F09D8006F4807305
:101BE000079305F0ACFB06F00209024600283ED040
:101BF00020469149FFF7BEFF0746B9F1000F08D014
:101C000016F0440F35D12A4620468C49FFF7B2FF23
:101C1000074406F0010353B1894B204653F82A20AC
:101C2000884B8949002A08BF1A46FFF7A3FF06F42C
:101C30008073002B49D006F00803002B63D1B8F164
:101C4000000F66D0424620468049FFF793FF0546C5
:101C5000069B3D44002B6DD1049B002B73D1F307F1
:101C600000F1E48031462046FFF796FFD8E00746B2
:101C7000C3E7774B18680028CAD0764B4FF47A79BF
:101C80001B684FF03C0CB5FBF3F5B5FBF0F14FF4DE
:101C9000616300FB115509FB05F5B1FBF3F2B5FBE0
:101CA000F0FE03FB121100FB1E55B1FBFCF309FB18
:101CB00005F5B5FBF0F50CFB131120460091CDE9BD
:101CC00001E56549FFF756FFA2E706F00803EBB10F
:101CD000624B204653F82A206149FFF74BFF054627
:101CE000B8F1000F05D0424620465849FFF742FFA1
:101CF0000544BBF1000FABD05A4620465949FFF7C7
:101D000039FF0544A4E74FF0000BE1E706F00805B2
:101D1000E6E745469CE7BBF1010F069B06D1002B89
:101D200064D1049B002B7BD000250CE0002BF8D065
:101D30004D485CE04D48069B22464D4904F028FF83
:101D4000049B002B68D0DFF82C81DFF82C91049FD6
:101D50003146102F204628BF10274FF0000BFFF709
:101D60001BFF5D4545DC059B494620461A78FFF779
:101D700001FF4FF0010B1BF0070F03D14146204636
:101D8000FFF7F8FE5F453BD9059B4946204613F80F
:101D90000B20FFF7EFFE0BF1010BBBF1100FEAD1A7
:101DA0004FF0000B20463549FFF7E4FE5A46059BED
:101DB00020469A5CA2F120015F2928BF2E223049DB
:101DC000FFF7D8FE0BF1010BBBF1100F1DD01BF07C
:101DD000070F03D141462046FFF7CCFE5F455A4628
:101DE000E5D841462046FFF7C5FEEBE71F485546BC
:101DF000A1E741462046FFF7BDFE0BF1010BB0E71E
:101E000020462049FFF7B6FEC5E7059B3B440593F6
:101E1000049BDB1B04939AD1BAF1000F7FF41FAF30
:101E2000204609B0BDE8F04F05F028BB2046054A22
:101E30000549FFF79FFE15E7099900000D9900007D
:101E40008C9200000499000032990000359900003E
:101E5000242600202026002016990000A0920000D1
:101E6000399900003F990000C57400009774000084
:101E7000652C00004C990000449900004E99000028
:101E8000509900004A99000042F20F7373B58B42DB
:101E900028BF0B4605680446052168460D4A04F034
:101EA0000FFB0646636828460B225B680A4905F06B
:101EB000D7FA63683246694628465B6805F0D0FA6F
:101EC00063681B2228465B68044905F0C9FA02B022
:101ED00070BD00BFC39A00006F99000053990000C5
:101EE00000210123064A904206D8064A01B901237F
:101EF0001360054B18607047012140085B00F2E752
:101F000040420F002026002024260020F8B50D4670
:101F10000446064F4618B44201D12846F8BD14F8CD
:101F2000011BBB6801485B689847F4E7BC88000068
:101F3000014B036000207047E892000008B5044898
:101F400004F07EFEBDE80840024804F079BE00BF00
:101F5000B5990000EA99000008B50348034A00213A
:101F6000121A05F02BFB08BD00030020982D00205D
:101F7000074808B5074A0849121A05F021FBBDE8D1
:101F800008400648064A0749121A05F019BB00BF67
:101F900040000020000300202CA000004000002092
:101FA000400000202CA000002DE9F04706460C461A
:101FB00000AF002936D0D1E90012E9468AB06D465B
:101FC000A3684FF0050AA8461F48C5E90723C5E9DD
:101FD000050148F810AF002342464FF421511B4839
:101FE000FFF7E8FCD4E90312CD466369AD46184813
:101FF000C5E90723C5E90501C5F810A0002342463D
:102000004FF421511148FFF7D5FCCD46E36901217A
:10201000104A0E4805F00EFAA36901210E4A0B483A
:1020200005F008FA012E07D1EFF305830B4A31467C
:102030000648103B05F0FEF92146304602F046FA0C
:10204000BD46BDE8F08700BF189A0000F891000077
:10205000479A0000769A0000859A0000B39A000023
:1020600030BFFFF7FDBF00BF2DE9F04105460B4E25
:10207000DFF82C80324606EB0807CC1B20460949C6
:1020800006F023FBA01942460021083C06F02AFB7B
:10209000C5F8804007F10800BDE8F08100000000AD
:1020A0000400000028920000054B5A699B689A4280
:1020B0001FBF044A536843F080535360704700BF0A
:1020C0002427002000ED00E070B52A4C06460D469E
:1020D00029482A4905F081FAA36ADB0647D5264834
:1020E000274905F07AFA1120A36A1C0704D5224873
:1020F000244905F072FA12201E4CA36A990712D5E2
:1021000021491D4805F069FA636BA26A120609D5D8
:1021100001211E4A184805F08DF91EB1A36A23F06B
:102120008003A3621320134CA36ADE0704D5124870
:10213000174905F052FA1420A36A9C0604D50E48EC
:10214000144905F04AFA15200A4B9A6AD10658BF7D
:102150009A6A9A6A920642BF5A6A22F400525A62F6
:102160009A6A42F0FF029A6200232B7070BD102021
:10217000BAE700BF00ED00E0F8910000C69A000049
:10218000DC9A00000F9B0000229B00003A9B00009D
:10219000509B00006F9B000010B5244C244925483B
:1021A00005F01BFAA36A99013ED52248224905F0A1
:1021B00014FA1E20A36ADA0104D51E481F4905F04F
:1021C0000CFA1F20194CA36ADB0204D519481C49DC
:1021D00005F003FA0220A36A1C0304D51548194927
:1021E00005F0FBF92120114CA36A590304D51148CD
:1021F000154905F0F2F92220A36A9A0304D50D4887
:10220000124905F0EAF92320084CA36ADB0304D540
:1022100008480F4905F0E1F92420A36A6FEA034357
:102220006FEA1343A36210BD1D20C3E700ED00E079
:102230009E9B0000F8910000B69B0000C99B000027
:10224000E39B00000D9C00002B9C0000509C0000B4
:102250006A9C000070B5294C06460D46284829495D
:1022600005F0BBF9A36AD9043CD52548264905F0F9
:10227000B4F91720A36A1A0504D52148234905F0AB
:10228000ACF918201D4CA36A9B0512D51C482049A7
:1022900005F0A3F9A36BA26A100409D501211D4A18
:1022A000174805F0C7F81EB1A36A23F40043A362E0
:1022B0001920124CA36A590504D51148164905F096
:1022C0008CF91A20A36ADA050ED50D48134905F0DA
:1022D00084F91B20094A936A43F47F4393620023E5
:1022E0002B7070BD1620C5E7A36A9B04F2D5044885
:1022F0000B4905F072F91C20ECE700BF00ED00E08F
:10230000F8910000959C0000AB9C00000F9B000022
:10231000BC9C0000D59C0000EA9C0000059D0000CC
:102320006F9B00002DE9F0418AB0654B0446D3F85D
:102330000480002600AFC8F3080586F31188BFF3B8
:102340006F8F02F07F43B3F17F4F07D102F00C0390
:10235000082B12D15B495C4805F03FF90026344652
:102360000023FB71EB1E092B00F28980DFE803F0EC
:102370000A7F827B87878787878510074CBF0C463B
:102380000126EDE75149504805F027F900234C4D4F
:10239000FB71EB6A9A0705D54D494B4805F01DF9CD
:1023A000002331E0EB6A002B01DA4A49F5E7EB6ADA
:1023B0005B00F5D54849444805F00FF96B69A269FF
:1023C00043F480736B61BFF34F8FBFF36F8F6B6903
:1023D00032F8022C23F480736B61BFF34F8FBFF38D
:1023E0006F8F4DF602739A4207D0AB6ADBB26BB3C4
:1023F0000120F91DFFF768FE37E023680121374A05
:10240000314805F017F82368FA79DAB907F10805B9
:1024100004F1200C2A4620686168083403C2644530
:102420001546F7D17A6A002E45D0C2F3080121B9CA
:102430006FEA52226FEA42227A62184607F10801D7
:10244000FFF7B2FD2837BD46BDE8F081AB6A13F453
:102450007F4F04D00120F91DFFF7FCFE05E0AB6AB9
:10246000B3F5803F9CD3FFF797FE0346CCE70020EF
:10247000F91DBFE70020F91DEEE719498DE7194A5C
:1024800018F4F87FE8468AB0174B18BF13466A461F
:102490001649103DC2E905134FF400731384144B21
:1024A000D56142F8103F00234FF411510648FFF761
:1024B00081FAC54674E722F4FF7222F00102BBE7FD
:1024C00000ED00E04B9D0000F8910000769D0000BB
:1024D0008D9D0000AE9D0000BC9D0000DB9D0000B6
:1024E000F79D0000329D00001D9D00001B9E000016
:1024F00004000001064B5A6942F010025A615A6901
:1025000042F480625A615A6922F008025A617047A7
:1025100000ED00E0EFF30880EFF3098101B57246AA
:10252000FFF700FF01BD00BF002080F31488BFF358
:102530006F8F002080F30A8880F30B880F4880F3A8
:10254000088801F085F900200D490860BFF34F8F1E
:1025500000F02CF8202080F311880A484FF4006125
:10256000401880F30988EFF314800221084380F3B8
:102570001488BFF36F8F00F0EFF80000D8490020F7
:1025800094ED00E098300020002318460649D1F869
:102590009020C2F30722934200DB7047C1F89830C5
:1025A000C1F8A0000133F6E700ED00E010B572B607
:1025B000002484F31388FFF7E7FF23464FF0FF3032
:1025C0000C4A03F120010133102B42F82100F8D10D
:1025D00000234FF0FF30074A03F160010133102B55
:1025E00042F82100F8D162B6BFF34F8FBFF36F8F6F
:1025F00010BD00BF00E100E0084B9B6883420BD197
:10260000EFF3058343B1064B5A6842F080525A609B
:102610005A6A22F400425A6202F038BD2427002090
:1026200000ED00E016498A684FF030001044EFF3E7
:10263000098C80E8F01F202080F31288BFF36F8F91
:10264000104F4FF000664A698A603E60D2F8800001
:102650000D4C2060D2F884000023C2F8843080F34F
:10266000118802F1300090E8F01F8CF3098802F124
:10267000000004B504F0B9FFBDE804407047000055
:102680002427002004ED00E04C2600201EF0040F5B
:102690000CBFEFF30880EFF30980816911F8021C89
:1026A0000229FFD001B5724604F08CFF01BD00BFC6
:1026B00000B2002807DB01234109034A00F01F0094
:1026C000834042F82130704700E100E000B200286A
:1026D0000CDB01220649430900F01F008240203331
:1026E00041F82320BFF34F8FBFF36F8F704700BFB8
:1026F00000E100E0054B420953F82220012300F0DD
:102700001F0003FA00F01040704700BF00E100E036
:1027100000B2002801F10101ACBF00F16040064B9E
:102720004FEA4111C9B2ABBF00F5614000F00F00A4
:1027300080F800131954704714ED00E0044B054A6B
:1027400023F07F039360BFF34F8FBFF36F8F70470A
:102750000000000000ED00E008B5FFF7EFFF074ABA
:10276000D2F8883023F47003C2F88830FFF7F4FB06
:10277000FFF7FEFB00F046F801F0C8FF00ED00E0B7
:1027800042F8203C009B0B4942F81C3C019B21F085
:10279000010142F8183C029B42F8081C42F8143C24
:1027A0004FF0807342F8043C0023203A0265C0F8E1
:1027B000843070473112000000B50D4B154698600B
:1027C000D0F880200B4B0E461A60036F83F30B8802
:1027D0002C4686F309880020034B984720460021A9
:1027E00000220023014C2047F9750000311200003F
:1027F000242700204C2600201022014B1A6170472C
:1028000000ED00E00023202040F20F1210B5044C30
:10281000E1180133934281F80003F9D110BD00BFE4
:1028200000E100E008B5EFF30583064A103B02EB38
:10283000C30152F8330049688847BDE80840FFF7F4
:1028400033BC00BFDC8800001FB5094C094A234691
:102850000121094800F012F900230393074B0121DD
:10286000E41A01A80193029400F012F904B010BD1B
:1028700000F0022000000020E89200000003002089
:1028800010B50C7A0B6804F01F0223F01F031A43E3
:10289000CB68640923F01F03054943EA440343F06E
:1028A0000103C1F89800C1F89C20C1F8A03010BD08
:1028B00000ED00E010B50A4BD3F89030C3F30723C6
:1028C000013B984208D901210346064A064804F014
:1028D000B1FD6FF0150010BDFFF7D2FFFBE700BFA1
:1028E00000ED00E0329E0000F09100002DE9F04F75
:1028F0008946144606464FF00008514D85B0C8453C
:1029000027DAD6F804A0BAF1000F44D0BAF11F0FAD
:1029100017D91AF01F0F14D1D6F800B01BF01F0FF3
:102920000FD1584604F08BFE07460AEB0B00013826
:1029300004F085FE874210D06FF01507414A3B46F0
:1029400001E04346404A0121404804F073FD6FF026
:102950001504204605B0BDE8F08F17F1160FEDD035
:10296000BC42EBDDC5F89870D5F89C10C5F898709E
:10297000D5F8A03021F01F0143F01F0BD6E900323B
:102980001A44994202F1FF3A1DD1D34507D131468D
:10299000F8B204F05DFE08F101080C36AFE73146ED
:1029A000C5F89870D5F89C3022F01F0203F01F0381
:1029B0001343C5F89C30E0B204F04AFE10F1160F44
:1029C000C5D0441CE7E7C5F89870D5F8A020013BB6
:1029D00023F01F0302F01F021343D3453146E0B238
:1029E000C5F8A030E8D004F033FE10F1160FAED0D9
:1029F000C5F89870D5F89C209DF808300BF1FF3B86
:102A000062F304038DF80830D5F8A0309DF8082053
:102A10005B0863F347128DF80820D6E900321344AF
:102A2000009323F01F035B44A3EB0A03013023F060
:102A30001F036946C0B20393FFF73CFFBEE700BF28
:102A400000ED00E07B9E0000589E0000F091000029
:102A50000522044BC3F89420BFF34F8FBFF36F8F51
:102A6000704700BF00ED00E0BFF35F8F0022024B14
:102A7000C3F89420704700BF00ED00E010B5034C90
:102A80002278FFF733FF207010BD00BF932D002088
:102A90002DE9F74F294D8A4606464FF00008AB4610
:102AA000274FD0451BDAD6F80490B9F1000F3FD07C
:102AB00031680846019104F0C2FD0199044609EB12
:102AC0000100013804F0BBFD84424FF014021D4B9D
:102AD00008D002FB08F36FF015024BF8032003B097
:102AE000BDE8F08F14F1160F2C60F8D01978A142D0
:102AF000F5DD02FB08B0C7F89840C7F89840D7F852
:102B00009C4000F10801007B64F304000871D7F8D1
:102B1000A0000C79400860F347140C71D7F89C10A2
:102B200021F01F016960D7F8A01021F01F01296171
:102B300008F1010814350C36B3E700BF5026002019
:102B400000ED00E0932D0020F0B54149414CD1F853
:102B500090302568C3F307239D4287B075D80020C5
:102B6000FFF782FF3C4BC1F8C030854216D13B4C89
:102B700001A82570FFF7DCF900250646384FAE4264
:102B800013D1002023783249D1F89020C2F30722D4
:102B9000934254DBFFF75CFF00202FE0616801EBFC
:102BA0000011FFF76DFE0130DFE70199280101EB0D
:102BB0000513DA683A40B2F5001F21D0B2F5800F54
:102BC0002BD0B2F5801F38D15A689B680958013B59
:102BD00022F01F0003440120844623F01F0340EA33
:102BE0004C10CDE902218DF8100002A92078059340
:102BF000FFF760FE00281DDA6FF0150007B0F0BD8A
:102C00005A689B680958013B22F01F0003444FF0AB
:102C1000020C012023F01F03E1E75A689B68095862
:102C2000013B22F01F0003444FF0000C062023F06C
:102C30001F03D4E723780133237001359FE7C1F8E0
:102C40009830C1F8A00001339EE74FF0FF30D5E780
:102C500000ED00E0F4920000AAFF4400932D002054
:102C60000000F0FFF0B587B007460E46144600217D
:102C7000102268461D4605F035FD02238DF802300E
:102C8000054B2A4621466846CDE90476019303F0B8
:102C900043FC07B0F0BD00BF8376000008B5024BCF
:102CA0001B689847002008BD64260020034B044A97
:102CB0001860937843F002039370704764260020F5
:102CC000E000002008B50649064821F00701C1F1DF
:102CD000005202F53C3203F003FF002008BD00BFA4
:102CE000DF4900206826002008B5234A234B1A60DC
:102CF00000F05EF84FF47A612148D0F82436C3F32F
:102D00000802C3F309434B4382F480721D498832A1
:102D100001FB02334FF4FA215B00B3FBF1F201FB3C
:102D200012331949B3F57A3F28BF0132C1F804299B
:102D3000D0F820364FF47A60C3F30802C3F3094396
:102D4000434342F21C5082F4807202F2172200FBCD
:102D500002334FF47A701B0AB3FBF0F200FB12331C
:102D6000B3F5FA7F4FF0010328BF0132C1F81C27E9
:102D7000C1F80036002008BD0020A107EC010020AA
:102D800000C0FF00F82A00800000125048B1054B37
:102D9000054A1B68B3FBF2F35843044B43F00103AD
:102DA00018477047EC01002040420F00509200008D
:102DB0000122024BC3F80424704700BF002008E042
:102DC000084B70B5C31A0D4607499B10044659437A
:102DD0004022064804F069FC2B4601462046BDE827
:102DE0007040184788260020B76DDBB63C8800008D
:102DF000402373B50B4C0093041B0B460D460A4948
:102E0000A41061430646094A094804F079FC011EF2
:102E100005DA30462B4602B0BDE87040184702B0D4
:102E200070BD00BF88260020B76DDBB66977000053
:102E30003C880000F8B500220121054640F205104B
:102E4000FFF766FC0F4800F09BFD0446B8B900F0A0
:102E5000B7FD2F690C49384604F0BAF9031E09DBA7
:102E600001263E642D69084905F11C0004F0B0F903
:102E7000031E02DA1C462046F8BDEE64FBE76FF045
:102E80000404F8E7897700001C9300001FB50022B6
:102E90000123CDE902236B46084ACDF800D0CDF8D6
:102EA00004D004F05AFC002805DB43F60952002345
:102EB000684601F08FFD05B05DF804FB7B770000EC
:102EC00010B5EFF31184202383F31288BFF36F8FC3
:102ED000074A136823F00201DB07116002D40120C6
:102EE00004F0A4FD84F31188BFF36F8F10BD00BF01
:102EF000D82600200C22104B014602FB0033002094
:102F000030B4D3E90E529863EFF31180202484F398
:102F10001288BFF36F8F1C6C04F0C00444F00204ED
:102F20001C6480F31188BFF36F8F1DB12B4630BC3A
:102F30000248184730BC7047882600203C880000B3
:102F400010B4EFF31182202383F31288BFF36F8F45
:102F50001648016841F002040460C80707D482F3F0
:102F60001188BFF36F8F012010BC04F057BD1049CA
:102F7000D1F80C14C903F2D5EFF3118083F3128852
:102F8000BFF36F8F0B490B6C03F0C00343F00203D8
:102F90000B6480F31188BFF36F8F82F31188BFF346
:102FA0006F8F002010BCFFF7A5BF00BFD826002000
:102FB00000E01050882600202DE9F041012207464C
:102FC0003449D1E8EF3FC1E8E02F0028F9D133B907
:102FD000314932484B60CB608A6004F00CF97B1EAB
:102FE000012B28D8012F06D12D4BD3F8503403F0F4
:102FF0000303012B1FD004F0B3FF0546E8B9294BAA
:103000001B78D3B104220646254BC3F80823244C71
:10301000DFF89480D4F84C24D4F84C34D20315D57E
:1030200003F00303012B01D0012F0FD165B386F309
:103030001188BFF36F8FBDE8F081EFF31186202375
:1030400083F31288BFF36F8F0125E0E7BDB13046EF
:1030500004F0E6FAD4F8403413F0FF03DAD1D4F8E0
:103060000821002AD6D0C4F80831D4F8083120222B
:103070000123C4F84034C8F8A0212361CAE7002125
:10308000202001F0ABFFE5E70422054BC3F8042341
:10309000D1E700BF8426002074260020A42600204B
:1030A00000E01050962D002000E100E008B5074830
:1030B00004F024FF38B10648FFF7F8FD0448FEF796
:1030C000B1F8002008BD6FF01200FBE7BC880000DB
:1030D000D53000000A2838B50446074D04D1AB6846
:1030E0000D2128465B689847AB6803485B68E1B2EE
:1030F0009847204638BD00BFBC8800002DE9F0434A
:1031000040F206354768D00648BF4FF0030C3B7CC1
:1031100002EA050558BFC2F3401C87B001F01F0644
:10312000B5F5837F144646EA43168DF803C046D0B2
:103130000DD8062D45D005D8A5B1022D12D06FF0BF
:10314000150039E0B5F5807FF9D101250AE040F29C
:103150000222954237D0B5F5407F36D0B5F5007FD5
:10316000EDD104250123220303FA01F12FD57B6859
:103170005960B86880BB5F2E06F01F034FEA5611F6
:1031800073D83C4A52F8212084F4803102EB830248
:10319000D2F88030C1F30041C4F3404423F470639B
:1031A00044EA410423F00F031C4344EA8C0444EA3C
:1031B0000524C2F88040002007B0BDE8F08309254F
:1031C000D0E70825CEE70625CCE70525CAE7630347
:1031D00044BF7B689960CCE731460DF1020204F0F0
:1031E000FFFD14F4403F80460CD13146B86804F02E
:1031F00010FEB8F1000FDED19DF80210B86800F0A3
:1032000071FED8E74FF0000901ABCDE90199CDE996
:103210000439CDF80C903146B86803AA04F024FDB7
:103220004845C8DB14F4003314D09DF8033084F40F
:103230008034C4F300448DF80E308DF80C508DF8B6
:103240000D404B463146B86803AA00F099FD0028AE
:10325000CFDAB0E7CDE904330DF103030393314630
:10326000B86803AA04F000FDF1E7203350F82330DA
:10327000FFDE00BF409300004209022A034670B5FA
:1032800003D0012A18D0CAB170BD0E4E3269516800
:103290000029F9D0012503F01F030C689D40002987
:1032A000F2D08A682A4002D030464B6898473CB139
:1032B000236821461C46F2E7034EE7E7034EE5E7A5
:1032C0002346F6E79C8800007C8800005C880000AC
:1032D00038B54568A868C0B104F095FD0146A0B9AD
:1032E000A86800F0C7FD044688B902460949A868E5
:1032F00004F073FD22460121DB20FFF709FA224684
:10330000012140F20D10FFF703FA002038BD6FF0E5
:103310000400FBE779320000F0B545681646A8685E
:103320002A7C01F01F0487B044EA4214002868D0C8
:10333000B6F5001F04D1214604F0BFFD002051E086
:103340000020B6F5800F01AA0190506039D1B3F189
:10335000007F14BF052304238DF804300023CDE93A
:1033600004230393EB680DF1030723FA01F111F035
:10337000010139D1B6F1A07F36D104F01F035F2CD3
:103380004FEA541003F120033ED8214A52F820207E
:1033900052F82330DB0727D43A462146A86804F0C8
:1033A0001FFD163018D002972146A86803AA04F022
:1033B0005BFC002816DB01222146A86804F02BFDE7
:1033C000BCE7B3F1C06F05D0B3F1007F14BF012398
:1033D0000223C1E70323BFE73946A86800F08CFD4C
:1033E0000028E0DA07B0F0BD3A462146A86804F0AC
:1033F000F7FC0028D8D19DF80310A86800F072FDF2
:10340000D2E76FF08500EDE751F82330FFDE00BF13
:1034100040930000036803F01F025F2B02604FEA35
:1034200053129ABF024B53F822000020704700BF8E
:10343000889300002DE9F04F1546074640F2FF192A
:10344000DFF868A1DFF868B185B000EB8101B9420F
:1034500003D1002005B0BDE8F08F3A68C2F3C32362
:10346000082BC2F3080400F29E804C4508BF4FF0C1
:10347000FF34B2F1D05F1AF803804FEA126310D222
:10348000192B12D8DFE803F014226461292F61118F
:103490001111111111111111111111111111677166
:1034A0007477382B6AD04E2B52D06FF08500D1E75D
:1034B000C5F80446601C14D0012603A80394FFF746
:1034C000A9FF039B06FA03F3436004E0C5F80C462A
:1034D000621C06D00026324613E0631CC5F8004685
:1034E0005FD10437B3E7661CC5F80446F9D001265E
:1034F00003A80394FFF78EFF0122039B02FA03F354
:1035000083603B68039403F40040002818BF002246
:1035100003A818BF012601930092FFF77BFF039CCD
:10352000019B00EB8400D0F88040C3F3412C009A4B
:103530004FEA082343EA8C03134304EA0B042343B2
:1035400043EA4603C0F88030CBE7C5F80846BFE73A
:10355000C5F81046AEE7C5F86045621C3B68C0D0B0
:10356000C3F30043002BC2D0A6E7C5F86445F4E7D7
:10357000C5F86845F1E7C5F86C45EEE703A8039484
:10358000FFF748FF039B00EB8300D0F8803023F067
:10359000E04343F08043C0F88030631CA1D0012693
:1035A00099E70026A4E76FF0150053E7059F000098
:1035B000F0F0FCFF2DE9F04104460D46476804F0A9
:1035C000CFFCA0B9274B1B788BB14FF020086426A5
:1035D00063681B68D3F830318BBB012004F0E7F936
:1035E000013EF5D10021202001F0F8FCEFE7202179
:1035F000EFF311831A4681F31288BFF36F8F60686F
:103600000068D0F8300120B983F31188BFF36F8FC1
:10361000EEE77B6A00201D706368796A1B68C3F857
:103620003C170121C3F84017C3F83001D3F830012B
:10363000196582F31188BFF36F8FBDE8F081EFF356
:1036400011831A4688F31288BFF36F8F6168096887
:10365000D1F830110029DCD183F31188BFF36F8FCB
:10366000C0E700BF962D002070B40D4CD4E9006572
:10367000901B63EB0501400940EAC16041018919D3
:1036800045EBD065C4E90015002400250549C1E9D2
:103690000023054BC3E9004570BC01F0DBBE00BF51
:1036A000F0230020D8230020E823002008B50022C2
:1036B0000121E420FFF72CF8164A0020D2F8183731
:1036C00023F44033C2F8183700F048FD002820DB0F
:1036D0000120114900F0CEFD00281ADB00F018FD92
:1036E0000E4B20F01F00C3E900010D4B0022C3E97F
:1036F00000014FF0FF304FF0FF310A4BC3E90001EA
:10370000094B0A49187A00F013FD67220020084B84
:103710001A6008BD00200E50E8010020F0230020B0
:10372000D0230020D8230020E001002069360000CB
:103730000827002008B500F0EBFC064AD2E9003269
:10374000C01A054B61EB0201C3E90001400940EAE0
:10375000C16008BDF0230020E8230020F7B5224B0C
:103760000146224F187A224BD7E90056D3E90023AD
:103770009E4208BF954211D1B1F1806F0ED249012E
:10378000012938BF012101224D1946F10006C7E980
:10379000005603B0BDE8F04000F004BE154BDFF862
:1037A00058C0D3E90043DCE9002CA41843EB0C0C0F
:1037B0004FF0200E22466346C1FB0E23954276EB66
:1037C0000301C7E900230DD2291B66EB0C04C829AD
:1037D00074F10004B4BF01210021009100F0AAFDA2
:1037E00003B0F0BD0021F8E7E0010020E023002055
:1037F000D8230020F0230020E8230020064BD3F834
:1038000040231C2A05D1D3F84403431E5842584193
:1038100070470020704700BF00C0FF0003689A0790
:103820000CD50368DB070DD50922074BC3F80C251F
:103830000F22C3F8042501221A60FEE7034B036040
:10384000EF3B0360704700BF00801050F000FA505B
:1038500008B501233C4A3D48C2F800383C4AD2F83A
:1038600040231C2A04BF3B4AC2F80C34FFF7D6FFA2
:103870000830FFF7D3FF0830FFF7D0FF0830FFF71D
:10388000CDFF00F5F470FFF7C9FF334AD2F88C3052
:1038900043F44063C2F88C300022D30003F57F0369
:1038A00003F54043D3F8001401310AD0D3F80014D3
:1038B00039B1D3F800140132D3F80434402A0B6034
:1038C000EBD1214BD3F84024002A38D0FFF796FFE4
:1038D00048B11F4BD3F83423204B9A429EBF1A4B5A
:1038E0001F4AC3F84026FFF789FF18B11D4B1E4A37
:1038F000C3F8AC27FFF782FF48B13422124BC3F85C
:103900002426D3F83C2622F40022C3F83C26174B89
:103910001149D3F80026D20744BF6FF00102C3F863
:1039200000260323124AC2F81835D1F88C3043F42C
:103930004063C1F88C300023C2F8A03508BDC8220E
:10394000C3F84024C2E700BF0000125000C50D506C
:1039500000C0FF000030055000ED00E0001D0A1817
:1039600040E0A91E00A0085078000A0400E01050B2
:1039700000B00450014B1B68184700BF0C27002003
:1039800010B50C4C237993B9012323710A4B0028FD
:10399000206018BF184600F0F3F850B923680748B4
:1039A000002B08BF1846BDE8104000F035B86FF096
:1039B000770010BD0C27002075390000197A00002F
:1039C00008B5074B1B6853B140F20510FEF792FE95
:1039D00028B9BDE8084040F20510FEF769BE08BDF1
:1039E0000C27002038B504230A4C42F21075C4F8A5
:1039F0000833012363610023C4F80831D4F8083187
:103A0000D4F84C34DB0304D5012003F0D0FF013D92
:103A1000F6D138BD00E01050064A13793BB90121B8
:103A200010601171044A1846C2F8403470476FF0B4
:103A3000770070471427002000E0105010B51D4B90
:103A40001D4CD3F84C14D3F84C2411F4803F18D0FB
:103A500002F00302012A03D00AB1FFF7C3FF0022DC
:103A6000144BC3F840240022C3F80821D3F80821DE
:103A700001221A61226872B9D3F80821002AFBD00A
:103A800011E0D3F84824D107E9D5D3F850249207A0
:103A9000E3D422681AB10422C3F8042310BDD3F87A
:103AA0000821002AFBD00022C3F80821D3F80831EE
:103AB000F4E700BF00E0105014270020F8B50125FE
:103AC000184C194ED4F80C3303F00C0303B9F8BDAD
:103AD000B3FA83F30027C3F11F039A0002F5807243
:103AE00092B202F1A04202F58712176005FA03F1C3
:103AF000022B1268D8B2C4F8081310D1D4F84C3491
:103B0000D4F84C349B070AD10423C4F84054C4F8B9
:103B100004332561D4F80C3303F00C03D6E7336883
:103B20009847F7E700E0105014270020712238B5BD
:103B3000104B0021C3F80823012242F210745A608E
:103B4000C3F80011D3F800110B490A4DD1F8401306
:103B50001C2908BFDA60D5F80C3413F4803305D083
:103B6000012003F024FF013CF5D138BD034A537115
:103B7000FBE700BF00E0105000C0FF001C27002042
:103B8000054B0246187918B91A6001221A7170475C
:103B90006FF07700704700BF1C2700200022164BF3
:103BA000C3F81021D3F81011C3F81821D3F8181155
:103BB000C3F81421D3F814111049D1F840131C296B
:103BC00004BF01219960C3F80021D3F8002101222C
:103BD0001A600B4A126852B9074BD3F80021002A29
:103BE000FBD00022C3F80021D3F8003170477122C6
:103BF000C3F80423704700BF00E0105000C0FF006E
:103C00001C270020F8B50126194C1A4DD4F80C33A6
:103C100003F0710303B9F8BDB3FA83F30021C3F1D4
:103C20001F039A0002F5807292B202F1A04202F5DF
:103C30008712116006FA03F7042B1268D8B2C4F891
:103C4000087308D0062B10D02B689847D4F80C3393
:103C500003F07103DEE702236B71C4F81411D4F88A
:103C600014312023C4F80433EEE76971ECE700BF98
:103C700000E010501C270020036803F01F025F2B98
:103C800002604FEA53129ABF024B53F82200002001
:103C9000704700BFFC930000034A4309D35C00F067
:103CA0001F001844C0B27047299F0000F0B50646B7
:103CB000002487B0114F019117F8012B06AB03EBDD
:103CC000D20313F8143C02F00702D34013F00103AF
:103CD00006D10134032CEFD10023184607B0F0BD04
:103CE000074A03AD07CA85E8070055F824100A6A99
:103CF00046F824200A62002AEBD0EEE7399F000044
:103D000030920000F7B504460846FFF7C5FF06B23B
:103D100004EB4606B38A0D46DB072BD5204603F09D
:103D200080FF2946204603F0ECFE58B1204603F000
:103D3000FEFE0022276800B207EB8003C3F81025BF
:103D4000C3F810252946204603F01AFF002101A8D8
:103D5000B1820195FFF790FF019B00EB8300D0F843
:103D60008020064B134043F00203C0F88030084621
:103D700003B0F0BD6FF01500FAE700BFF0F0FCFFF4
:103D80002DE9F043044685B0084616461D46FFF768
:103D900083FF0F46804636B3204603F0BDFE18B9B8
:103DA000204603F0AEFE28BB0FFA88F904EB490960
:103DB000B9F8143013F01C0F02D07378012B19D00E
:103DC00001238DF80F3000233846CDE90063721CC3
:103DD000B31C0DF10F0103F03CFEB9F8143043F0B1
:103DE0000303A9F81430002D40D03946204603F0D3
:103DF00093FE20B96FF0150005B0BDE8F0830022F6
:103E0000297823684FEA810C03EB8103C3F810255E
:103E1000C3F810250FFA88F204EB4202938A23F4C8
:103E2000604323F0200393826E78FEB12468A87863
:103E30006444D4F810550E4B36042B40C4F81035AA
:103E400041F6F07306F4403603EA07130005D4F890
:103E50001055334300F4801003432B43C4F810354E
:103E6000938A43EA413343F0200393820020C3E75F
:103E70000FE0ECFF70B590F87440054690F875605F
:103E800044BB46222146143004F02CFC2146134A40
:103E90002B6852F836608E4212D1002440F20D1089
:103EA000C3F84441D3F844210D4A934208BFDB20B4
:103EB000FEF7FEFB0123204685F874302B6670BDAB
:103EC000CAB2920002F58070442A04BF1C501A58EE
:103ED0000131E0E76FF07700F1E700BF08940000E0
:103EE00000A00D5090F87500024B03EB800003F02A
:103EF0007ABD00BFF001002010B5064B90F87500A8
:103F00000C4603EB800003F054FD0028A4BF207092
:103F1000002010BDF00100202DE9F04F814659F836
:103F2000043B8BB0D3F8141390F8754000936C4B9E
:103F3000C9B241F40031804653F83420009803F0B0
:103F400049FE810305463AD50023CDE9073309939D
:103F5000634B07A803EBC4035B6819460193FFF7A3
:103F6000A5FE042303EBC40303934FF0000B5D4B4A
:103F70000DF11C0A0293029A594912F8013B029270
:103F8000039A02EBD3028A5C03F0070322FA03F3DD
:103F9000DA071AD40BF1010BBBF1030F0AF1040A83
:103FA000E9D14FF400310022009803F013FE01998B
:103FB00007A8FFF77BFE0028D7D125F400350124A0
:103FC000002D75D10BB0BDE8F08F474B5B440493D7
:103FD000DAF800100029DDD091FAA1F1B1FA81F1EF
:103FE000049B1C7841EA44142046FFF755FE08EB79
:103FF0004000878AC808BB08059301231AF80020EF
:1040000001F0070103FA01F122EA01020AF8002097
:1040100006A80694FFF730FE069A059B203250F85A
:104020002220C7F382065B073746C2F3014223D53D
:104030004846D6B221463A4603F083FD06A80694C8
:10404000FFF71AFE069B203350F82330C3F30143D9
:104050009E4207D10021204603F044FD3146204610
:1040600003F040FD06A80694FFF706FE0122069B1A
:1040700002FA03F30362ABE7022A0DD103212046C3
:1040800003F030FD06F00503012BEBD13A46214643
:10409000484603F056FDE5E702212046059203F06D
:1040A00021FD032EF2D0059A032ADBD1022EECE784
:1040B00095FAA5F3B3FA83F3009904FA03F225EA1B
:1040C000020503F5A27251F8222008EB430348468B
:1040D000B3F86410C2F3014203F033FD70E700BF90
:1040E00008940000399F0000399F0000074B027AB6
:1040F000D3F8101521F001010A43C3F81025026816
:10410000C3F8A4264268C3F8AC26704700200E50BE
:104110004FF0FF326FF0404330B5044CD4E900015A
:10412000824273EB0105F9D330BD00BF40270E502A
:1041300030B50C25074B1C1894F8544005FB04338C
:10414000C3E9031218750123034A8340C2F82433DC
:1041500030BD00BF4000002000200E50F0B53D4DA6
:1041600085B02C78002C6FD13B4A01AB07CA83E89D
:1041700007003A491846D1F8102522F00202C1F88A
:104180001025FFF7B3FF0723672202F00101214446
:10419000013BCCB24FEA5202F7D1052C57D1194658
:1041A0004FF0010C2B4E00246720CFB204E00CFA34
:1041B00002F220EA0200013490FAA0F25FFA84FED3
:1041C000BE45B2FA82F2F2D30131327505292A4492
:1041D00082F8547006F10C06E5D101210024204834
:1041E0009A0801FA02F212F0670F18BF1C5004334C
:1041F000302BF5D1E420FEF75BFA184B1949D3F8C0
:10420000102503F5C07322F00202C3F8902340F694
:10421000FF72C3F8A82100221A60A3F5807004334E
:104220008B420260F8D101240C4B0F4A1C660F4BE5
:104230005D201B68B3FBF2F358430D4B23439847B3
:1042400000202C7005B0F0BD6FF07700FAE76FF03A
:104250008B00F7E7400000203C92000000200E5049
:1042600000210E50B0210E5040420F00EC01002002
:104270006092000073B52B4C0546636801A803F0FB
:1042800001030E46019303F094FB00283FDB00235B
:1042900020753370636823F001036360A36843F003
:1042A0000103A360204BD3F81025900733D4D3F833
:1042B000102542F00202C3F81025C5B1D3F84827F3
:1042C00012F0010202BFD3F8481741F00101C3F810
:1042D0004817154BD3F84017D3F844174900F9D4C1
:1042E0002AB9D3F8482722F00102C3F848270F4B18
:1042F0000F4A1B68B3FBF2F30B4A03EB43136BB19A
:10430000D2F84017D2F8440710F0804001D102B033
:1043100070BD013BF3E76FF07700F8E76FF07300D3
:10432000F5E700BF4000002000200E50EC01002007
:1043300040420F0070B51D461446184A9DF81060A3
:10434000131893F8543000B20C3302EBC30142F857
:1043500033404D60C5F31301AEB10201104E02F1BE
:10436000A04202F562228000C2F820450644C2F84D
:104370002415336833B1FFF7CBFEA042A94101D227
:104380000023336070BD030103F1A04303F56223F2
:10439000C3F82045C3F82415F4E700BF400000200F
:1043A00000210E50F0B50E4D2B1893F8543000013B
:1043B0000C3355F8334005EBC3077E68641800F1F1
:1043C000A04021F0004146F1000641EAC27100F52B
:1043D000622045F833407E60C0F82815F0BD00BF6C
:1043E00040000020F7B5284B284CD3F82C6304F18B
:1043F00088070EB903B0F0BD96FAA6F00123B0FA13
:1044000080F08340DA43224926EA0306231893F812
:104410005450830019440C2303FB0543DB6873B33A
:10442000D7E8EF3F03EA020CC7E8EECFBEF1000F7A
:10443000F6D1C340DB0719D5020102F1A04202F513
:104440006222D2F82435D2F82025D1F800C0BCF180
:10445000000FCED04FF0000CC1F800C00C2101FBC2
:10446000054529690091E9688847C2E705F10C0311
:1044700004EBC30C54F83320DCF80430E5E70A6899
:10448000002AB6D00B60B4E700200E504000002098
:1044900000210E50044B40EA0120C3F80005D3F878
:1044A0000024D207FBD5704700B0045010B5044675
:1044B000FDF7B0F903480121034A02F0B2FF20469C
:1044C00003F027FDF89100003C9F00002DE9F84320
:1044D00004460D4600AFEFF31188202383F31288C2
:1044E000BFF36F8F0428294A98BF294BE9468AB049
:1044F0009668117C98BF53F820306A4688BF254BD8
:10450000C2E9073140F2013323489384234BC2E9C7
:10451000050442F8103F00234FF431512048FDF7C5
:1045200049FACD4645B1EB69C3F3080323B1012134
:104530001C4A1B4802F075FF2EB1304603F019FDEE
:1045400008B1037803B91848E9468AB06A46174BA0
:10455000D061C2E9053640F201331384144B42F8AE
:10456000103F00234FF411510D48FDF723FA29465F
:10457000CD462046FFF79AFF88F31188BFF36F8F6F
:104580003046FEF739F8BD46BDE8F8832427002001
:10459000189400004B9F0000619F0000050000017F
:1045A000F8910000899F0000599F0000AA9F000019
:1045B0000400000138B50A4B53F82040013053F88D
:1045C0002050A54200D838BD606830B1037FDB07BA
:1045D00001D403F07BFC0834F3E723689847FAE73B
:1045E0002C940000012270B5294B032086B01A706C
:1045F000FFF7E0FFFDF7A2FC0420FFF7DBFF254CEF
:10460000254D2646AE4204F1300410D300F016FCCE
:10461000204C224EAC4226D300F024FCFCF79EF83E
:104620001F4A137B23F00103137306B070BD54F8C7
:104630000C3C059354F8103C049354F8143C039339
:1046400054F8183C029354F81C3C019354F8203C55
:10465000009354E90A2354E90C0100F0E1F954F8FD
:10466000303C5E65CDE7D4E90A23B3F1FF3F08BFD4
:10467000B2F1FF3F05D052EA0301206803D100F0F8
:10468000DBFC3034C6E73146183000F053FEF8E763
:10469000962D00205491000054910000718000007C
:1046A00088240020902370B5134E012203FB00667E
:1046B000002386B0CDE904230F220193CDE9023215
:1046C00014234FF4A0720D4D0D4903FB0055044611
:1046D00002FB00110B4B3046009500F0A1F9737BF3
:1046E0002C7423F004037373074B013403EBC423CE
:1046F000EE606B6006B070BDF82300202427002018
:1047000098380020237F000098300020BFB500209B
:10471000FFF750FF294B03F5006282F3088883F30B
:104720000A880024E023264D264F85F82230EC77B6
:104730002C766C76AC7685F820406B6A43F4E023E7
:104740006B6285F82340FDF7D5FEFEF755F84FF074
:10475000FF33AB62EB62FEF7F7F9FEF775F8FCF793
:10476000B7FF194800F0C8F90120FFF723FF022026
:10477000164DFFF71FFF00F0A9FB154B15495D61B2
:10478000154B4FF48052059301232846CDE903438E
:10479000CDE901443B46009400F042F906466A7BAD
:1047A000284622F004026A7303F01FFC2046FFF73C
:1047B00079FF3A4631462846FDF7FEFF9830002043
:1047C00000ED00E0E54500001825002088240020C9
:1047D00024270020D83900200CA000002DE9F34147
:1047E000044617461E46EFF31188202383F31288F0
:1047F000BFF36F8FC368334A7BB18068916888428A
:1048000019D057EA060318D188F31188BFF36F8FC8
:104810006FF00F0002B0BDE8F081916891F90E10C1
:104820000133E36093682161A36088F31188BFF3CB
:104830006F8F0020EEE72169F2E791F90E1090F9F1
:104840000E306FF07E029942A8BF19469142B8BF60
:1048500011468B422DDD03F06FFB05462246414693
:10486000CDE90076184800F02FFA0028E1D0EFF3E8
:104870001186202383F31288BFF36F8FA068D0B115
:10488000236821699C420AD04BB193F90E309942BA
:10489000A8BF19466FF07E039942B8BF194603F0CE
:1048A0004BFB40B13146084800F0A2FA6FF00A0015
:1048B000B0E70025D2E7002DF4D186F31188BFF3CD
:1048C0006F8FF3E724270020972D0020F8B5836829
:1048D0000546002B40D0234A926893423FD1C368DB
:1048E000012B03D9013BC3600020F8BDEFF3118712
:1048F000202383F31288BFF36F8F0169806803F070
:104900001BFB2C68AC4207D10023C5E9023387F3B7
:104910001188BFF36F8FE7E7002CF5D0D4E90032A0
:10492000002613605A60637BC4E9006623F002032B
:104930006373A66004F1180003F0FAFBAC6094F90D
:104940000E3020462B61C4F8886003F04EFB3946D8
:10495000054800F04DFAC7E76FF01500C5E74FF0C6
:10496000FF30C2E724270020972D002070B5EFF319
:104970001186202383F31288BFF36F8F0468A0424F
:104980001BD0D4B1D4E90032002513605A60637B98
:10499000C4E9005523F002036373A56004F1180015
:1049A00003F0C6FB2046C4F8885003F01EFB3146D6
:1049B000BDE87040064800F01BBAD0E902329A42C6
:1049C00018BF0133836086F31188BFF36F8F70BD0A
:1049D000972D002013B5EFF31181202484F3128862
:1049E000BFF36F8F846844B1013C846081F3118808
:1049F000BFF36F8F002002B010BD52EA030406D14E
:104A000081F31188BFF36F8F6FF00F00F3E7CDE9EB
:104A100000230246014800F057F9ECE7972D0020EB
:104A20002DE9F043984685B000F15803C0E91633EC
:104A3000109B002503730423073222F007064373FB
:104A40000F9B01EB06090F4683734946C0E90655E3
:104A50008560C5730446FDF707FB0E9B073020F009
:104A60000700A067C4E91C7602930D9BA9EB00091F
:104A700001930C9B4A460093394643462046FDF776
:104A80007FFE064B65659B6884F86C5003B1DB6F55
:104A90004846E36705B0BDE8F08300BF2427002047
:104AA000F0B5002587B00595109DDDE912760495D7
:104AB0000F9D044603950E9D02950D9D01950C9D3D
:104AC0000095FFF7ADFFB6F1FF3F08BFB7F1FF3F1D
:104AD00005D056EA070305D1204600F0ADFA20467E
:104AE00007B0F0BD3A46334604F11800014900F022
:104AF00021FCF4E77180000040F201138381002360
:104B0000C0E91C33C367014B98607047242700201D
:104B10006FF00A01094A9368C3F888100849C3F87E
:104B200084004B6843F080534B60002383F311886B
:104B3000BFF36F8F9368D3F8880070472427002055
:104B400000ED00E070B590F90D20437B002A36DBC4
:104B5000D90634D11B4C63F07F032246437352F8CD
:104B6000183FE169934207D1C0E900210860E06184
:104B700011E09942F8D01B68002BF5D090F90E5047
:104B800093F90E60B542F4D0AE42F2DD5968C0E947
:104B9000003108605860A569954200D005B9E56804
:104BA000A3685A7BD20604D1DA897F2A01D9AA697F
:104BB00032B1AB4202D0284600F036FB656170BDD1
:104BC0006361FCE72427002038B590F90D200146E9
:104BD000002A437B04DA03F07F03437303F0CBF92D
:104BE0000D4D2A4652F8184FAB68944200D004B9D4
:104BF000EC688B4207D05A7BD20604D1DA897F2A2F
:104C000001D9A2692AB1A34202D0204600F00CFBD0
:104C100023466B6138BD00BF24270020B3F1FF3F5E
:104C200008BFB2F1FF3F03D00249183000F082BB49
:104C3000704700BF7180000070B590F90D200146EB
:104C4000002A437B04DA03F07F03437303F093F9F4
:104C50001C4C4B7B224663F07F034B7352F8183F8A
:104C6000E069934207D1C1E900200160E16111E0F0
:104C70009842F8D01B68002BF5D091F90E5093F9AB
:104C80000E60B542F4D0AE42F2DD5868C1E90030A2
:104C900001605960A569A368954200D005B9E5682F
:104CA0008B4207D05A7BD20604D1DA897F2A01D9F8
:104CB000AA692AB1AB4202D0284600F0B5FA2B46C9
:104CC000636170BD24270020F8B5DDE906670D4B50
:104CD0000C46986811460C4A1060EFF311822022AE
:104CE00082F31288BFF36F8F9D68284603F055F951
:104CF000284632463B46FFF791FF2046BDE8F84084
:104D0000FFF706BF2427002044270020F8B50446FB
:104D1000EFF31187202383F31288BFF36F8F437B58
:104D200049B203F01F02002A0CBF0126002639D128
:104D300003F07F032D4D437303F01DF92A46437B97
:104D4000817363F07F03437352F8183F934227D176
:104D5000E869C4E900200460EC610FE09842F8D0F3
:104D60001B68002BF5D093F90EC06145F6D08C4539
:104D7000F4DD5968C4E900310C605C60AC699442B0
:104D800000D004B9EC68AB689C4202D0204600F029
:104D90004BFA6C6187F31188BFF36F8F3046F8BD13
:104DA000E869DEE79B071ED5856803F0E4F88173A8
:104DB0002B689D4209D16B68C4E900531C606C608C
:104DC000E8E76A689342F6D01B68002BF3D093F9AA
:104DD0000E209142F5D08A42F3DD5A68C4E90032D0
:104DE00014605C60D6E78173D4E700BF24270020FD
:104DF00049B9EFF3058030B9054B5A699B689A426F
:104E000001D0FFF785BE81F31188BFF36F8F704724
:104E100024270020034648B9EFF3058232B9064A39
:104E200051699268914201D0FFF772BE83F31188F5
:104E3000BFF36F8F704700BF24270020EFF311816D
:104E4000202383F31288BFF36F8F054B9A68D37BBF
:104E5000013BD37381F31188BFF36F8F704700BF9D
:104E60002427002070B5EFF31186202383F31288E6
:104E7000BFF36F8F144DAB68DA7B0132DA732A46C9
:104E800052F8184F944200D004B9EC685A7BD2060D
:104E900004D1DA897F2A01D9A2692AB1A34202D0BA
:104EA000204600F0C1F923466B6186F31188BFF3F9
:104EB0006F8FEFF31180202383F31288BFF36F8F7E
:104EC000BDE87040FFF7A6BF24270020024B03F186
:104ED0001802C3E9062270472427002070B5EFF3BB
:104EE0001186202383F31288BFF36F8F1B4CA168B8
:104EF000E0690B68814214BF1A46002249680B60C2
:104F00005960A368E1692AB9154AC3E900210B6019
:104F1000E3610CE093F90E0092F90E50A84218D00C
:104F2000854216DD5168C3E900210B605360A56915
:104F30000B4B9D4200D005B9E568A3689D4202D0A5
:104F4000284600F071F965613046BDE87040FFF712
:104F5000DFBD8A42D8D01268D5E700BF24270020E1
:104F60003C270020F8B550EA010306460C4603D161
:104F7000FFF7B4FF0020F8BDEFF31187202383F380
:104F80001288BFF36F8F124D124BA8681860FFF79D
:104F90001BFEA868234632460F49183000F0CAF9B4
:104FA000AA680446537B384643F004035373FFF763
:104FB000AFFDAB68D3E90A23B3F1004F08BF002A65
:104FC000D8D103F0DDF8201A20EAE070D3E700BF63
:104FD00024270020442700207180000038B50446B3
:104FE0000D46FFF7BFFFB5F1FF3F08BFB4F1FF3F2C
:104FF0000246204618D000234FF47A7447F6112059
:105000001946C2FB040147F61222904271F10002D8
:105010000BD3084B834243F608538B4107D347F623
:1050200012220023FBF72AFA38BD1846FCE76FF07E
:105030000040F9E7ED85FFFF38B50446EFF3118531
:10504000202383F31288BFF36F8F437B5B070FD559
:10505000183003F06DF8637B204623F0040363737C
:10506000FFF770FD2946BDE838400448FFF7C0BE91
:1050700085F31188BFF36F8F38BD00BF972D0020D7
:10508000014B9868704700BF242700202DE9F843A2
:105090000446077BEFF31185202383F31288BFF3C7
:1050A0006F8F437B190705D585F31188BFF36F8F89
:1050B000BDE8F883D90943F008025DD14273A368C3
:1050C00013B1204602F05FFF04F1180003F030F83E
:1050D000A66D04F15808B04511D04FF0000976B123
:1050E000304602F050FF06F1180003F021F8304678
:1050F000C6F88890FFF726FDA66DB045EFD1DFF822
:10510000C080D8F808309C423ED1EFF30589B9F150
:10511000000918BF4FF00109D8F81860294A9642D3
:1051200000D00EB9D8F80C60B34202D0304600F07F
:105130007BF82046C8F8146002F05BFAB9F1000F62
:1051400002D02148FFF7D8FCD8F808309C4231D172
:10515000EFF3058373BB227BD20718D42846FFF7F1
:10516000D7FCFB07A4D5002383F31188BFF36F8F0F
:105170000423184602DF9BE703F07F0343F0080394
:10518000437302F0F8FE9AE74FF00009C4E785F395
:105190001188BFF36F8F83F31188BFF36F8F0423E0
:1051A000184602DFEFF31180202383F31288BFF348
:1051B0006F8FD4E785F31188BFF36F8FD1E700BFFE
:1051C000242700203C270020182500200122044B22
:1051D000C01A044BC0105843034B1A54704700BF09
:1051E000A8250020ABAAAAAA972D0020C3897F2B4F
:1051F00012D80A4B1B6863B1094B90F90E201B684B
:105200009A4209DB437BDB0606D1064BC31A18BF63
:10521000012303F0010070470023FAE7F8010020A2
:1052200048270020F823002070B50E4B0E4C1E7C42
:10523000054606EB460304EBC304204602F078FF64
:1052400000220A4B28469A55FFF7D0FF48B1084B79
:105250002046BDE870401A680649013AD31700F0AD
:1052600069B870BD24270020A8250020972D0020B4
:10527000F8010020CD51000038B5EFF3118520234F
:1052800083F31288BFF36F8F104B114A9C6810682C
:10529000A04206D1FFF7C8FF85F31188BFF36F8FD7
:1052A00038BD00211B7C11600A4AD35C002BF3D06F
:1052B0002046FFF79BFF0028EED0637BDB0602D180
:1052C0002046FFF7B9FC2046E4E700BF2427002072
:1052D00044270020972D0020024B1868984208BFF1
:1052E00000207047FC010020034B1B680BB9FEF740
:1052F00021BA0020704700BF4C27002030B570B1A4
:105300000B4B5B6898420AD0036843B1D3E9042190
:10531000D0E90445121941EB0501C3E90421D0E9A4
:10532000003213605A600023C0E9003330BD00BF73
:10533000FC010020B3F1FF3F08BFB2F1FF3F2DE9B0
:10534000F84F0446994615461F467AD08160EFF320
:105350001188202383F31288BFF36F8FB9F1000FF8
:10536000DFF8E4A020DBFFF7BFFFDAE90027013513
:1053700049F100092D1849EBE07306464FF0010989
:10538000C4E90453AD1843EB0707FFF7A5FF034635
:10539000DFF8B8E0DEF804A0EBB9C4E900EACAF827
:1053A0000040CEF8044028E06FF00103DAE9001273
:1053B0005B1A4FF0FF3161EB02025B1B62EB0902EB
:1053C000012B72F10001BCBF012300224FF0000944
:1053D000C0E90432D9E7D3E9041CD4E904208A42A5
:1053E00070EB0C0B24DA891A5A686CEB0000C3E9E5
:1053F0000410C4E9003214605C60FFF76DFF844262
:105400000ED1134B1B685BB9B9F1000F02D1FFF746
:105410006BFF0646304602F074FE0021FEF79EF94F
:1054200088F31188BFF36F8F28463946BDE8F88F9F
:10543000521A60EB0C009A45C4E90420ADD01B68F9
:10544000AAE700252F46EFE7C0250020FC01002039
:105450004C2700202DE9F047EFF31185202383F33B
:105460001288BFF36F8FDFF8A0900026C9F8000004
:105470000027FFF731FFDFF89480D9F80030D8E932
:1054800000ECD91750B1D0E90442A34271EB020AF3
:105490001BDAE41A62EB0102C0E90442002413EBB8
:1054A0000E034CEB01012046C8E90031C9F8004069
:1054B00002F027FE2146FEF751F985F31188BFF36C
:1054C0006F8FBDE8F047FFF7D7BE14EB0E024CEB31
:1054D000E473C0E90467C8E90023FFF70FFF85F311
:1054E0001188BFF36F8F83689847EFF311852023EE
:1054F00083F31288BFF36F8FD9F800301B1BC9F8F4
:105500000030FFF7E9FEB8E74C270020C025002057
:1055100010B5EFF31184202383F31288BFF36F8F4C
:10552000FFF7E2FE0346054AD2E90001181841EBF5
:10553000E37184F31188BFF36F8F10BDC025002085
:10554000F8B50546EFF31187202383F31288BFF3E4
:105550006F8F036823B187F31188BFF36F8FF8BD96
:10556000D0E90A46611C46F10002022972F10002EC
:1055700036D3012C76F10002BCBF01241E46013C4B
:1055800046F1FF3602F000FE013041F10001001942
:1055900046EB0101012871F1000130DB02F0F4FD5E
:1055A0006FF00203013041F10001001946EB0101E7
:1055B00083426FF000438B4126DB02F0E5FD0130B2
:1055C00041F100016FF00102001946EB01034FF0B9
:1055D000FF31121A61EB030328461C49FFF7AAFEAC
:1055E0002B6B01332B632B6A93B93C462B4653F844
:1055F000185F9D4200D0D5B984F31188ADE76FF0F4
:1056000001024FF0FF33E7E700224FF00043E3E7EA
:1056100087F31188BFF36F8F28462B6A9847EFF303
:105620001184202383F31288BFF36F8FDEE72846AF
:1056300002F0EAFC0023C5F8883084F31188BFF338
:105640006F8F2846BDE8F84002F0CFBC41550000FE
:105650002DE9F04105461C4690461F46EFF31186A2
:10566000202383F31288BFF36F8FB4F1FF3F08BF8D
:10567000B2F1FF3F05D186F31188BFF36F8FBDE80C
:10568000F081002C09DB012A74F10003BCBF012268
:10569000002412F1FF3844F1FF37284602F048FD9C
:1056A000DDE906010023C5E90A012B6342463B46BA
:1056B00028460249FFF73EFEDDE700BF41550000E6
:1056C000F8B50D4E0D4C0E4D33680E48984767786F
:1056D0002B680C48984733680B489847022F08D12D
:1056E0002478E31F5C425C412B68074898472046BA
:1056F000F8BD0024F8E700BF280200205027002052
:1057000024020020C4020020B002002070B51D4E0B
:105710001D4C33681D4898472378590744BF23F030
:105720000403237023789A0705D500F0C1F8237885
:1057300023F002032370164D14482B6898473368F2
:1057400014489847637813B1134802F074FD00239E
:1057500004211148637000F0CBF82B680D4898477E
:1057600033680A4898472378DB0705D502F060FDC7
:10577000237823F0010323702B680448BDE87040B0
:10578000184700BF2802002050270020B002002048
:1057900024020020C4020020542700202DE9F041FB
:1057A000FFF78EFF18B100242046BDE8F081364F88
:1057B00036483B689847044620B16FF08F04FFF7E6
:1057C000A5FFF1E7324D2B78D80706D402F02EFD65
:1057D00004462B7843F001032B702E4E2B48336880
:1057E000984710B1002CE8D0E9E7002CE7D13B68DE
:1057F0002648984704460028DFD12B78990706D41D
:1058000000F04EF804462B7843F002032B70336807
:105810001E4898470028E5D1002CD0D13B681B4892
:1058200098470028C9D13368184895F800809847F0
:105830000028C2D13B681848984704460028BCD1CC
:105840006B7843B918F0010F05D0144802F0F1FC51
:10585000022304466B7033680F4898470028C1D173
:10586000002CACD13B68094898470028A5D12B787B
:1058700006485A075CBF43F004032B70336898470F
:10588000002890D099E700BF28020020B002002035
:105890005027002024020020C402002054270020AA
:1058A0000122024B002083F88025704758270020F2
:1058B0002DE9F0410A4C002526464FF00108032748
:1058C0002046C4F820802777013502F092FC202D75
:1058D00004F12C04F4D1002386F88035BDE8F08172
:1058E00058270020014B1B68184700BF0402002006
:1058F00010B50A46044619B1024B00211B689847AF
:1059000010BD00BF0802002010B50C4C206802F04A
:105910004EFE0B4A1368591C11604BB9094A4820C6
:10592000D2F8003443F00703C2F80034FCF7C0FE9D
:105930002068BDE8104002F040BE00BF1002002009
:10594000DC2C00200080045038B5164D286802F089
:105950002EFE154B1C68013C1C60ECB94820FCF77E
:10596000B5FE0722114BC3F80823D3F8002422F018
:105970000702C3F80024C3F80041D3F80021C3F89C
:105980000441D3F804214FF48072C3F80841D3F8DE
:105990000831074BC3F888212868BDE8384002F079
:1059A0000CBE00BF10020020DC2C00200080045040
:1059B00000E100E070B5104D104E2B68B3420DD0E1
:1059C000FFF7A2FF00F0E6FC00F022FD40B102F07C
:1059D0003FFC0446FFF7B8FF44B92E60002405E001
:1059E00000F0E0FA044618B1FFF7AEFF204670BDA4
:1059F00002F03EFDEDE700BF0C02002011736500D0
:105A00004FF480732DE9F04796B0804603A80393C6
:105A1000002402F0A9FC4FF010091E4E0DF12F05D5
:105A200025F01F0506F1200A012210211A4802F074
:105A30007AFC2B1900935246102320211548CDF8EB
:105A4000049000F0EDFA0746F8B9D6E90C321034AC
:105A5000013342F10002302CC6E90C32E4D1B8F136
:105A6000000F04D022464146284602F04FFC2E4645
:105A7000084C0FCE0FC496E80F00203584E80F00C5
:105A800095E80F00103484E80F00384616B0BDE8E2
:105A9000F08700BFC8250020E8250020F0B5194D8B
:105AA000194FAB6B8DB0BB4229D0184E306802F055
:105AB0007EFD402300221946284602F03EFC30219C
:105AC000684602F05EFC044678B96846FFF798FF26
:105AD000044690B9302302461946684602F02DFC70
:105AE00001220023C5E90C23AF63306802F065FD95
:105AF000204602F0ADFB0DB0F0BD0E24F5E700200E
:105B0000F9E700BFC8250020B4A5B4A51402002001
:105B10002DE9F04F99B00DF1570802F10F098246B7
:105B20000E46144628F01F084FEA191922B1002921
:105B30006DD0B2F5803F6AD8364F374D386802F0E5
:105B400036FDD5E90C3213430BD15046FFF7A6FFC3
:105B5000834630B1386802F030FD584619B0BDE8D0
:105B6000F08FD5E90C2319EB020243F10003B3F5E2
:105B7000803F14D3302102A802F003FCE8B902A848
:105B8000FFF73EFF83460028E4D130230246194642
:105B900002A802F0D2FB00220023C5E90C234FF437
:105BA000807302A8029302F0DFFBDFF870A03CB91B
:105BB0002046FFF725FF8346CCE76FF0920BC9E73D
:105BC000102C4FF001024FF010015046A14628BFA3
:105BD0004FF0100902F0A7FB102352462021CDE917
:105BE00000830D4800F01CFA83460028B2D14A46D3
:105BF0003046414602F069FDD5E90C32013342F1ED
:105C00000002C5E90C32A4EB09044E44CFE76FF063
:105C1000860BA2E714020020C8250020E8250020FA
:105C20000022074BC3F81021C3F80C21C3F8002150
:105C3000C3F80421C3F80821C3F81421704700BF3A
:105C40000050045008B5FFF7EBFF01230360104B31
:105C50000A6832B9D3F80C211AB9D3F80821002AFE
:105C6000F6D00B687BB90B4B99420ED0A3F5847329
:105C7000D3F80831002B0CBF4FF0FF306FF002005B
:105C8000FFF7CEFF08BD0020FAE74FF0FF30F7E73F
:105C9000005004500851045038B505460C4691B1E7
:105CA0000021012002F00BF908480949C0F800550D
:105CB000C0F80445FFF7C6FF00210446084602F07D
:105CC000FEF8204638BD6FF00104FAE7005004509A
:105CD00000510450034B0449C3F800050348FFF783
:105CE000B1BF00BF00500450045104500450045090
:105CF00010B504460021012002F0E1F8064B0749E7
:105D0000C3F800450648FFF79DFF002104460846FA
:105D100002F0D5F8204610BD005004500851045040
:105D20000850045038B50C4659B1074D0749C5F81D
:105D300000050748FFF786FF10B9D5F8083523603E
:105D400038BD6FF00100FBE70050045010510450C3
:105D50000C5004502DE9F04F89B006460F4690468E
:105D60001D4602F062FB044678B973690090C3F3E4
:105D7000013262F305148DF8004014F0300408D1AC
:105D8000B168890710D06FF08604204609B0BDE8DD
:105D9000F08F102C08D1BDF8023023F4F87343F4CF
:105DA000A873ADF802304EE0DBB2F82B02D06FF0F2
:105DB0008504EAE700234FF0010B9E46194618467A
:105DC000D6F808C0DFF8CC9159F804AB1CEA0A0FEA
:105DD00008D00BFA00F343EA0E0303F07F0E012311
:105DE00041EA0A0101300728EED12BB19DF80330BA
:105DF0006EF347038DF803303CEA0101D7D1738875
:105E0000FF2B35D005D8802B34D0C02BCFD1022327
:105E100003E0B3F5807FCAD104239DF8021063F339
:105E200006118DF8021014B91CF0030FABD13379B1
:105E3000022B2BD020D8012BA5D1BDF8021063F383
:105E4000C811ADF80210012A6FD0032A23D0002A0E
:105E500099D13388B3F5105FA9D1182D6DD0202DBD
:105E600070D0102D8FD1DFF830A101251F261AE048
:105E70000323D2E70123D0E7032B01D0FF2B82D1EC
:105E80000221BDF8023061F3C8138AE7BDF8023081
:105E900043F4C07385E7412D3DD104254F26DFF83B
:105EA000FCA008F101080024381902F092FA002839
:105EB0006CD00134AC42F7D11F2E07D029463846AA
:105EC00002F09BFA044600287FF45FAF009B4FF07E
