:100000000000042009030000310300003303000056
:100010003503000037030000390300000000000032
:100020000000000000000000000000003B03000092
:100030003D030000000000003F03000041030000FA
:100040004303000043030000FD28000043030000B9
:100050004303000043030000D923000043030000D2
:100060004303000043030000430300004303000078
:100070004303000043030000430300004303000068
:10008000430300007D16000043030000430300000B
:100090004303000043030000430300004303000048
:1000A0004303000043030000430300004303000038
:1000B00043030000430300000000000000000000B4
:1000C0004303000043030000430300004303000018
:1000D0004303000043030000430300004303000008
:1000E000430300004303000043030000000000003E
:1000F0000000000043030000000000004303000074
:1001000000000000000000000000000000000000EF
:1001100000000000000000000000000000000000DF
:1001200000000000000000000000000000000000CF
:1001300000000000000000000000000000000000BF
:1001400000000000000000000000000000000000AF
:10015000000000000000000000000000000000009F
:10016000000000000000000000000000000000008F
:10017000000000000000000000000000000000007F
:10018000000000000000000000000000000000006F
:10019000000000000000000000000000000000005F
:1001A000000000000000000000000000000000004F
:1001B000000000000000000000000000000000003F
:1001C000000000000000000000000000000000002F
:1001D000000000000000000000000000000000001F
:1001E000000000000000000000000000000000000F
:1001F00000000000000000000000000000000000FF
:100200000348044B834202D0034B03B118477047A5
:100210003000002030000020000000000548064BA0
:100220001B1AD90F01EBA301491002D0034B03B1F4
:100230001847704730000020300000200000000008
:1002400010B5064C237843B9FFF7DAFF044B13B11E
:100250000448AFF300800123237010BD300000205C
:1002600000000000D83D000008B5054B1BB1054952
:100270000548AFF30080BDE80840FFF7CFBF00BFDF
:100280000000000034000020D83D0000A3F5803AB3
:10029000704700BF174B002B08BF134B9D46FFF75D
:1002A000F5FF00218B460F461348144A121A03F03B
:1002B00005FB0E4B002B00D098470D4B002B00D0B8
:1002C00098470020002104000D000D48002802D0AE
:1002D0000C48AFF3008003F0F9FA2000290003F086
:1002E000DBF803F0D9FA00BF0000080000000000AE
:1002F00000000000000004203000002098070020CB
:1003000000000000000000000649074A074B9B1A46
:1003100003DD043BC858D050FBDC03F0CFF9FFF7F6
:10032000B9FF0000503E0000000000203000002017
:10033000FEE7FEE7FEE7FEE7FEE7FEE7FEE7FEE795
:10034000FEE7FEE7F0B595B0084600240E461746D6
:100350001D4601F0FFFE1A990D912346082205A9BA
:100360003046CDE908750A948DF82C400C9401F0C4
:1003700055FFDDE906219DF814308DF81140CDE9D7
:10038000021203F00302012A28D0022A04D03046C8
:1003900001F0E4FE15B0F0BDBDF81650C3F3C20382
:1003A000C5F389158DF810300827082D2C4628BF75
:1003B00008243B4622460EA9304601F02FFF2D1B94
:1003C00008AB02AA21460EA8274400F039FD002DF3
:1003D000EBD1304601F0C2FE15B0F0BDBDF81440BF
:1003E000059DC4F38314C3F3C2038DF81030A2003B
:1003F0000EA93046082301F011FFC5F3952508AB7F
:100400000093224602AB0EA9284600F0A3FC30461A
:1004100001F0A4FE15B0F0BD014B01221A70704727
:100420004D000020704700BF00B583B0044B00931F
:10043000044A4023FFF786FF03B05DF804FB00BFCA
:10044000490400005000002038B50E480E4C0F4DF6
:10045000002323700378EB5CD2B253B1043002F076
:10046000C5FF58B90A4B1B7813B12378002BFCD079
:1004700038BD0C3002F0D4FC0028F3D000F0ACFD05
:10048000F0E700BF000000204D000020B006002073
:100490004C00002010B51548154A0378D35C88B08D
:1004A000C3B1043002F0ECFE124C0FCCEC46ACE8C9
:1004B0000F0094E80F008CE80F0006230B48009310
:1004C0000022694601F04CFF40B90B4B00221A7024
:1004D00008B010BD0C3002F01FFCE5E700F07CFD19
:1004E000054B00221A7008B010BD00BF00000020AC
:1004F000B0060020683900004C00002010B50F4CF9
:100500000FCC88B0EC46ACE80F0094E80F008CE804
:100510000F0006230A4A0B480093694601F020FFAA
:1005200020B9094B01221A7008B010BD00F054FD2B
:10053000054B01221A7008B010BD00BF68390000D9
:1005400019040000000000204C00002008B5FFF74F
:10055000D5FF0448042100F07BFB034B01225A71B4
:1005600008BD00BF243E00001400002070B52F48D5
:100570002F4D84B001F008F92E4801F005F9AB6861
:10058000DAB2D11C05EB810015F82110490722D4FD
:1005900005EB82015A1CC9680191D2B205EB8202B7
:1005A00001F0030CBCF1010FD66803F1020435D051
:1005B000BCF1020F2CD1BDF80630C3F3891303330D
:1005C000360C04EB93041B4801F0EAF800B1AC6070
:1005D000304604B070BD017801F00301012903F138
:1005E00002030AD0022902F1030113D005EB8100B6
:1005F000017801F003010129F4D10288C2F38312CA
:100600001344DAB2D11C05EB810015F82110BDE7C7
:100610000026D8E7428803EB9213B1E7BDF8043017
:10062000C3F38313360C1C44CDE700BFA80400209D
:1006300090000020A4040020064B074810B50022BB
:100640001A7001F03BFD044610B9044801F01AFE8F
:10065000204610BD90000020343E0000543C0000B5
:1006600030B499B10D490E4D491BC90813D00D4C3A
:10067000002302E0013399420AD034F82320824259
:10068000F8D1184655F8300030BC7047044DF9E7F2
:10069000002030BC70470846F6E700BF243E00004B
:1006A000DC3D000030000020094B013903EBC003A2
:1006B00003290BD8DFE801F0040208060420704784
:1006C00002207047587970471879704700207047AA
:1006D000DC3D0000704700BF2DE9F043884CD4E9B1
:1006E00001239A4285B05DD00023C4F81834BFF3CB
:1006F0004F8FA568EAB2D31C04EB830014F82330B3
:10070000590718D56668037803F00303012B42D01C
:10071000022B03D14388023505EB9315EAB2D4F8D6
:100720001814D31C04EB830029B9AE4239D914F84C
:1007300023305B07E7D404EB82026B1CDBB2D26888
:1007400004EB830302F00301DB680229CDE90023F7
:1007500005F102062AD0012900F08580D4F8105452
:100760003DB12B6828469B689847EB681D68002DB3
:10077000F7D1644B64486549181AC008000440F07A
:10078000020000F00FFAD4E90130C01A18BF0120AE
:1007900005B0BDE8F08303880235C3F383131D441D
:1007A000BCE7A660002005B0BDE8F083BDF80230CC
:1007B0005748C3F389184546502D28BF502565F387
:1007C0008F1305F10801ADF8023001F079FC0746FE
:1007D0000028C3D001F0BEFC002308226946384639
:1007E00001F0E8FCF343DBB20133F2B20332B5EBC4
:1007F000830F04EB82014FEA830972D9A5EB090547
:1008000008234A463846EDB201F0D4FC414909F1CB
:1008100008032A46384601F0CDFC08F1030806EB30
:100820009806D4F81834002B65D1D4F8105465B16B
:10083000EB685A7939462846002A58D02B681B683D
:100840009847EB681D68002DF2D1384601F086FC10
:10085000002000F0B7FDD4F8183403B9A6600020DA
:1008600000F0B8FD8FE7BDF800202948C2F38313DC
:10087000062B28BF062363F38912023303F00F010E
:100880008900ADF8002001F01BFC074600283FF46A
:1008900065AF01F05FFC002308226946384601F08D
:1008A00089FCBDF8003013F4707FBAD06FF00108F6
:1008B0004FF00809A8EB0508F1B203314B460422BA
:1008C00004EB8101384601F075FCBDF800300136BB
:1008D000C3F3831308EB0602934209F10409EBD832
:1008E0009FE72A460823384601F064FC95E71D6817
:1008F000002D9DD1A9E7384601F030FC43E700BF49
:1009000090000020FC3D0000DC3D00009C39000010
:10091000343E00009C0000202DE9F843DFF8E89009
:10092000044600201F460E46904600F04BFDD9F8C5
:100930000830D9F8045003F580735B1B052B5ED893
:100940000121304800F008FFFFF710FE01462D4856
:1009500000F002FFD9E9012303F580739B1A052BF0
:10096000EED9D3B2033340F2051149F82310063211
:100970000020C9F8042000F02DFDAB1CDBB209EB10
:100980008303089AC3F80C80EB1CDBB209EB8303EA
:100990001C48DF602B1DDBB209EB83030021DA600A
:1009A0006B1DDBB209EB8303099ADA6000F0CAFE23
:1009B00080F310031B0443EA1443E4006A1C04F0B0
:1009C000380444F48074D2B2EDB244F0010409EB6F
:1009D0008202033544EA8624D36049F8254099F819
:1009E00000301BB9FFF776FEBDE8F883FFF774FE11
:1009F0000028F7D0FFF770FE0028F7D1F2E72A466B
:100A0000AFE700BFAC040020900000202DE9F843C0
:100A1000DFF8CC90044600201F460E46904600F0BA
:100A2000D1FCD9F80830D9F8045003F580735B1B6A
:100A3000032B51D80121294800F08EFEFFF796FDC7
:100A40000146264800F088FED9E9013202F5807C93
:100A5000ACEB030CBCF1030FECD9DAB20332852105
:100A600049F8221004330020C9F8043000F0B2FC29
:100A7000AB1CDBB209EB83030021C3F80C80EB1C39
:100A8000DBB209EB83031548DF6000F05BFE80F307
:100A90001002691CE30003F03803C9B2EDB212047E
:100AA00043F0810309EB8101033543EA862342EADF
:100AB0001442CA6049F8253099F800301BB9FFF795
:100AC00009FEBDE8F883FFF707FE0028F7D0FFF71F
:100AD00003FE0028F7D1F2E72B46BEE7AC04002066
:100AE000900000202DE9F0412C4C054600200F46D7
:100AF000904600F067FCD4E9016303F580739B1B0B
:100B0000022B48D80121264800F026FEFFF72EFDD3
:100B10000146234800F020FED4E9012303F5807349
:100B20009B1A022BEED9D3B20333452144F823108C
:100B300003320020626000F04DFCB31CDBB204EB1A
:100B4000830300211648C3F80C8000F0FBFD80F3FE
:100B50001002711CEB0003F03803C9B2F6B21204A4
:100B600043F0410304EB8101033643EA872342EA61
:100B70001542CA6044F8263023781BB9FFF7AAFD56
:100B8000BDE8F081FFF7A8FD0028F7D0FFF7A4FD2E
:100B90000028F7D1F2E73246C5E700BF90000020F9
:100BA000AC040020F8B5284C054600200F4600F0A4
:100BB00009FCD4E9016303F580739B1B012B41D829
:100BC0000121224800F0C8FDFFF7D0FC01461F4874
:100BD00000F0C2FDD4E9012303F580739B1A012BB9
:100BE000EED9D3B20333052144F82310023200209A
:100BF000626000F0EFFB0021144800F0A3FD80F3D9
:100C00001002711CEB0003F03803C9B2F6B21204F3
:100C100043F0010304EB8101033643EA872342EAF0
:100C20001542CA6044F82630237813B9FFF752FD05
:100C3000F8BDFFF751FD0028F8D0FFF74DFD002863
:100C4000F7D1F3E73246CCE790000020AC04002057
:100C500030B4154DD5F81014044679B100200B4678
:100C600001E01B685BB1DB681A798242F9D101307F
:100C70000A28F4D14FF0FF3030BC70470846E368D3
:100C80001871D5F810344BB1DA68E36812681A604D
:100C9000D5F81034DB681C6030BC7047C5F81044D0
:100CA000E268136030BC70479000002038B5084BF4
:100CB000D3F8104401251D704CB1E3685D712368C1
:100CC00020465B689847E3681C68002CF5D138BD66
:100CD0009000002030B5C38883B004460D461BBB8E
:100CE000237A052B1ED0627A7AB9134AA08852F86B
:100CF00023400021FFF7B4FC104903462246284652
:100D000003B0BDE8304000F0BDBD1946A088FFF734
:100D1000CBFC0B4B0B4953F82020284600F0B2FDCA
:100D2000237AE2E703B030BD07490091074A08493A
:100D3000284600F0A7FDD3E7843C0000E03900001E
:100D4000603C0000DC390000D4390000B4390000F8
:100D5000BC3900002DE9F04385B01D460C9C0023F2
:100D600094F80C90237380460E4617462146284679
:100D7000FFF7B0FF062F09D8DFE807F0042E343B59
:100D8000444F1F004146204600F07CFD2B7A052B86
:100D900005D06B7A5BB92749204600F073FD2046E9
:100DA00000F064FD84F80C9005B0BDE8F083224AA1
:100DB0002249204600F066FDEDE77369039333692D
:100DC0000293F3680193B3680093D6E90023414688
:100DD000204600F057FDD9E732684146204600F032
:100DE00051FDD3E7D6E900234146204600F04AFDF5
:100DF000CCE7B3680093D6E900234146204600F0D3
:100E000041FDC3E7F3680193B3680093D6E900237B
:100E10004146204600F036FDB8E733690293F36897
:100E20000193B3680093D6E900234146204600F0C1
:100E300029FDABE7EC390000D4390000DC390000B3
:100E4000082900D970472DE9F84F1E4693F80CA0E9
:100E500000230D4607463373314610469046FFF790
:100E600039FF7DB107F1FF3BD9464C4602342C498E
:100E700019F8012F3046E41B00F004FDAC42F4D316
:100E8000082D47D02C4627493046013400F0FAFCA3
:100E9000082CF8D12449304600F0F4FCDDB107F10C
:100EA000FF3BDFF89C905C461BF8013F7E2B4FF028
:100EB0002E0206D819F8032012F0970F14BF1A4615
:100EC0002E22023419493046E41B00F0DBFCA54217
:100ED000E9D8082D06D016493046013500F0D2FC7D
:100EE000082DF8D198F80830052B02D098F8093071
:100EF00053B91049304600F0C5FC304600F0B6FC4E
:100F000086F80CA0BDE8F88F0B4A0C49304600F07B
:100F1000B9FCEEE70449304600F0B4FCC1E700BF7D
:100F2000F0390000F8390000FC390000003A0000F8
:100F3000043A0000EC390000D4390000DC3900002C
:100F4000D73C00000A4B185C1F288ABF09494FF0A4
:100F5000A04100F01F00D1F804350122824022EAAE
:100F600003001340C1F80805C1F80C35704700BFF5
:100F7000983C000000030050C20710B40FD4830750
:100F80000AD54FF0A0430C22C3F82C27C3F8302712
:100F9000C3F86027C3F864275DF8044B70474FF02F
:100FA000A04303224FF40051C3F834274FF4804488
:100FB000C3F83827C3F83C27C3F84027C3F80815FF
:100FC0004FF480324FF40041C3F80845C3F80815C8
:100FD000C3F80825D3E700BF00B585B0034600215C
:100FE00001AA44F20100CDE90111039300F004F8D5
:100FF00005B05DF804FB00BF10B572B6FFF756FEF2
:10100000FFF76AFB0028FBD1104B114C11491C1B48
:10101000E408240444F00100FFF7C4FD0E4BD3F8AC
:10102000F030DB0700D500BE0C4944F00200FFF7AA
:10103000B9FDBFF34F8F0849094BCA6802F4E0625B
:101040001343CB60BFF34F8F00BFFDE7FC3D0000B3
:10105000DC3D00006C3A000000ED00E0783A000052
:101060000400FA0530B48D688468C268CB68A54274
:1010700093412CBF0120002030BC704738B52E4B67
:101080001D78002D38D00446B0B32C4800F0F2FA99
:101090002B4B1A685B6880182A4AD2E9001243F188
:1010A0000003884273EB020203D210F1807043F117
:1010B0000003D4E90212884293410AD2B2F1FF3F01
:1010C00008BFB1F1FF3F17D01F48214601F0E8F8F3
:1010D00013E0002000F076F923692BB3002000F024
:1010E00079F9D4E905309847002000F06BF92369BD
:1010F0002BB9002000F06EF90025284638BDD4E950
:101100000212B2F1FF3F08BFB1F1FF3FF1D05B180F
:1011100042F10002C4E90232002000F05BF90A4803
:10112000214601F0BDF8E8E74FF0FF324FF0FF3302
:10113000C4E90223D2E700BF980600201C0000206B
:1011400090060020880600209C3C00002DE9F0431A
:1011500083B0074600F062FA40B1774AD2E9003125
:1011600013F1807341F10001C2E9003100213846DA
:1011700000F070FA714D30B12B6823B12868FFF789
:101180007DFF00232B600121384600F063FA002820
:1011900040F0BB806A4801A900F092FA002836D0DE
:1011A0004FF0FF384FF0FF3915E05BB94168D1E9E6
:1011B0000223B3F1FF3F08BFB2F1FF3F02D0614805
:1011C00001F06EF801A95E4800F0ACFA5C4801A994
:1011D00000F076FAD8B10378012B10D0022BE4D1BD
:1011E000584801F071F830B1C0E90289554801F062
:1011F0006BF80028F8D1544B01221A70E2E72B68F3
:10120000416899427ED04F4801F068F8DAE74A4ECB
:101210004C4801F05FF8002851D0D0E90223B3F127
:10122000FF3F08BFB2F1FF3F68D0296891B129683C
:10123000D1E9020182428B4157D22B68D3E90223C4
:10124000B3F1FF3F08BFB2F1FF3F03D029683D482B
:1012500001F026F83B4801F037F804463B48D4E952
:10126000028900F007FA3A4AD6E90031D2E900C211
:10127000C31841F10001634571EB020203D213F17F
:10128000807341F10001B8EB030369EB0109012B05
:1012900079F100091BDBB3F5350F29D242462B4803
:1012A0004FF49603002100F02FF9C0B10D2812D0A1
:1012B000002324482B6001F00DF80028ADD12B68E5
:1012C0009BB9384603B0BDE8F04300F0EFB81F48C3
:1012D000002100F0B3F92046FFF7D0FEE8E72B68C5
:1012E00013B9384600F0DEF82C6003B0BDE8F08397
:1012F000164800F0BFF9174A0244D0E7114800F041
:10130000E3FF85E700232B605CE7104800F0B2F9AB
:10131000094B1A685B6880180D4AD2E9004143F115
:101320000003A04273EB010103D210F1807043F17E
:101330000003C2E900032DE7900600209C06002070
:101340001C0600209C3C0000980600201C00002089
:1013500088060020FFFFB40010B5134B13491C682A
:10136000134882B008235822019400F091F90446F2
:1013700010B1204602B010BD0E4A0F4801A900F07E
:1013800033F804460028F4D10B48012100F03CF961
:1013900001231946094A084800F08CF8084B01223D
:1013A00020461A7002B010BDA83C00002C06002098
:1013B0001C0600204D1100001C000020FFFF7F00D4
:1013C0009806002072B6024A136801331360704712
:1013D000A0060020034A1368013B136003B962B6FC
:1013E000704700BFA006002038B5264B90F805C016
:1013F00043F82C20244A254B9B1A254A02EBCC0C9F
:10140000DB089CF804401B04ACBB04680D88C4F8DE
:10141000085591F802C090F904104FEA4C1C0029BD
:101420005FFA8CFC21DB01F1604101F5614181F83B
:1014300000C390F90410002909DB164C4D094FF048
:10144000010C01F01F010CFA01F144F8251041795B
:1014500042F8310002EBC10243F003000E490124BF
:101460001471FFF79FFB002038BD0C4C01F00F01F9
:1014700004F801C0DDE743F002000949FFF792FBE1
:10148000082038BDAC060020DC3D00000C3E00000A
:10149000A406002000E100E0B83A000014ED00E0EE
:1014A000943A0000036801221A6070470368012221
:1014B0005A60704770B405684FF480348C4083B034
:1014C000C5F80843056801F1500CC5F848434FEAD8
:1014D0008C0C05681FFA8CFC002645F80C6055F84A
:1014E0000C500195019D056801F5A87122F07F421D
:1014F00045F821200268C2F8444313B10368C3F8D9
:10150000044303B070BC70472DE9F0474FF48037B7
:10151000994603688F4082B0C3F848730368C3F8E4
:101520000873036801F150060D4603EB810122F0B8
:101530007F48D3F80435D1F84025C1F84035B600CE
:10154000B6B2D21A03684FF0000A43F806A022F0A0
:101550007F429B590093012A009B044644D0236894
:10156000D3F80465C3F84473A8EB060323F07F4364
:10157000012B226805F5A87526D042F82580216840
:10158000D1F80405A8EB0002C9F1FF13013A03F5F5
:101590007F4322F07F42934212D342B1C1F8447399
:1015A00023680020C3F8047302B0BDE8F08708F197
:1015B000010341F825302168D1F804359842EDD077
:1015C0000D2002B0BDE8F08708F1010342F8253094
:1015D0000C4B4FF4806043F0010398472168D1F829
:1015E00004359E42DAD0EBE7064B4FF4806043F0BF
:1015F00001039847236843F806A09B590193019B78
:10160000ADE700BFB03C000002680223C2F84433DB
:1016100011B10268C2F80433704700BF0368D3F801
:10162000040100B97047002282B0C3F80421D3F846
:1016300004310193019B012002B0704702684FF40E
:10164000803303FA01F1C2F848130368C3F80813A2
:10165000704700BF50318900036889B2585800B9FB
:101660007047002282B05A505B580193019B0120C1
:1016700002B070470368D3F804057047024A034B71
:1016800010681B68184700BFA4060020AC060020A5
:1016900099B110B4B2FBF3F403FB1424A4B244B91F
:1016A000C0E9001484608281C38120465DF8044B48
:1016B000704709205DF8044B70470E20704700BF4B
:1016C00010B483B050E8023F1FFAA3FCC488A445BD
:1016D00002BFBFF32F8F00220EE0C489A444848987
:1016E000A44528BFACEB040CC3EA0C4C40E802C490
:1016F000002CE7D14FF001028DF803200193019CEB
:101700009DF803200C6032B1006800EB144003B078
:101710005DF8044B704702F0FF03184603B05DF814
:10172000044B70470A884B889A4201D000207047CA
:1017300050E8022FC2EA224240E80223002BF7D1F0
:1017400001207047034653E8000F0A4643E8002C87
:101750009CF0000FF7D17047034653E8002F02EBCF
:10176000010043E8000C9CF0000FF6D1704700BF69
:10177000034653E8002FA2EB010043E8000C9CF065
:10178000000FF6D1704700BF0346012253E8001F47
:1017900041EA020043E8000C9CF0000FF6D17047CC
:1017A0000346002253E8000F00EA020143E8001C50
:1017B0009CF0000FF6D17047D0B110B4D0E90112FF
:1017C000521A0468D2B2531E2160DBB252B10168D2
:1017D0000A6803F1FF3C541C0C6013705FFA8CF331
:1017E000FF2BF4D10368002018715DF8044B70479B
:1017F0000E20704738B504460020FFF7E3FDD4E91A
:1018000000311A688A4215D9511E19602168A368EF
:1018100012F8012C208A0D68E4685B1B00FB02446F
:101820000A79DBB29A4200D20B710020FFF7D2FD99
:10183000204638BD00240020FFF7CCFD204638BDEF
:1018400038B5054600200C46FFF7BCFD2A68136832
:10185000591C1160E9682A8A641AB4FBF2F41C70FE
:10186000BDE838400020FFF7B5BD00BF826842B137
:1018700010B5044643690168006998470023A360D6
:1018800010BD70470EB400B582B0039921B104AB0E
:1018900001AA019300F0BAF802B05DF804EB03B0BE
:1018A000704700BF2DE9F04F0F4683B09742DDF837
:1018B00030A00D99164605469946C0F0A2803B46D9
:1018C0004FF00108B3FBF6F39E4208F10108F9D985
:1018D000C84538BFC84611F00103AA68009302D179
:1018E000BAF1000F6BD12B68501CB9F1010F4FF00A
:1018F000010406D909F1FF39B9F1010F06FB04F41F
:10190000F8D8B7FBF4FC664505D806FB04F4B7FB32
:10191000F4FC6645F9D9DFF8F0B04FF00D0909E0A5
:10192000B442B4FBF6F318D3AA681C462B68B7FB85
:10193000F4FC501C1BF80C100A2904FB1C772AD05D
:10194000A8609954D5E901329A42E9D32846FFF7B5
:101950008DFFB4FBF6F3B442E6D2009BC3B1BAF1FB
:10196000000F15D0C24513D9202401E0C2450FD085
:10197000AB682A68591CA960D454D5E901329A424F
:101980000AF1FF3AF2D32846FFF770FFC245EFD1C4
:1019900003B0BDE8F08FA86003F80290D5E90132EA
:1019A0009A4202F1010001D22B68C9E72846019151
:1019B000FFF75CFFAA682B680199501CC0E78B07F2
:1019C00019D42024D0452B6802F101008DD2A860E3
:1019D0009C54D5E901329A420AF1FF3A03D2BAF196
:1019E000000FEFD17FE72846FFF740FFAA68BAF162
:1019F000000FE7D177E7B9F1000F0CBF30242024A6
:101A0000E0E74FF0010863E7B83C0000002900F070
:101A1000A2822DE9F04F0C7885B0064634B9337BAD
:101A2000002B40F00C8205B0BDE8F08F91464D1CB4
:101A30004FF00D0A10E00A2CB36800F0C181326843
:101A4000591CB160D454D6E901329A4280F0968094
:101A50002C78002CE3D00135252CECD12A46002728
:101A600012F8013B2D2B00F0A381302B00F0A48154
:101A70002B2B00F094812A2B00F0B181A3F13001CF
:101A800009294FF000040DD804EB840403EB44044F
:101A90001378A3F1300109291546A4F1300402F1AD
:101AA0000102F1D92E2B2A4600F0A3814FF0000845
:101AB00003F0FB01682902F101054DD0252B53D01D
:101AC000583BDAB2202AC3D8202BC1D801A252F841
:101AD00023F000BFF11B0000511A0000511A000052
:101AE000511A0000511A0000511A0000511A00004A
:101AF000511A0000511A0000511A0000511A00003A
:101B00000D1C0000851B0000511A0000511A000036
:101B1000511A0000511A0000851B0000511A0000E4
:101B2000511A0000511A0000511A0000511A000009
:101B3000511A0000EB1C0000511A0000511A00005D
:101B4000411C0000511A0000371C0000511A00000F
:101B5000511A0000F11B000015F8013B03F0FB02D5
:101B6000682AF9D0252BABD1B2683168501CB0601F
:101B70008B54D6E901329A42FFF46AAF3046FFF740
:101B800075FE65E7D9F800301A1DC9F80020D3F8B2
:101B900000B08BEAEB73A3EBEB73092B40F37A8273
:101BA000B94801211A46632AA0FB03C301F10101D0
:101BB0004FEAD303F6DC414538BF414607F0020344
:101BC000002C00F07781BBF1000FC0F2DE817807B6
:101BD00040F11582601E1BB1B8F1000F00F04F827A
:101BE000FB0700F11A82002800F042820446D3E18C
:101BF000D9F8001043461022081DC9F800000968F2
:101C00003046CDE90047FFF74DFE21E7D9F8003017
:101C10001A1DC9F800201C78B3680A2C7FF40FAF96
:101C2000591C3268B1600D21D154D6E90123934289
:101C3000FFF405AFCEE0D9F8001043460A22DBE7F7
:101C4000D9F800301A1DC9F8002017F00107D3F8A1
:101C5000008040F0FA80B8F1000F03D0404601F058
:101C600067FE0746BC4215D94FF0200B01E0BC428D
:101C700010D0B2683368511CB16003F802B0D6E9E5
:101C80000130984204F1FF34F1D33046FFF7EEFD06
:101C9000BC42EED198F80040002C3FF4D9AEB068B9
:101CA00047464FF00D080A2C034610D03268591CE5
:101CB000B160D454D6E90130984280F04D8117F8D4
:101CC000014F002C3FF4C4AE0A2C0346EED132681B
:101CD0000133B36002F80080D6E901239342E5D3D3
:101CE0003046FFF7C3FDB368E0E7D9F800301A1DAE
:101CF000C9F80020D3F80080B3683268581C30213E
:101D0000B060D154D6E90123934280F00181591C7F
:101D10003268B1607821D154D6E901329A4280F01C
:101D2000F280B8F10F0F474603D943461B090F2B2A
:101D3000FCD801240823013B012B21464FEA04145F
:101D4000F9D1B8FBF4F30F2B09D90C02B8FBF4F36B
:101D50000F2B04D92401B8FBF4F30F2BFAD8DFF8CA
:101D60002CB106E00F2C4FEA14137FF671AEB26867
:101D70001C46B7FBF4F31BF80380B8F10A0F04FB11
:101D800013774DD03368501CB06003F80280D6E959
:101D900001329A42E6D33046FFF768FDE2E747F0AA
:101DA000040715462A4612F8013B2D2B7FF45DAE41
:101DB00047F001071546F5E747F002071546F1E73A
:101DC0003268591CB16002F803A0D6E9012393429E
:101DD000FFF435AE3046FFF749FDB3682FE6D9F87A
:101DE0000030191DC9F800101C686B782E2B7FF489
:101DF0005DAE5378A3F13001092902F101024FF0E1
:101E000000083FF655AE08EB880803EB480812F8C7
:101E1000013FA3F130010929A8F13008F3D947E6C1
:101E20003368501C4FF00D01B0609954D6E901326F
:101E30009A42A7D33046FFF719FDB268A2E73046B1
:101E400005B0BDE8F04FFFF711BD98F80030002B4A
:101E500000F02A81B0684746C8F101080A2B014604
:101E600008EB070B66D03268481CB0605354D6E9C3
:101E70000130984251D217F8013F002BEED15C455A
:101E80007FF6E6AD202706E0CDCCCCCCB83C0000F8
:101E90005C453FF4DDADB3683268591CB160D7547E
:101EA000D6E901329A4204F1FF34F1D33046FFF70C
:101EB000DDFCEDE7002B59D1FB0700F1A780BBF15A
:101EC000000FC0F2DF80AFB1B2683368501CB06061
:101ED0002B209854D6E901329A4204D3304603911C
:101EE000FFF7C4FC039907F00303022B02D1B8F1FA
:101EF000000F68D0CDE90047434659460A223046D4
:101F0000FFF7D0FCA4E53046FFF7B0FCB26808E765
:101F10003046FFF7ABFCB368F9E63046FFF7A6FCA6
:101F200017F8013F002BAAD0B0680A2B014608EB36
:101F3000070B98D10131B16031684FF00D020A549E
:101F4000D6E9012191428ED330460393FFF78EFCF0
:101F5000B168039B87E770473046FFF787FC17F8A7
:101F6000014F002C3FF474ADB0689CE6B8F1000F4F
:101F700022D017F0010349D1BBF1000FC0F28280DB
:101F800017F00404B3D01C469EE7013C002B50D14F
:101F9000FA0753D4002C75D02023A1420DD2B26889
:101FA000501CB06030688354D6E90102824204F1CB
:101FB000FF3454D2002CF0D10024BBF1000F61DBC0
:101FC000780790D580E7002C94D03023A14291D29D
:101FD000B268501CB06030688354D6E90102824276
:101FE00004F1FF3402D2002CF0D183E73046039194
:101FF000FFF73CFC03993023002CE7D17AE7002B54
:102000004AD1002FC8D02046044673E7BBF1000F29
:1020100014DB17F00400F7D00020B2683368541CBA
:10202000B4602B249C54D6E901329A42ECD3044686
:1020300054E7B8F1000F25D0FB073DD5B2683368EF
:10204000511CB1602D219954D6E901239A42CBF15C
:10205000000B3FF64FAF3046FFF708FC4AE730462B
:102060000391FFF703FC03992023002C95D1A3E7EC
:10207000BBF1000F05DB17F004043FF438AF044652
:1020800022E70446B2683368501CB060CBF1000B05
:102090002D201EE701218EE5B8F1000F06D0FA07CA
:1020A0007FF57AAF2046AFE79B46E8E607F00303EB
:1020B000022B7FF41FAF88E7204694E5FFF77CBB37
:1020C0002DE9F843048ACF1C043C27440646B7FB9D
:1020D000F4F7FFF78FFB98B3FFB24FF48073013F23
:1020E00081468380C48006602CD00346002507E02B
:1020F0000134AF4289F80540C8F80000066021D0DD
:1021000030469846FFF776FB013599F805400346BF
:102110000028EDD1611ED9F8006016D04A4601337F
:1021200099421268FBD1176854B1002501E0B1460D
:102130003668494638460135FFF782FBAC42F6D88F
:102140004FF000094846BDE8F88349463046FFF79E
:1021500077FBF5E701210430FFF7FEBA2DE9F041E6
:10216000012104460430FFF703FB10F0FF0301D008
:10217000BDE8F08167792668791E15D022460133C3
:1021800099421268FBD1D2F80080002FF0D00025D0
:1021900001E034463668214640460135FFF750FBE2
:1021A000AF42F6D8BDE8F08121463046BDE8F041A7
:1021B000FFF746BB2DE9F8438846C788417907FBFE
:1021C00001F1043902EB030C1E1D6145154638BFB1
:1021D000CD1AB7420446B6FBF7F207FB126002D8ED
:1021E000013A2468FCD13E1AAE4228BF2E469DB16A
:1021F0004FF000090430AD1B324608EB09012044C2
:1022000001F088FBAF42B14424683E464FF0000025
:1022100028BF2E46002DEDD1BDE8F8832DE9F84307
:102220000446C788407907FB00F0043802EB030C32
:102230001E1D6045154638BFC51AB7428846B6FB15
:10224000F7F207FB126102D8013A2468FCD17E1A2A
:10225000AE4228BF2E469DB14FF000090431214403
:10226000AD1B324608EB090001F054FBAF42B1440C
:1022700024683E464FF0000128BF2E46002DEDD1C8
:10228000BDE8F883826800239360826813618268E6
:1022900053618268D36082685360826813607047BC
:1022A00070B5446823680D465BB1064602E01C46E3
:1022B0001B6833B11846B268294690472368002846
:1022C000F5D12B60256070BD4368186808B10268BD
:1022D0001A60704743681868704700BF4368186801
:1022E00018B908E00346006828B18842FAD10268AC
:1022F0001A6001207047704730B50A4B0A4C53F8FA
:10230000213054F82110027885B0D0E901548DF8BD
:102310000020C26801958DF80840039268469847EE
:1023200005B030BDBC060020B406002030B50A4B15
:102330000A4C53F8213054F82110027885B0D0E9C6
:1023400001548DF80020C26801958DF80840039271
:102350006846984705B030BDBC060020B406002092
:10236000F0B5184B067889B043F82620164B044682
:10237000487F98551546154A8E46096942F8261039
:1023800022789F5CBEE80F00EC46ACE80F009EE8A8
:102390000F008CE80F0004964FB1002D0C4A6946DF
:1023A00008BF2A46201D00F05FFE09B0F0BD002DD9
:1023B000084A694608BF2A4604F10C0000F0B8FB41
:1023C00009B0F0BDBC060020B0060020B406002015
:1023D000F92200002D2300002DE9F047002384B0EE
:1023E000CDE90233C94AD2F80011012900F04F8229
:1023F0001E46C64BD3F80421012A00F03982C34B94
:10240000D3F80821012A00F02482C04BD3F80C2114
:10241000012A00F00F82BD4BD3F81021012A00F0F1
:10242000FA81BA4BD3F81421012A00F0E581B74BA9
:10243000D3F81821012A00F0C881B44BD3F81C311D
:10244000012B00F06981B14BD3F87C21012A05D022
:10245000002E40F08B8104B0BDE8F0870022C3F865
:102460007C21D3F87C3101934FF0A042019BD2F83C
:102470002015A74B0291C2F82015D3F8202503920E
:10248000C3F82025002E40F06F81A24CA04E0125FC
:102490004FF0A04794F960305A1C46D0C3F3C201F4
:1024A000694403F0070291F808C005FA02F21CEA39
:1024B000020FD9B203F03F0037D01F2800F2758118
:1024C00003464FF0A04909EB830205FA03F3D2F863
:1024D00000C7D2F800E72EF4403EC2F800E704EB54
:1024E000000ECCF3014C9EF930E0D2F800A754F86E
:1024F0002E80BCF1020F14BF4FF4003E4FF4403E5B
:102500004EEA0A0EC2F800E7C9F82035B8F1000F0C
:102510000BD08909032900F0D481BCF1020F00F02F
:10252000CD81BCF1030F00F0DB8194F96130581CC0
:1025300046D0C3F3C201694403F0070291F808C012
:1025400005FA02F21CEA020FD9B203F03F0037D0BD
:102550001F2800F22E8103464FF0A04909EB8302A9
:1025600005FA03F3D2F800C7D2F800E72EF4403E94
:10257000C2F800E704EB000ECCF3014C9EF930E00A
:10258000D2F800A754F82E80BCF1020F14BF4FF40C
:10259000003E4FF4403E4EEA0A0EC2F800E7C9F88A
:1025A0002035B8F1000F0BD08909032900F08E8186
:1025B000BCF1020F00F08781BCF1030F00F09481A1
:1025C00094F96230591C46D0C3F3C201694403F048
:1025D000070291F808C005FA02F21CEA020FD9B20C
:1025E00003F03F0037D01F2800F2E78003464FF08A
:1025F000A04909EB830205FA03F3D2F800C7D2F829
:1026000000E72EF4403EC2F800E704EB000ECCF3E6
:10261000014C9EF930E0D2F800A754F82E80BCF1AE
:10262000020F14BF4FF4003E4FF4403E4EEA0A0E34
:10263000C2F800E7C9F82035B8F1000F0BD08909BE
:10264000032900F03481BCF1020F00F02D81BCF1B0
:10265000030F00F0418194F963305A1C46D0C3F354
:10266000C201694403F0070291F808C005FA02F2BA
:102670001CEA020FD9B203F03F0037D01F2800F246
:10268000A08003464FF0A04909EB830205FA03F34B
:10269000D2F800C7D2F800E72EF4403EC2F800E7B7
:1026A00004EB000ECCF3014C9EF930E0D2F800A709
:1026B00054F82E80BCF1020F14BF4FF4003E4FF4CB
:1026C000403E4EEA0A0EC2F800E7C9F82035B8F1DC
:1026D000000F0BD08909032900F0EE80BCF1020F36
:1026E00000F0E780BCF1030F00F0F280D7F820354E
:1026F0000293C7F82035D6F8202503921343C6F875
:1027000020257FF4C7AE04B0BDE8F087006000402C
:1027100000030050C8060020754BD3F804231106AF
:102720007FF591AE0022C3F81C21D3F81C21009242
:10273000D3F87C31009A012B46F0800616D16C4B01
:102740000022C3F87C21D3F87C3101934FF0A042E2
:10275000019BD2F82015674B0291C2F82015D3F8DF
:1027600020250392C3F8202546F00046624F00243E
:102770000125A30003F18043354203F5C0430BD08C
:10278000D3F8100557F82420D3F81015C0F305200E
:10279000C1F3014102B190470134082C4FEA4505CD
:1027A000E7D1002EBFF657AE6FE603F01F03B14628
:1027B00089E603F01F03B146D0E603F01F03B146DC
:1027C00017E703F01F03B1465EE7D3F80423500672
:1027D0007FF533AE0022C3F81821D3F818210092F8
:1027E000D3F81C210099012A46F0400694D0D3F872
:1027F0007C31012BBAD1A2E7D3F8042394067FF5EC
:1028000016AE0022C3F81421D3F814310093009BB4
:1028100046F020060BE6D3F80423D5067FF501AE7B
:102820000022C3F81021D3F810310093009B46F02A
:102830001006F6E5D3F8042317077FF5ECAD002268
:10284000C3F80C21D3F80C310093009B46F0080626
:10285000E1E5D3F8042352077FF5D7AD0022C3F892
:102860000821D3F808310093009B46F00406CCE51C
:10287000D3F8042391077FF5C2AD0022C3F80421E9
:10288000D3F804310093009B46F00206B7E5D2F876
:10289000046316F001063FF4ACADC2F80031D2F883
:1028A00000310093009BA4E501297FF4D4AEC0471A
:1028B000D1E601297FF41AAFC04717E701297FF459
:1028C00034AEC04731E601297FF47AAEC04777E6DF
:1028D00002297FF40BAFEFE702297FF4BCAEE6E7F5
:1028E00002297FF422AEECE702297FF469AEEDE71E
:1028F0000060004000030050C8060020014B1B6828
:10290000184700BF340700200C4B984213D110B574
:1029100000200C46FEF756FD094B187920B1002027
:10292000FEF758FD112010BD01221C601A71FEF740
:1029300051FD002010BD0020704700BF0020004066
:1029400034070020034B984203D1034B00221A6046
:102950001A7170470020004034070020000000007A
:1029600010B5714AD2F8043399058AB068D5D2F807
:102970002431002B64D00023C2F82431D2F8243152
:1029800001934FF40171694B0198C2F8081393F851
:10299000291009B901215160634902228DF81820DC
:1029A000D1F88024C1F880249FED5D7B9969D868B7
:1029B0000790CDE9081283ED067BD3E9001206A843
:1029C0009047594AD2F81C31C3B1584B5869196A1B
:1029D00088426AD993F8281001F0FF00002964D1D9
:1029E000C2F81C01D2F81C11039103999C68186A63
:1029F000196A205C01311962C2F81C054A4AD2F8F2
:102A00004431DBB10021494BC2F84411D2F84401F2
:102A100093F829100090009809B1012111609A697A
:102A200062B1D8685C6A00210122CDE9070499618E
:102A30008DF8182006A8D3E9001290470AB010BDFF
:102A4000394AD2F804335B07BBD5D2F80831002BE2
:102A5000B7D0364B996900293ED00021C2F8081141
:102A6000D2F8081104910499D868596AD2F8182547
:102A700042545A6A996901325A625A6A8A42A0D10A
:102A8000DA691968002A30D0D8689A611A695C6AD4
:102A90000790DA60002001220894D86158625C68CF
:102AA0008DF8182006A8A0478BE71F4A0020C2F81F
:102AB0001C01D2F81C210292029A5A69002A9DD068
:102AC000D3E901215C698DF81800CDE9071458613C
:102AD000196806A8904791E7C2F80811D2F80801D2
:102AE00005900598D2F81825C7E793F8292012B960
:102AF0000D4A012050600C4A4FF40170C2F80803DF
:102B0000586ADA6800249C610124CDE907205B68DB
:102B10008DF8184006A8984753E700BFAFF3008030
:102B200000000000000000000020004040070020DE
:102B30002DE9F041724F06792C2303FB067382B016
:102B400093F82A30002B40F09E8005460C46006822
:102B50006C499046FFF7D8FE002840F0908023682B
:102B6000591C19D01F2B4FF001028ABF66494FF044
:102B7000A04103F01F0302FA03F3C1F808352368EC
:102B80001F2B86BF03F01F035F4A4FF0A04203F5DF
:102B9000E073032142F8231063685A1C0BD01F2BEB
:102BA00086BF03F01F03584A4FF0A04203F5E073BD
:102BB000002142F823102B68A269C3F82425227D46
:102BC000637D13432A68C2F86C35D4E900122B6880
:102BD000C3F81425C3F80C15237D012B5CD02C23DE
:102BE00006FB03F3FA18C2F804802269FA502B6836
:102BF000B8F1000F2DD00021227FC3F81C11D3F8AB
:102C00001C310093009B2B68C3F84411D3F8443166
:102C10000193019B2B683D49C3F804132B6843F3D0
:102C200007335201002BD2B231DB03F1604303F5CD
:102C3000614383F800232B6843F30732002A08DB43
:102C400033495409012302F01F02934041F8243014
:102C50002B680422C3F800252C2303FB06F606F19B
:102C6000180200233E44B918BB5001224B6086F87D
:102C70002930736186F82A2002B0BDE8F081112066
:102C800002B0BDE8F081082002B0BDE8F081214922
:102C900003F00F03CA54CEE7A368591C0BD01F2BB7
:102CA00086BF03F01F0318494FF0A04103F5E073FE
:102CB000002241F82320E3685A1C1AD01F2B8ABF38
:102CC00011494FF0A04103F01F03012202FA03F360
:102CD000C1F80835E3681F2B88BF03F01F0303F515
:102CE000E0738CBF08494FF0A041032241F8232034
:102CF000E3682A68A168C2F80835C2F810156EE7C3
:102D000040070020612900000003005080000200FD
:102D100000E100E014ED00E0F8B5036807793C4CF1
:102D20000022C3F800252C2202FB074203685268E8
:102D3000B2B1384AC3F80823036843F30732002AC4
:102D40000EDB5309344D2033012102F01F0201FA3A
:102D500002F245F82320BFF34F8FBFF36F8F036854
:102D6000D3F80C65D3F81455D3F80825D3F810150B
:102D70004FF0FF3CC3F814C5C3F80CC503686645A3
:102D8000C3F808C5C3F810C50CD01F2E86BF06F0C7
:102D90001F06224B4FF0A04306F5E0764FF0020CE1
:102DA00043F826C06E1C0BD01F2D86BF05F01F05F3
:102DB0001A4B4FF0A04305F5E075022643F8256055
:102DC0004D1C0BD01F2986BF01F01F01134B4FF084
:102DD000A04301F5E071022543F82150531C0BD0AC
:102DE0001F2A86BF02F01F020C4B4FF0A04302F5D2
:102DF000E072022143F822100068FFF7A3FD2C22A5
:102E000002FB0744002384F82A306360F8BD00BF4A
:102E1000400700208402020000E100E000030050AF
:102E20002DE9F041334C90F804E02C2303FB0E43D2
:102E30008446586984B000284ED15A61996018625E
:102E400083F82800DCF80020C2F81C01D2F81C210D
:102E50000292029ADCF8002001219160DCF8002047
:102E60009D68C2F81C01D2F81C1101910199196AE0
:102E70006E5C196A01311962C2F81C655A6812B198
:102E800004B0BDE8F0815E691A6ADCF80010964271
:102E90001BD9074602E093F828200ABBD1F81C2171
:102EA000002AF8D0C1F81C71D1F81C210392039AB2
:102EB0001A6A15F802801A6A01321A62C1F81C8572
:102EC0001A6A9642EAD8DCF80010D1F81C31002BBF
:102ED000FBD00123CB6004E0112004B0BDE8F081F9
:102EE0000F202C2303FB0E4300225A6104B0BDE8DF
:102EF000F08100BF40070020F0B5594BD3F82421E2
:102F00008BB0002A58D00022C3F82421D3F8241112
:102F1000049102228DF818200499524AD3F88014A3
:102F2000C3F880149FED4C7B0991D3F83C45D068E1
:102F300082ED067BCDE90704D2E9001306A8984785
:102F4000474BD3F8442152B10021464AC3F84411FB
:102F5000D3F84401916903900398002960D1404B54
:102F6000D3F8202162B10020C3F82001D3F820213A
:102F7000029201213B4A029CD9605169002942D149
:102F8000374BD3F85821AAB10020C3F85801D3F821
:102F90005811344A01910199516959B1D3F84C45FE
:102FA0008DF81800D2E901315061CDE9071406A867
:102FB000116898470BB0F0BDD3F810110029BFD0AD
:102FC000C3F81021D3F81011264C05910599A16979
:102FD000D3F83C058842B3D1E569E768A561D4E937
:102FE00000167DB3E261D3F8002222F02002C3F87C
:102FF00000222369E3600123CDE907708DF81830C2
:1030000006A8B0479CE7D3F84C458DF81800D2E9E4
:1030100001315061CDE9071406A811689847AFE760
:103020009FED0D7BD3F83C45D0684FF0010CCDE906
:10303000070482ED067BD2E900138DF818C006A8BC
:1030400098478CE70123CDE907708DF8183006A862
:10305000B04775E7AFF300800000000000000000FB
:1030600000200040700700202DE9F0430779DFF8C9
:103070000C8207EBC70308EB830387B093F820307B
:10308000002B40F0B48004460D4600687649914616
:10309000FFF73AFC002840F0A6802B68591C4FEA45
:1030A000C70619D01F2B4FF001028ABF6F494FF09E
:1030B000A04103F01F0302FA03F3C1F808352B689F
:1030C0001F2B86BF03F01F03684A4FF0A04203F591
:1030D000E073032142F823106B685A1C0BD01F2B9E
:1030E00086BF03F01F03614A4FF0A04203F5E0736F
:1030F000002142F823102368A969C3F824152B7D09
:103100006A7D1A432368C3F86C25D5E9003122682B
:10311000C2F80C35C2F814152B7D012B70D0F219B2
:1031200008EB8203C3F804902B6948F82230236827
:10313000B9F1000F42D000212A7FC3F81011D3F853
:1031400010310193019B2368C3F82011D3F820317B
:103150000293029B2368C3F82411D3F8243103930C
:10316000039B2368C3F84411D3F844310493049BB0
:103170002368C3F85811D3F858310593059B236889
:103180003B49C3F80413236843F307335201002B70
:10319000D2B230DB03F1604303F5614383F80023CF
:1031A000236843F30732002A08DB3249550901231B
:1031B00002F01F02934041F8253023683E44B600D8
:1031C00006F1180108EB010446440825C3F8005530
:1031D0000022012348F801206260726186F82030E5
:1031E00007B0BDE8F083112007B0BDE8F0830820E8
:1031F00007B0BDE8F083204903F00F03CA54CFE7BE
:10320000AB68591C0BD01F2B86BF03F01F03174957
:103210004FF0A04103F5E073002241F82320EB6852
:103220005A1C1AD01F2B8ABF10494FF0A04103F03F
:103230001F03012202FA03F3C1F80835EB681F2BC4
:1032400088BF03F01F0303F5E0738CBF07494FF0FD
:10325000A041032241F82320EB682268A968C2F844
:103260000835C2F810155AE7F92E00000003005087
:103270001003420000E100E014ED00E070070020C0
:103280002DE9F0410579554C05EBC50304EB8303AB
:1032900001465B68006882B0EE00B3B1504BC0F8E5
:1032A00008330B6843F30733002B0EDB5A09DFF8B2
:1032B00038C12032012703F01F0307FA03F34CF84B
:1032C0002230BFF34F8FBFF36F8F731904EB83036B
:1032D0009A69D0F8003223F02003C0F8003242B1DE
:1032E0000023C0F84431D0F844310093009B0123FF
:1032F00043600023C0F85831D0F858310193019B46
:103300007319012204EB8303C2609A69D0F8583123
:10331000002BFBD01AB1D0F84431002BF6D000239B
:10332000C0F800350B684FF0FF38D3F80CE5D3F840
:1033300014C5D3F80825D3F81075C3F80C85C3F865
:1033400014850B68C645C3F80885C3F810850CD0F2
:10335000BEF11F0F86BF0EF01F0E22494FF0A04195
:103360000EF5E07E022341F82E30BCF1FF3F0CD079
:10337000BCF11F0F86BF0CF01F0C1A494FF0A04183
:103380000CF5E07C022341F82C30791C0BD01F2F68
:1033900086BF07F01F0713494FF0A04107F5E077FC
:1033A000022341F82730531C0BD01F2A86BF02F09E
:1033B0001F020C494FF0A04102F5E072022341F8D0
:1033C0002230FFF7BFFA2E4404EB8604002384F872
:1033D0002030636002B0BDE8F08100BF70070020BC
:1033E000100342000003005000E100E001F0604CD7
:1033F000BCF1005F30D170B590F804E0254C0EEBC5
:10340000CE0C04EB8C0C0346DCF8140082B04FEABF
:10341000CE05002838D1CCF81420CCF808101A6852
:10342000C2F82001D2F820210192019A1A68C2F84C
:103430005801D2F858210092009A1A68DCF81460FA
:10344000C2F84415C2F848651A6801219160DCF899
:1034500004201AB102B070BD102070471968D1F86D
:103460002021D1F858010243F9D080B90122CA6065
:103470001A68D2F85831002BFBD0754404EB850450
:103480000023636102B070BD112002B070BD0F2037
:10349000F3E700BF700700202DE9F04F4FF08042A6
:1034A0000123002187B0C2F81835C2F804119360D7
:1034B000D2F80431002BFBD0FDF74EFF002840F07E
:1034C000D1804FF480410020FDF7B6F8002840F08D
:1034D000CC80FDF73BF80120FDF74EFD644E654BB7
:1034E0006549664D664F9E1BF608360446F0030399
:1034F0001C4618460293FDF755FB20466149FDF72F
:1035000051FB20466049FDF74DFB46F00403039351
:1035100046F002030024059346F0010345F001053F
:1035200042F2341AA34640F2C5194FF0DC08049366
:103530000134A7FB042323F0030606EB9306E307FD
:10354000A4EB06064ED5514B04FB03F3B3F1553FF4
:103550000BD80AF1010A42F228339A457CD84C4B29
:1035600004FB03F3B3F1113F15D9EEB1494B07FB4F
:1035700004F2B3EB720F2ED20020FDF7E3FCFDF74F
:10358000ABF80028FBD14FF47A764FF47A40A84785
:10359000013EFAD1CCE722023F49049802F47F426F
:1035A000FDF7A0FA002EE1D10BF1010B5A463B4981
:1035B0000298FDF797FA3A4B07FB04F2B3EBB20F10
:1035C000D4D338490498FDF7EDFA324B07FB04F2E7
:1035D000B3EB720FD0D33449029823462246FDF74D
:1035E00015FAC9E7314BA3FB0423E21AA9F102093A
:1035F000B14403EB520389EAE9719B08A1EBE9713D
:10360000C3EBC303A7FB0102E31AA8F10308984424
:10361000D20888EAE87302EB8202A3EBE873A1EB1D
:1036200042010191A7FB03122148D20802EB82025A
:10363000A3EB420380FB09214FEAE972C2EBA1022E
:10364000009280FB08214FEAE872C2EBA1020398C6
:103650001849FDF761F976E7174905985246FDF7D5
:1036600041FA7CE7FDF7B8FC2BE7FDF7B5FC30E746
:10367000DC3D0000143E0000F43A0000D03C0000A5
:10368000CDCCCCCC143B0000383B0000ABAAAAAA9E
:10369000EFEEEEEE99999919B43B0000EC3B000077
:1036A000CCCCCC0C003C0000283C000025499224E6
:1036B00067666666543B00007C3B000010B44FF028
:1036C0008053D3F83021082A2FD06A4AD2F88830A4
:1036D00043F47003C2F88830BFF34F8FBFF36F8F8E
:1036E0004FF08053D3F83021082A11D04FF0102327
:1036F000D3F80022002AC0F28C80D3F80432002BC9
:10370000C0F287805C4B5D4A1A605DF8044B7047DD
:10371000D3F83431032BE9D94FF010224FF0804316
:10372000D2F80822C3F85825E0E74FF08041002086
:10373000C1F80C01524AC1F81001C1F83805D3F89C
:103740000404C2F82005D3F80804C2F82405D3F80D
:103750000C04C2F82805D3F81004C2F82C05D3F8DD
:103760001404C2F83005D3F81804C2F83405D3F8AD
:103770001C04C2F84005D3F82004C2F84405D3F86D
:103780002404C2F84805D3F82804C2F84C05D3F83D
:103790002C04C2F85005D3F83004C2F85405D3F80D
:1037A0003404C2F86005D3F83804C2F86405D3F8CD
:1037B0003C04C2F86805D3F84004C2F86C05D3F89D
:1037C0003401D3F84444C2F8704550B14FF08043FF
:1037D000D3F80024D20744BF6FF00102C3F80024DD
:1037E00073E72848284CC0F88C4602F54052FB206D
:1037F000C2F81805D1F8E42ED3F8584223481346EE
:1038000064F303034FF40072C1F8E43EC0F84026AD
:10381000DCE71F4A0123C2F80435D2F80034002B3C
:10382000FBD04FF010231221194AC3F80012D2F82E
:103830000034002BFBD04FF010231221144AC3F8A0
:103840000412D2F80034002BFBD000231049C2F838
:103850000435D1F80034002BFBD0BFF34F8F05495E
:103860000C4BCA6802F4E0621343CB60BFF34F8F86
:1038700000BFFDE700ED00E0240000200090D00331
:1038800000C000400050004048810300009002400A
:1038900000E001400400FA0508B5064B044613B1E8
:1038A0000021AFF30080044B1B6803B1984720460A
:1038B00000F046F800000000940700200244034690
:1038C000934200D1704703F8011BF9E770B50D4B27
:1038D0000D4D5B1B9C100026A64209D100F032F86A
:1038E0000A4D0B4B5B1B9C100026A64205D170BDF8
:1038F00055F8043B98470136EEE755F8043B9847E6
:103900000136F2E7280000202800002028000020CF
:103910002C0000200A44914200F1FF3300D170478F
:1039200010B511F8014B03F8014F9142F9D110BDC8
:10393000034613F8012B002AFBD1181A01387047EF
:10394000FEE700BFF8B500BFF8BC08BC9E46704754
:10395000F8B500BFF8BC08BC9E46704729040000BB
:103960009504000025040000FFFFFFFFFFFFFFFF9D
:10397000FFFFFFFFFFFFFFFF00000000000000004F
:103980000000D60106010000756172745F6C6F67FC
:103990005F6261636B656E64000000004261636B8F
:1039A000656E647320666C75736865640000000062
:1039B000617070001B5B313B33316D0025734C6FC0
:1039C00067732064726F70706564202825642925F0
:1039D000730D0A001B5B306D0000000025730000B2
:1039E0003C25733E2025733A200000000D0A00009C
:1039F0002025303278000000202020007C000000CC
:103A000025630000200000001B5B313B33306D005C
:103A10001B5B313B33326D001B5B313B33336D003D
:103A20001B5B313B33346D001B5B313B33356D0029
:103A30001B5B313B33366D001B5B313B33376D0015
:103A40006572726F720000007761726E696E670056
:103A5000696E666F000000006465627567000000B3
:103A60006170705F627574746F6E0000466174619E
:103A70006C206572726F720053797374656D207279
:103A800065736574000000006170705F74696D6536
:103A90007200000052544320696E7374616E636556
:103AA00020616C726561647920696E697469616C0A
:103AB000697A65642E0000005254433A20696E69A9
:103AC0007469616C697A65642E000000736F7274AA
:103AD0006C697374000000004750494F5445000062
:103AE0005052530055415254000000005541525469
:103AF000450000004C6F6753636F7065206E52463F
:103B0000352053444B2044656D6F2073746172748B
:103B1000696E6700506C6174666F726D3A206E5208
:103B200046353238343020444B2028504341313020
:103B3000303536290000000055415254206C6F6723
:103B400067696E6720617420313135323030206210
:103B50006175640054656D70657261747572653A63
:103B60002025642E256420432C2048756D696469E6
:103B700074793A2025642E2564252500466C6173EE
:103B8000682077656172206C6576656C206869676E
:103B900068206F6E20736563746F722030783030E8
:103BA00030343030303020287772697465733A20B1
:103BB00025752900466C61736820777269746520E9
:103BC0006661696C6564206174203078303030340F
:103BD00025303458202874696D656F7574206166CE
:103BE0007465722035306D732900000054582070C0
:103BF00061636B65742025752073656E7400000029
:103C00005458206661696C65643A206368616E6E21
:103C1000656C20627573792028617474656D7074A9
:103C200020332F332900000048656172746265619A
:103C3000742025753A20757074696D65202575208E
:103C4000730000006C6F6773636F70655F64656D10
:103C50006F000000C80400207F000000B0040020B6
:103C6000D4390000083A0000B4390000103A0000CE
:103C7000183A0000203A0000283A0000303A0000CC
:103C8000383A000000000000403A0000483A0000C6
:103C9000503A0000583A00000D0E0F1000000000CE
:103CA000180600206510000001000600000000005A
:103CB0000338FDD8704700003031323334353637A1
:103CC00038394142434445460000000000000000EE
:103CD0000338FDD8704700202020202020202020FD
:103CE00028282828282020202020202020202020AC
:103CF00020202020202020881010101010101010DC
:103D0000101010101010100404040404040404041F
:103D100004101010101010104141414141410101A7
:103D20000101010101010101010101010101010183
:103D30000101101010101010424242424242020291
:103D40000202020202020202020202020202020253
:103D500002021010101020000000000000000000FF
:103D60000000000000000000000000000000000053
:103D70000000000000000000000000000000000043
:103D80000000000000000000000000000000000033
:103D90000000000000000000000000000000000023
:103DA0000000000000000000000000000000000013
:103DB0000000000000000000000000000000000003
:103DC00000000000000000000000000000000000F3
:0C3DD000000000000000000000000000E7
:103DDC00D83A000000000000E03A000000000000AB
:103DEC00E43A000000000000EC3A00000000000083
:103DFC00B039000000000404603A0000000000002C
:103E0C00883A000000000000443C0000000004045C
:083E1C00CC3A00000000000098
:103E24005C39000000000000883900001400002004
:103E34004805002010060020180600205005002028
:043E44001800000062
:083E480044C4FF7F01000000EB
:103E500000000000002000400000000000200040A2
:103E60000000000000000000FF0000000010014002
:103E7000110004000090D00369020000410200001C
:0400000300000309ED
:00000001FF
