:10000000C0620020D924000093690000C5240000CC
:10001000C5240000C5240000C52400000000000025
:10002000000000000000000000000000C9250000E2
:10003000C52400000000000065250000C524000064
:100040006527000065270000652700006527000080
:100050006527000065270000652700006527000070
:100060006527000065270000652700006527000060
:100070006527000065270000652700006527000050
:100080006527000065270000652700006527000040
:100090006527000065270000652700006527000030
:1000A0006527000065270000652700006527000020
:1000B0006527000065270000652700006527000010
:1000C0006527000065270000652700006527000000
:1000D00065270000652700006527000065270000F0
:1000E00065270000652700006527000065270000E0
:1000F00065270000652700006527000065270000D0
:10010000430803F05533C01A00F03333800800F081
:100110003330184400EB10104FF0013300F00F3073
:100120005843000E7047034613F8012B002AFBD1F9
:10013000181A013870470000130542BF094B01210E
:100140001970D00442BF084B01211970D10142BF80
:10015000064B01211970930142BF054B01221A7011
:10016000704700BF8B2500208A25002089250020AC
:1001700088250020B0B582B0036804460A2093FBAE
:10018000F0F200FB123202AFC3F13201092A0BD8A0
:10019000DFE802F00515182224272D2F3A442A4AB9
:1001A00001212A4805F093FE2368013B236023B90F
:1001B000274A2648032105F08AFEBD46B0BD254AE0
:1001C0000221EEE7C3F503630233234A1B02012138
:1001D0001E4806F04BFBE7E7204AF1E7204A0321DF
:1001E000DFE7C3F5136302331E4A1B02EFE71E4A23
:1001F000E6E74A4202F0070201F0070358BF534204
:1002000001331A4A0321E3E7194A1048D21A00922F
:10021000184B194A012106F033FBC5E76D4688B03B
:1002200002AA164B5361164B936141F23423594392
:100230000423D16142F8103F044800234FF40451D5
:1002400001F046FBAD46AFE73C770000F4740000D8
:10025000047900006E77000096770000C0770000F8
:10026000EB770000187800004A78000077780000EB
:100270003010DCBAEFBEADDE99780000D178000016
:100280001D7C00002DE9F8439D4A9E4800AF0321E4
:1002900005F01DFE6C4688B06A469B4B53619B4B34
:1002A00093614FF400739383994B42F8103F0023FE
:1002B00094484FF4E65101F00BFB964A9148A5464D
:1002C000032105F004FE00F0DFF900F08BFA00F0E6
:1002D0002BFB914806F0E7FD002866D18F4A89483C
:1002E000022105F0F4FD00248B4806F0DCFD002817
:1002F0007AD18B4A8348022105F0E9FD864806F051
:10030000D2FD002840F09180864A7E48022105F007
:10031000DEFD814806F0C7FD002840F0A880824A33
:100320007848022105F0D3FD002C40F0C1807F4ABF
:100330007448032105F0CBFD7D4D7E4EDFF8F8813A
:1003400000242B7801341BB100232B7000F028FA15
:1003500033781BB10023337000F0BCFA774BDFF821
:10036000E0911A784AB100221A706648754A022153
:1003700005F0ADFD3223C9F80030734B1A7832B165
:1003800000221A705F48714A032105F0A0FDD9F8D8
:100390000030002B40F3FA806948FFF7EBFE4FF482
:1003A0002470002105F056F8CBE7694805F091FD6F
:1003B000002898D1664805F0A3FD0346002892D195
:1003C00088B06A4663495161634991610B21D161EB
:1003D000042142F8101F4B484FF4045101F078FA01
:1003E000A5464FF400647FE75C4805F072FD0028E5
:1003F00084D15A4805F084FD034600287FF47EAF7F
:100400006D4688B044F480546A465549516152495A
:1004100091610C21D161042142F8101F39484FF439
:10042000045101F055FAAD4668E74E4805F051FD1C
:1004300000287FF46EAF4B4805F062FD03460028AC
:100440007FF467AF6D4688B044F080746A464649D1
:100450005161414991611821D161042142F8101F75
:1004600028484FF4045101F033FAAD4651E73F48B4
:1004700005F02FFD00287FF457AF3C4805F040FD04
:10048000034600287FF450AF6D4688B044F00074F6
:100490006A4637495161304991611921D16104217E
:1004A00042F8101F17484FF4045101F011FAAD46FD
:1004B000304B31491848C1E901348368DB690BB11D
:1004C000012298472046FFF71BFE2C4A2C4B6C4616
:1004D0008AB0012808BF13466A462A49D36140F210
:1004E00001331384284BC2E9051042F8103F054838
:1004F00000234FF4135101F0EBF9A5461CE700BFB0
:1005000026790000F47400004C790000597900004D
:1005100003000001647900004C730000A279000020
:10052000EC790000367A0000807A0000CA7A000078
:100530008B2500208A250020A54FFAA489250020BC
:10054000B4230020357B000088250020657B000057
:1005500090750000C4790000107C000088750000D0
:100560000E7A000080750000587A0000787500004F
:10057000A27A000039010000B8230020A881000001
:10058000577900000D7B000004000001E30702D44E
:10059000204600F0A3F8204600F046F9204600F07F
:1005A000CDF9324B6343B3F1333F1DD806F0DCFD88
:1005B000E9468AB06A462E4B4FF47A7CC2E905348C
:1005C000A0FB0C030CFB0131C00B40EA41400623A9
:1005D000C90BC2E9080142F8103F264800234FF436
:1005E000435101F075F9CD46C4EBC40303330B222C
:1005F00093FBF2F102FB113343B91F4A1368013335
:1006000013601E4A1B48022106F030F91C4B08FB00
:1006100004F29A4227D8C822E9468AB0B4FBF2F322
:1006200002FB13436A4617495161032191614FF45C
:100630007A7003F6B83103F59673B1FBF0FC00FB5A
:100640001C116420B1FBF0F1D1610921B3FBF1F37E
:100650001362052342F8103F064800234FF423514C
:1006600001F036F9CD464FF400409AE6CDCCCCCC23
:100670009C7B0000F4740000B0230020B97B0000D4
:10068000055BB005EF7B0000F8B500AF0E4C0F4ADC
:100690000321204606F0E1F86E4688B06A460C4B0E
:1006A000536103250B4B936142F8105F00234FF415
:1006B000C851204601F00CF9B546074A29462046A4
:1006C00006F0CBF8BD46F8BD3C7500002B7C000061
:1006D0005F7C0000DE7D0000957C0000B0B52C49F9
:1006E0000B6803F11102072390FBF3F3C3EBC30381
:1006F000C31A13440B606424322390FBF3F103FB11
:10070000110190FBF4F304FB130303F58C5300AFCA
:1007100001F67F018EB0143309B29BB26A461D4DBB
:1007200055611D4D956191FBF4F504FB151109B25E
:100730001162B3FBF4F104FB11339BB2516293627B
:10074000C82100EB400393FBF1F401FB1433643B3D
:100750001BB2D362C0EBC00393FBF1F401FB143373
:10076000643B1BB21363142390FBF3F103FB1100F2
:1007700000F2CA3080B20A23D561506342F8103FBC
:10078000064800234FF4A24101F0A2F8BD46B0BDD7
:10079000C4230020C27C0000CE7D00003C75000018
:1007A00010B50B4C0B4A0321204606F056F80A4AB6
:1007B0000221204606F051F8084A0121204606F0A1
:1007C0004CF8074A20460321BDE8104006F045B822
:1007D0003C750000027D0000427D0000727D00003B
:1007E000A77D000098B500AF0B4C0C4A03212046B2
:1007F00006F033F888B06A46094B5361094B9361A0
:10080000032342F8103F00234FF4C851204601F063
:100810005FF8BD4698BD00BF14750000F97D00006B
:100820002B7E0000D67F0000F0B505026B429BB224
:10083000ADB258BF5D420F2390FBF3F3C3EB03133C
:1008400083B09842044602AF05F500250AD100F5B1
:100850000453343300932B0C194A1A481B04022109
:1008600006F00EF81E2294FBF2F302FB13432BB9A1
:10087000154A14482B46012105F0F8FF052094FB8A
:10088000F0F303EB8303E31A17D16E468AB002AA92
:100890000E4951610E49C2E90615614201F0070196
:1008A00004F0070458BF4C42146242F8100F054888
:1008B0004FF4245101F00CF8B5460437BD46F0BDA5
:1008C0005F7E00001475000018780000937E000021
:1008D000C77F000010B50E4C0E4A0121204605F0DE
:1008E000BCFF0D4A0221204605F0B7FF0B4A01214B
:1008F000204605F0B2FF0A4A0321204605F0ADFF6D
:10090000084A20460321BDE8104005F0A6BF00BFFD
:1009100014750000BE7E0000007F0000397F0000DB
:10092000667F00009C7F0000024A0348032105F017
:1009300094BF00BFEF7F00000C750000B0B510F051
:10094000030382B0044602AF13D16D4688B002AAF9
:10095000164951611649916141F234214143D161F7
:10096000042142F8101F13484FF4045100F0B0FF67
:10097000AD461E2294FBF2F302FB13433BB90E4B30
:1009800000930E4A0E4B0B48012105F079FF0F230F
:1009900094FBF3F3C3EB0312944205D1094A0548D3
:1009A0000C33022105F062FFBD46B0BDD1780000D6
:1009B0004B8000000C750000FE0FDCBA9978000037
:1009C000EFBEADDE208000002DE9F04F91B084072E
:1009D000009302F004030293C2F3C20303F1010384
:1009E000DDF86890039205460E46059340F0BA8103
:1009F000041D30B1072909D86FF01B0011B0BDE804
:100A0000F08F01F00706341DC6F10806009B4FF079
:100A10000008591E4FF0040A4FF0FF330193CDF840
:100A200010804746C34653460DB1009A2260059890
:100A3000002800F3E8809848009A824203D3974840
:100A40008242C0F0E080039AA4EB050E92074FEAC1
:100A50009E0000F103810F2F00F2B180002D00F005
:100A6000058107F140020DEB020C019A0CF8200CF5
:100A70000CF8102C049801300490E7E07A285DD837
:100A80004B280ED8472859D829282DD8252852D0A8
:100A900054D820287AD02338D0F1000B4BEB000B30
:100AA00074E04C382E2849D8DFE800F070484848F8
:100AB00048484848484848484B48484848484848B3
:100AC0004859484B4B595959704B6D487048184B11
:100AD000184848827F4B48484B487F0000204FF021
:100AE000000B4FF0040A38E02A38C0B2012202FAA3
:100AF00000F010EA0E0F49D110F0625C2FD110EA1D
:100B0000020B43D06046013C5444B4FBFAF40AFBA8
:100B100004F4002D61D0A3EB050CA444B4453FF6CA
:100B20006BAF002868D1042B47D159F8043B2360F0
:100B3000043404232AE0019A013A01924FF0000B99
:100B400024E011F8010C6C2834D111F8023C00208B
:100B50006C2B8346C5D14FF0080A5346D3E709F101
:100B6000070929F007090734F9E802AB24F0070464
:100B700035B106982044B0423FF63EAFC4E900AB21
:100B800008344FF0000B4FF0080A534611F8010FDC
:100B9000002878D0BBF1000F7FF470AF2528F5D185
:100BA000019B013301934FF0010B4FF0040AECE776
:100BB000584694E700208346A5E7082B02D06FF043
:100BC00015001BE709F1070929F00709F9E80223D5
:100BD000C4E9002308340823D8E768B9042B02D1FC
:100BE00009F10409A4E7082BE9D109F1070929F063
:100BF000070909F10809EDE7059A013A059259F844
:100C0000042B009210E7039A900720D5A4EB050E61
:100C10004FEA9E004FF0010CBEF5007FCFD20F2FA0
:100C2000CDD8F5B107F140020DEB020EC0B2019A2A
:100C30000EF8200C0EF8102CBCF1000F3FF41AAF88
:100C400060F07F000EF8200C08F101080137C5F1B3
:100C50000802043406924FF6DA7E97E74FF0000C54
:100C6000DAE7BCF1000F01D00136EFE70298023657
:100C70000028EBD10098CDE90631FFF754FADDE901
:100C800006310644E2E7631BB3F5806F97D23DB9A6
:100C9000A6F10804E018B1E6D472000070880000E4
:100CA000029A28609B082B709DF81030C2B1EB703F
:100CB00085F80280B8F1000F05D008A80022C5F120
:100CC000010C97420ED1C5F101030DF120094FF03F
:100CD000000A01930DF1300B574512D1601B8DE6D0
:100CE0006B70E5E710F8013B190608D504EB0C0E14
:100CF000B64503F07F033FF67FAE04F8013B0132B7
:100D0000DFE7B8F1000F03D099F90020002A17DBC4
:100D1000029BD3B11AF80B2004F8012B0022019B8F
:100D200098182044B0423FF667AE99F8000004F8E6
:100D3000010B00990392204606F040FA039A1444EE
:100D40000AF1010A09F10109C6E799F8002055F8EE
:100D500022300093029B45F822300098FFF7E3F918
:100D6000421CDCE76FF00D0048E600BF2DE9F04FB4
:100D700097B000AF90F802A0D7F880B03B62CBF3F9
:100D8000C0030446FA62BB61894641B945780078E0
:100D90000AEB800020444D4517D8A0EB0409E37806
:100DA000FB61BAF1000F02D01BF0010F16D1FB69F5
:100DB00053BBFB6A1BB13A6A4946204698474D46E9
:100DC00028465C37BD46BDE8F08F461C3046FFF72D
:100DD000AAF90130304409F10109DCE7237862689F
:100DE0007A62FA6A9900796104EB8301002A40F083
:100DF00000814D460E4601EB0A094FF000084E45B2
:100E00004CD101EB0A0610E01BF0020FD1D0237881
:100E10009A007A6162687A62FA6A04EB8301002AB6
:100E200077D14D4601EB0A0690461BF0050F0CBF2B
:100E300002230123FB62FB6906EB430A0BF002036A
:100E4000BB625645BCD016F8021B16F8013C54F89C
:100E50002390AF4B994502D3AE4B994536D3BB692E
:100E6000002B40D0786A05F000F900283BD0E94615
:100E70008AB06A46A84B53617B6AC2E906314FF4D7
:100E800000731384A54B42F8103FA54800234FF48C
:100E9000125100F01DFD023DCD46D2E716F8013B90
:100EA000F96254F82300FFF73EF9D7F88430F96A65
:100EB00001304BB1D7F8883098453EBFD7F8843021
:100EC00023F8180008F10108054498E7BB6923B12D
:100ED000786A05F0CAF80028C9D11BF0010F05D1C6
:100EE000FB6AED1AADE7BB6A002BAAD04846FFF7B4
:100EF0001AF9D7F8843053B1D7F8883098453FBFF6
:100F0000D7F88420431C22F8183008F10108054462
:100F100097E7BAF1000F72D01BF0040672D0D046EA
:100F2000002607F1480052463B61B96206F046F9D7
:100F3000B96A3B6901EB0A02BA62FA69F9695200BF
:100F4000FA60BA6A02EB41023A610BF00202BA603F
:100F50003A69B96A8A4257D162787A621BF0020F05
:100F600032440CBF4FEA580100211BF0010FD2B2EE
:100F700040F09F801BF0040F14BF40460020BB616F
:100F80006270A070E1703A6A7969FB6A20469847FE
:100F9000051EFFF615AFBB6923707B6A6370FB69A2
:100FA000E37041463A6AFB6A84F802A007F1480000
:100FB0009847B0F10008C0F2B5807B693A6AA9EBA6
:100FC0000A01C91AFB68C91AD7E90A039847002819
:100FD000C0F2AA80A84408EB00054FF0000B07F10F
:100FE000380AB34567D300213A6AFB6A0846984736
:100FF000E6E656464FF0000807F1380093E75646FC
:10100000D04697E7B04695E7BA6A12F8021BBA6273
:1010100012F8015C3E4A54F82500904202D33D4A42
:1010200090421ED3BA6932B1786A7B6005F01DF830
:101030007B6800288CD1BA6802BB08F1280207F14E
:10104000300C08F10100944407F1580252FA80F084
:1010500008F102080CF8101C5FFA88F800F8105C20
:1010600076E7BA693AB1786A7B6004F0FEFF7B6884
:1010700000287FF46DAF1BF0010F09D006F12802A4
:1010800007F13000711C161806F8205CCEB25FE73D
:101090001BF0040F3FF45CAF08F1280207F13000A9
:1010A00008F1010102EB000808F8105C5FFA81F812
:1010B0004EE7002063E71BF80A3087F8373054F812
:1010C0002390D7F88430FBB133F81B803A6AFB6A6F
:1010D000012107F137009847002825DB0544B8F1C6
:1010E000000F06D14846FFF71EF800F101081FFA6D
:1010F00088F83A6AFB6A414648469847002813DB5D
:1011000005440BF1010B6CE7D7F88480DEE700BFE4
:10111000D4720000708800006680000004000001A6
:10112000FC74000045464BE6054649E6014B186055
:10113000704700BF0000002080B505460E461746E8
:10114000984604F0A5F9034606F0BAF8DFF81890BF
:10115000044649F80030424630463946A84754F81C
:10116000090001F0D1F900BF080000002DE9F047A7
:10117000058B04462807904611D4022905F007057F
:1011800040F0CC80204605F0F6F978B10138218B8B
:10119000042811D8DFE800F0C2106D859500012900
:1011A0000CBF45F0100545F02005258388F3118814
:1011B000BFF36F8FBDE8F08701F0070AAA4500F082
:1011C000A5800027B9463E46A368002B00F0BC80EE
:1011D00041F00801218388F31188BFF36F8FA16864
:1011E000002900F0BA800D68002900F0B680D1F81F
:1011F0000480334652462046C047002D76D02B68E7
:1012000029461D46F0E701F007035A1F012A1BD8A3
:10121000002221F00701062B276889B2C4E90022C9
:1012200009D13B4603E0628B013262831B68002BCD
:10123000F9D141F002012183204605F09CF90028F4
:101240007AD041F0200176E0042B0AD121F0070189
:1012500089B22183204605F08EF910B141F02001BA
:101260002183218B01F0070AAA454FD00027B946F8
:10127000AAE7236921F0070141F00601062DD3F802
:10128000009021832DD1B9F1000F3FD041F008012A
:10129000218388F31188BFF36F8F3A492046C847EE
:1012A00029E021F00701236941F0040189B2042DEE
:1012B000D3F804902183E6D000273E464FF0040A7D
:1012C00082E721F00701236941F0050189B2052D6C
:1012D000D3F808902183D6D000273E464FF0050A68
:1012E00072E700273E464FF0060A6DE72B4687E778
:1012F000B9F1000FD1D1EFF31188202383F31288C5
:10130000BFF36F8F238B23F008032383258BEA061B
:101310002ED525F01003238305F007056669218B80
:10132000002EBFF670AF00232768C4E9003321F018
:10133000070141F001012183218B01F0070AAA4531
:101340004FF000097FF440AF002F9CD041F008011E
:10135000218388F31188BFF36F8F002FC8D03D68B9
:10136000394633465246204605F031F92F46F4E718
:10137000AB067FF51BAF25F02003238305F007059F
:1013800000E700BFFB6500002DE9F047DFF858805B
:10139000044607464FF0010914B93846BDE8F08706
:1013A00094FAA4F5B5FA85F509FA05F32E0108EBD0
:1013B00005156FEA030A24EA03042B7B002BEBD00C
:1013C00058F806301B694BB9464404227368284616
:1013D000196807EA0A0700F067FADDE72846984728
:1013E0000028D9D1F0E700BF5475000030B510498E
:1013F000104889B0002205F0B9FE0F4D0F490022B8
:101400000023CDE9062300240E23CDE90334CDE9E2
:1014100001440B4B00944FF44072284603F06AFDE0
:101420000849284605F094FD204609B030BD00BFAC
:1014300049140000B821002030010020C0450020E0
:101440004D1700001A810000014803F0BDBC00BF29
:101450001C0100202DE9F04780461F480F4605F08B
:1014600076F90646002830D000252846BDE8F087EA
:10147000237B6BB12368DB680BB120469847236858
:101480001B69D3B9636804221968204600F00CFA7E
:10149000013610344C45EBD3B8F1000FE5D0002DE8
:1014A000E2D02846FFF770FF0546002FF7D0002155
:1014B0004FF4A47003F0CEFFF1E7204698470028D0
:1014C000E0D00AFA06F31D43E2E7044CDFF810907F
:1014D00005464FF0010ADDE7D823002054750000CF
:1014E00064750000014B53F820007047AC75000094
:1014F00008B5034608462BB1044A136000F07EFC91
:10150000002008BD6FF01500FBE700BF04000020BD
:1015100010B5044C237813B9034803F055FC01239C
:10152000237010BD8C2500201C01002010B504463E
:101530000B4805F00CF95CB1BFF35B8F094B53E826
:10154000001F013943E80012002AF8D1BFF35B8F76
:10155000054805F017FE0548BDE8104003F034BC0F
:10156000D0230020D4230020B82100201C0100201B
:101570000020064BBFF35B8F014653E8000F43E8A2
:101580000012002AF9D1BFF35B8F7047D0230020EF
:1015900070B5FFF7EDFF084C084E0546B44200D386
:1015A00070BD63685B792BB123685B6813B1294612
:1015B000204698471034F1E7547500006475000028
:1015C00010B5044C0449204604F07DFE034B1C601A
:1015D00010BD00BFCC00002098750000C82300207B
:1015E000084A094808B500231370084A1360084ADE
:1015F0004FF400411360FFF77BFFBDE80840FFF7A1
:10160000DFBF00BF8D2500204B670000D0230020E6
:10161000D4230020014600220148002304F074BEB8
:10162000CC000020014804F00ABF00BFCC0000201D
:10163000024B0146186804F056BF00BFC8230020C3
:10164000014804F08BBF00BFCC00002070B5284BD0
:10165000187800284BD0FFF7E5FF054690B1BFF39F
:101660005B8F244B53E8001F013943E80012002A26
:10167000F8D1BFF35B8F204C204EB4422DD32846C7
:10168000FFF7D6FF1E4B1F4C1B68002B19DD05F022
:101690006BFD4FF47A72A0FB020302FB0131C30B16
:1016A000D4E9002043EA41439B1A4FEAD13140F28A
:1016B000E93261EB0001934271F1000101D3FFF7C0
:1016C00067FFD4E9003213F57A7342F10002C4E9EE
:1016D0000032BDE87040FFF7B3BF63685B7923B1A8
:1016E000236829461B68204698471034C5E770BD1B
:1016F0008C250020D4230020547500006475000060
:10170000D0230020B021002070B50D4D297861B99B
:101710000120FFF79FFE0B4C0B4EB44206D3FFF7A0
:1017200095FF0028FBD101232B7070BD63685B79A6
:101730001BB1236820469B6898471034EDE700BF33
:101740008D250020547500006475000000212DE9EE
:10175000F0470846FFF77EFE044658B340F267683C
:101760004FF0000905F0ACFD1B4B1C4A1B581360E1
:1017700033B11B4B1B68092B02DD1A4803F024FB15
:10178000194FDFF860A0002544B12046FFF7FCFDAB
:10179000044618B94FF0FF384FF0FF39FFF756FFF6
:1017A000064628B9B5B942464B46504603F030FBD1
:1017B0003546E9E74FF0FF384FF0FF39D2E72B68A5
:1017C0009B691BB100221146284698471035BD423F
:1017D000F5D3E8E7054DFAE708000000CC23002028
:1017E000D42300201C010020647500005475000003
:1017F00013B5184804F0ABFF174B1B7873B1EFF328
:101800001184202383F31288BFF36F8FFFF71EFF2D
:1018100084F31188BFF36F8F02B010BD0F4B1B68AC
:10182000002BF9D050B900220023CDE900230C4849
:101830004FF40042002304F081F8EDE70928EBD1D2
:10184000074805F09FFC074802B0BDE8104003F0D0
:10185000BBBA00BFD42300208D250020CC2300205C
:10186000B82100201C01002010B5064B1B6804465F
:1018700098472146A060044804F0C2FDBDE810402E
:10188000FFF7B6BF04000020CC000020044A054B3F
:101890009B1AB1EBD30F34BF52F8310000207047D0
:1018A000F474000054750000084BC31A10B41B11E7
:1018B00044680133237143689A714368196043682F
:1018C00001225A7110BCFFF723BE00BF54750000FF
:1018D0002DE9F04F8FB004AFC1F34A28B8600D4630
:1018E00091467B600C0DB8F1000F63D0002607F124
:1018F00014034FF0040B4FF00A0AC7F80C80C7E935
:1019000007667E620193CDF808B0CDF800A007F11C
:101910001C03F96832464846FFF728FAB0F5006F15
:1019200003461CD36C468AB0D9F8041004AB264891
:10193000C3E9050140F2FF71D9611A464FF4007105
:101940001984224B42F8103F214833464FF412517C
:10195000FFF7BEFFA5462C37BD46BDE8F08FC0F3AC
:101960000A0804F11700184420F0070080083B60C3
:10197000FFF750FE68F35325044690B13B68154AC3
:10198000C7E9083600F1100107F11403F961CDE948
:1019900000A3CDF808B0F96807F11C034846FFF72B
:1019A000E5F968F353257B68B9682A46204604F0B8
:1019B00004FFD0E704F1170020F007008008FFF7CC
:1019C00029FE0446EDE700BF2F810000040000015E
:1019D0001C7500008F6700002DE9F04F87B0DDE92E
:1019E0001279DDE9105A0446039193469846BFB137
:1019F000CDF800903B46524610210020CDF81490BF
:101A0000FEF7E2FFB0F5006F06460AD3184A194800
:101A100040F2FF73022107B0BDE8F04F04F026BF8B
:101A20003E4605F11700304420F0070004F007049B
:101A30008008FFF7EFFD0BF0070BE40044EA8B147E
:101A400044EA462444EA0554054640B13FB1CDF886
:101A500000903B46524631461030FEF7B5FF0399E1
:101A600043462246284607B0BDE8F04F04F0A5BE25
:101A70006E8100001C750000406820B1034BC01A45
:101A800040F3CF0070474FF0FF307047F474000010
:101A90000EB403B503AB014653F8042B044801937D
:101AA00000F0FAFF02B05DF804EB03B0704700BF2E
:101AB000CF680000CA0605D48B064CBF0249034913
:101AC000FFF7E6BF704700BFA7810000A6810000B6
:101AD0002DE9F04F89B09B46149B06939DF84CA0CE
:101AE000159B0593169B179E049304460D4690463E
:101AF000BAF1000F00F09D8006F48073079304F0A4
:101B000044FE06F00209024600283ED091492046D4
:101B1000FFF7BEFF0746B9F1000F08D016F0440FDB
:101B200035D18D492A462046FFF7B2FF074406F01B
:101B3000010353B1894B8A4953F82A20894B204627
:101B4000002A08BF1A46FFF7A3FF06F48073002B94
:101B500049D006F00803002B63D1B8F1000F66D01E
:101B6000814942462046FFF793FF0546069B3D44C8
:101B7000002B6DD1049B002B73D1F30700F1E4809F
:101B800031462046FFF796FFD8E00746C3E7774B7C
:101B900018680028CAD0764B4FF47A791B68B5FBD9
:101BA000F3F54FF46161B5FBF0F300FB135509FB4E
:101BB00005F54FF03C0CB3FBF1F201FB1231B5FB24
:101BC000F0FEB1FBFCF300FB1E550CFB131109FBEF
:101BD00005F50091B5FBF0F56649CDE901E5204634
:101BE000FFF756FFA2E706F00803EBB1624B63492B
:101BF00053F82A202046FFF74BFF0546B8F1000FA7
:101C000005D0594942462046FFF742FF0544BBF143
:101C1000000FABD05A495A462046FFF739FF05441A
:101C2000A4E74FF0000BE1E706F00805E6E74546BC
:101C30009CE7BBF1010F069B06D1002B64D1049BEE
:101C4000002B7BD000250CE0002BF8D04D485CE049
:101C50004D48069B4D49224604F0D6F9049B002BC3
:101C600068D0DFF82C81DFF82C91049F3146102FCB
:101C7000204628BF1027FFF71DFF4FF0000B5D45E2
:101C800045DC059B49461A782046FFF701FF4FF0D7
:101C9000010B1BF0070F03D141462046FFF7F8FE6A
:101CA0005F453BD9059B494613F80B202046FFF7BB
:101CB000EFFE0BF1010BBBF1100FEAD136492046C4
:101CC0004FF0000BFFF7E4FE5A46059B9A5CA2F129
:101CD00020015F2928BF2E2230492046FFF7D8FE79
:101CE0000BF1010BBBF1100F1DD01BF0070F03D13F
:101CF00041462046FFF7CCFE5F455A46E5D84146AF
:101D00002046FFF7C5FEEBE71F485546A1E74146D1
:101D10002046FFF7BDFE0BF1010BB0E7204920463E
:101D2000FFF7B6FEC5E7059B3B440593049BDB1B11
:101D300004939AD1BAF1000F7FF41FAF204609B087
:101D4000BDE8F04F04F0B6BD064A05492046FFF74E
:101D50009FFE15E7AE810000B2810000BC75000057
:101D600056790000A9810000D7810000E0230020FF
:101D7000DC230020BB810000D0750000DB81000067
:101D8000E181000005690000CF680000992A000089
:101D9000EE810000E6810000F0810000F281000089
:101DA000EC81000073B542F20F738B4228BF0B46E3
:101DB00005680F4A04460521684603F0FFFD636885
:101DC0000C495B6806460B22284604F065FD6368F3
:101DD0003246694628465B6804F05EFD6368064942
:101DE0005B681B22284604F057FD02B070BD00BF9F
:101DF000F882000011820000F5810000074A0021EE
:101E00000123904206D8064A01B901231360054B0D
:101E10001860704740085B000121F2E740420F0064
:101E2000DC230020E0230020014B01221A707047C0
:101E30008E250020014B002019607047F8230020F8
:101E4000024B034801221A7004F034BD8F25002094
:101E5000007600000148FFF7A5BF00BF0076000034
:101E600010B5064B18680C46FFF73CFB21460346AD
:101E7000BDE8104002480F22184700BFF823002099
:101E80000076000010B9074B18707047064B1B789E
:101E90001BB141F2883005F001B8A420002103F005
:101EA000D9BA00BF8E2500208F2500202DE9F843E8
:101EB000DFF874901D4F80460E46042499F80050B8
:101EC00095B902F00DFD28463246414602F08EFCDF
:101ED000054602F00FFDE5B101233B7099F8003093
:101EE00073B93046BDE8F88332464146002002F01F
:101EF0007DFC0546EFE72046FFF7C4FF651E2C4634
:101F0000002002F0E3FC0028EBD03B78002BF2D15C
:101F1000E7E73B78002BE4D0013C2046FFF7B2FF17
:101F20003B78002BCAD1DCE78F2500208E250020CE
:101F3000014B036000207047107600002DE9F04748
:101F4000064600AF0C46002936D0E9468AB0D1E9F2
:101F50000012A3686D462148A8464FF0050AC5E95E
:101F60000501C5E9072348F810AF1D484246002384
:101F70004FF42151FFF7ACFCCD46D4E9031263695D
:101F8000AD461848C5F810A0C5E90501C5E9072305
:101F90001348002342464FF42151FFF799FCCD46E8
:101FA000E369114A0E48012104F060FCA3690F4A5D
:101FB0000B48012104F05AFC012E07D1EFF30583F1
:101FC0000B4A0748103B314604F050FC214630468E
:101FD00002F0A6FCBD46BDE8F08700BF4D820000C0
:101FE000347500007C820000AB820000BA820000E1
:101FF000E882000030BFFFF7FDBF00BF2DE9F041D0
:102000000B4EDFF8308006EB0807CC1B0546324646
:102010000949204605F0D2F8A01942460021083CA3
:1020200005F0DAF82C6707F10800BDE8F08100BF81
:10203000000000000400000064750000074A936877
:1020400093F90E10002907DB526993421FBF044A1F
:10205000536843F080535360704700BF58250020F9
:1020600000ED00E070B5294C06460D462848294988
:1020700004F096FCA36AD9043CD52548264904F00F
:102080008FFC1720A36A1A0504D52148234904F0C0
:1020900087FC18201D4CA36A9B0512D51C482049BB
:1020A00004F07EFCA36BA26A100409D51D4A1848EF
:1020B000012104F0DBFB1EB1A36A23F40043A362F9
:1020C0001920124CA36A590504D51148164904F089
:1020D00067FC1A20A36ADA050ED50D48134904F0EF
:1020E0005FFC1B20094A936A43F47F4393620023F9
:1020F0002B7070BD1620C5E7A36A9B04F2D5044877
:102100000B4904F04DFC1C20ECE700BF00ED00E0A3
:1021100034750000FB820000118300002283000060
:10212000358300004E830000638300007E8300003F
:102130009683000010B5204C2049214804F030FC63
:10214000A36A990136D51E481E4904F029FC1E20B9
:10215000A36ADA0104D51A481B4904F021FC1F20A8
:10216000154CA36A1B0304D51548184904F018FC44
:102170002120A36A590304D51148154904F010FC25
:1021800022200D4CA36A9A0304D50D48114904F08E
:1021900007FC2320A36ADB0304D509480E4904F099
:1021A000FFFB2420044A936A6FEA03436FEA134358
:1021B000936210BD1D20CBE700ED00E0C583000059
:1021C00034750000DD830000F08300000A84000005
:1021D000288400004D840000678400002DE9F84346
:1021E000364D8046894636483649174604F0D8FBB6
:1021F000AB6ADE0627D53449314804F0D1FB1124FF
:10220000AB6A1D0704D531492D4804F0C9FB1224DF
:102210002A4DAB6A980718D52D49294804F0C0FB10
:102220006E6BAB6A190646D52A4A2548334601210A
:1022300004F01CFBB9F1000F03D0AB6A23F080035C
:10224000AB62132403E01024DAE76FF015061B4D90
:10225000AB6ADA0704D52049194804F0A1FB14241D
:10226000AB6A9B0604D51D49154804F099FB15245B
:10227000124B9A6AD50602D49A6A90070AD55B680F
:10228000190507D54146304600F022FA10B180F317
:1022900009880224094B9A6A920642BF5A6A22F4BC
:1022A00000525A629A6A42F0FF029A6200233B701F
:1022B0002046BDE8F8836FF01506C2E700ED00E0A8
:1022C0003475000092840000A8840000228300007E
:1022D000DB840000F3840000098500009683000081
:1022E0002DE9F041664B8AB0D3F8048000AF044674
:1022F000C8F30805002686F31188BFF36F8F02F03C
:102300007F43B3F17F4F07D102F00C03082B12D1AA
:102310005C495D4804F044FB002634460023FB7111
:10232000EB1E092B00F28A80DFE803F00A80837D30
:1023300088888888888610074CBF0C460126EDE700
:10234000524951484E4D04F02BFB0023FB71EB6AC0
:102350009A0705D54E494C4804F022FB002333E090
:10236000EB6A002B01DA4B49F5E7EB6A5B00F5D528
:102370004949454804F014FB6B69A26943F4807332
:102380006B61BFF34F8FBFF36F8F6B6932F8022C15
:1023900023F480736B61BFF34F8FBFF36F8F4DF6E4
:1023A00002739A4209D0AB6ADBB27BB3FA1D0121FA
:1023B0002046FFF713FF034606E02368374A3248FA
:1023C000012104F053FA2368FA79DAB907F1080514
:1023D00004F1200C206861682A4603C20834644571
:1023E0001546F7D17A6A002E44D0C2F3080121B90C
:1023F0006FEA52226FEA42227A6207F10801184618
:10240000FFF79CFD2837BD46BDE8F081AB6A13F4A9
:102410007F4F04D0F91D0120FFF724FECBE7AB6A04
:10242000B3F5803F9AD3FFF785FEC4E7FA1D00217C
:10243000BEE7F91D0020EFE719498CE7194A1A4B4E
:1024400018F4F87FE8468AB018BF13466A46174961
:10245000C2E905134FF400731384103D144BD5618A
:1024600042F8103F084800234FF41151FFF730FAAB
:10247000C54673E722F4FF7222F00102BCE700BFF9
:1024800000ED00E0568500003475000081850000F5
:1024900098850000B9850000C7850000E68500002A
:1024A000028600003D850000288500002686000089
:1024B00004000001024A536943F01003536170475E
:1024C00000ED00E0EFF30880EFF3098101B57246FB
:1024D000FFF706FF01BD00BF01F02EFB202080F3B7
:1024E000118808484FF40461401880F30988EFF31D
:1024F00014800221084380F31488BFF36F8F00F02B
:10250000A7F8000000490020084B9B6883420BD1CC
:10251000EFF3058343B1064B5A6842F080525A608C
:102520005A6A22F400425A6204F0E3BD58250020A2
:1025300000ED00E0094A93686FF00A0199670849C5
:1025400058674B6843F080534B60002383F3118836
:10255000BFF36F8F9368986F704700BF58250020B6
:1025600000ED00E015498A684FF030001044EFF3A9
:10257000098C80E8F01F202080F31288BFF36F8F52
:102580000F4F4FF000664A698A603E604FF070045A
:10259000141920680B4C2060506F0023536780F3A0
:1025A000118804B5104600F0FBF8BDE8044002F1C4
:1025B000300090E8F01F8CF3098870475825002000
:1025C00004ED00E0FC2300201EF0040F0CBFEFF32D
:1025D0000880EFF30980816911F8021C0229FFD0FD
:1025E00001B504F0D2F901BD40B2002807DB044A6E
:1025F0004109012300F01F00834042F82130704759
:1026000000E100E0054B420900F01F0053F82220D2
:10261000012303FA00F01040704700BF00E100E022
:1026200040B20028A8BF00F1604001F10101B8BF2D
:10263000064B4FEA4111ACBF00F5614000F00F00BE
:10264000C9B2B4BF195480F80013704714ED00E00C
:102650000F4A08B50F4B22F07F029A60BFF34F8FED
:10266000BFF36F8FD3F8882022F47002C3F888205C
:10267000EFF3148323F0040383F31488BFF36F8F05
:1026800002F03AFA02F090FF00F060F802F078FAF7
:102690000000000000ED00E042F8203C009B42F802
:1026A0001C3C0A49019B42F8183C029B42F8143C2E
:1026B00021F001014FF0807342F8043C42F8081CFD
:1026C0000023203A02654367704700BF39110000BC
:1026D000094A0346906870B113F1160F006E05D0D9
:1026E000A0F140029A4205D8834203D2814228BF1A
:1026F00000207047002070475825002008B5154677
:102700000B4A0C4B9060026F1A600E4600F048F8BE
:102710002C4686F309884FF00000074B9847204667
:102720004FF000014FF000024FF00003034C204730
:1027300058250020FC230020B16900003911000059
:10274000014B10221A61704700ED00E0044800239D
:102750002021C2180133302B82F80013F9D17047C1
:1027600000E100E008B5EFF30583064A103B02EBF9
:10277000C30152F8330049688847BDE80840FFF7B5
:102780005DBC00BF74730000024B034A0348012183
:1027900000F08AB80000042000000020107600003D
:1027A000026E054B403A1A60044A4021C3E9011207
:1027B0001846012100F082B80024002000000B150B
:1027C00008B503461048D0F89020C2F30722013A1A
:1027D000934207D90D480E4A012104F047F86FF0E3
:1027E000150008BDC0F898300A6822F01F021A438D
:1027F00042F01002C0F89C208A6842F00102C0F842
:10280000A0201846EDE700BF00ED00E02C750000A9
:102810003D860000F0B50E4685B01F4604460025F3
:10282000B5420DDA606810B397B1431E18420AD062
:10283000104A11482B46012104F018F86FF01502D8
:10284000104605B0F0BD1F28F2D921680B42EFD128
:102850002368019304F0CFF8A36801A90343D0B221
:102860000393FFF7ADFF10F1160FE7D0421C0135BF
:102870000C34D5E7638600002C750000044B05225C
:10288000C3F89420BFF34F8FBFF36F8F704700BF23
:1028900000ED00E0BFF35F8F024B0022C3F89420ED
:1028A000704700BF00ED00E010B5034C0123227813
:1028B000FFF7B0FF207010BDA025002008B50B4A1F
:1028C00000231278FFF7A6FF10F1160F07D0084A71
:1028D0000021D2F89030C3F30723984200DB08BDF3
:1028E000C2F89800C2F8A0100130F2E7A02500203D
:1028F00000ED00E02DE9F04357485849D0F89030FA
:102900000D68C3F307239D4285B000F2A180FFF755
:10291000C1FF49680022954201F10C011AD1504CC7
:10292000504F25706846FFF703FBDFF83C81DFF866
:102930003C9106460025AE421FD12378464900202F
:10294000D1F89020C2F3072293427BDBFFF796FF7A
:1029500000204CE0C0F8982051F80C3C23F01F03F5
:10296000134343F01003C0F89C3051F8043C43F08B
:102970000103C0F8A0300132CDE7009800EB05114B
:102980004FEA051CCB683B40B3F5000F44D00AD892
:10299000B3F5001F2ED0B3F5800F34D0B3F5801FF0
:1029A00010D00135C7E7B3F1807F3ED0B3F1007F8F
:1029B000F7D150F80C3088684A6804F01CF840F4ED
:1029C000802009E050F80C3088684A6804F013F859
:1029D00040F0885040F43020039001A92078CDE9E0
:1029E0000123FFF7EDFE002828DA6FF0150005B08F
:1029F000BDE8F08350F80C3088684A6803F0FBFFAC
:102A000040EA0800E8E750F80C3088684A6803F0AC
:102A1000F2FF40EA0900DFE750F80C3088684A68A6
:102A200003F0E9FF40F08270D6E750F80C30886878
:102A30004A6803F0E0FF40F08870CDE72378013367
:102A40002370AEE7C1F89830C1F8A000013377E7F2
:102A50004FF0FF30CBE700BF00ED00E01C76000038
:102A6000A02500200000F0FF000008110000020770
:102A700008B5024B1B689847002008BD0C240020B5
:102A8000034B044A1860937843F002039370704735
:102A90000C24002008000020F0B587B007460E4641
:102AA00014460021102268461D4604F095FB0223BF
:102AB0008DF802302A46054B019321466846CDE940
:102AC000047602F0A7FF07B0F0BD00BF176A000050
:102AD00008B50649064821F00701C1F1005202F588
:102AE000802203F054FA002008BD00BF07630020D5
:102AF000102400200E4A0123C2F840354FF08042D6
:102B00004FF08051C2F87835D1F83001082808D14B
:102B1000D1F83411052904D80648415C09B1C2F83E
:102B200038364FF080430122C3F8802500207047DB
:102B300000E001409586000020B1034B800143F086
:102B400001031847704700BF70750000084B70B54F
:102B5000C31A0D4607499B100446594306484022B4
:102B600003F06DFF2B4601462046BDE87040184734
:102B700030240020B76DDBB62473000073B50C4C15
:102B80000C4A4023041B00930D460B460A49A4102F
:102B900061430646094803F07DFF011E05DA304611
:102BA0002B4602B0BDE87040184702B070BD00BFB0
:102BB00030240020FD6A0000B76DDBB624730000EE
:102BC00010B5EFF31184202383F31288BFF36F8FC6
:102BD000074A136823F00201DB07116002D40120C9
:102BE00004F085F884F31188BFF36F8F10BD00BF28
:102BF00080240020002270B5012104461046FFF712
:102C00000FFD0F4801F022F90E4B984215D101F04B
:102C10002DF926690C49304603F0FCFC00280BDB3B
:102C2000012535642469084904F11C0003F0F2FC15
:102C3000002801DBE564002070BD6FF00400FBE7B5
:102C4000452D00000000AD0B3C7600001FB50022B2
:102C50000123CDE90223094ACDF800D06B46CDF817
:102C600004D003F044FF002805DB4FF4804200232A
:102C7000684602F0CDF805B05DF804FB1B6B000060
:102C800030B4104B0C2202FB003301460020D3E984
:102C90000E529863EFF31180202484F31288BFF35F
:102CA0006F8F1C6C04F0C00444F002041C6480F3B9
:102CB0001188BFF36F8F1DB12B46034830BC1847F6
:102CC00030BC7047302400202473000010B4EFF3B0
:102CD0001182202383F31288BFF36F8F1748016896
:102CE00041F002040460C80707D482F31188BFF3DF
:102CF0006F8F012010BC01F0CBB84FF08041D1F8AC
:102D00000C04D1F80C14C907EFD5EFF3118083F34D
:102D10001288BFF36F8F0A490B6C03F0C00343F0B6
:102D200002030B6480F31188BFF36F8F82F3118865
:102D3000BFF36F8F002010BCFFF7A2BF80240020DC
:102D40003024002010B1012804D07047034B1B6CC5
:102D50005B0701D1FFF794BF704700BF302400200C
:102D60002DE9F0413849BFF35B8F0746012251E856
:102D7000003F41E800200028F9D1BFF35B8F33B951
:102D8000324933484B60CB608A6003F056FC7B1EAF
:102D9000012B2BD8012F07D14FF08043D3F81C34DF
:102DA00003F00303012B21D004F0CCF80546F8B959
:102DB000284B1B78E3B14FF080430222C3F808236D
:102DC0000646DFF894804FF08044D4F81824D4F8F5
:102DD0001834D20315D503F00303012B01D0012FC2
:102DE0000FD155B386F31188BFF36F8FBDE8F08123
:102DF000EFF31186202383F31288BFF36F8F012531
:102E0000DFE7ADB1304603F0E7FDD4F81835002B0D
:102E1000DBD1D4F80421002AD7D0C4F80431D4F887
:102E200004310123C4F81835C8F88031A360CCE719
:102E30000021212002F00EFBE7E74FF08043022241
:102E4000C3F80423D2E700BF2C2400201C24002058
:102E50004C240020B445002000E100E010B5044CF3
:102E60002046FEF763F92046FFF70AFE002010BD5A
:102E7000752E0000F7B5134E8DF8070004460325A4
:102E800001F02EFD01220DF10701002001F0F2FCFE
:102E9000074601F02FFD27B101233370204603B010
:102EA000F0BD3378002BF9D0013D08D004F04AF88A
:102EB0000028E5D10021422002F0CCFAE0E735708D
:102EC000ECE700BFA1250020F0B54068057B01F0CC
:102ED0001F0444EA4514056987B0002D64D0B2F59B
:102EE000001F00F1100506D12146284603F07FFFA0
:102EF000002007B0F0BD01AE0027B2F5800F0197AA
:102F0000776039D1B3F1007F14BF052304238DF816
:102F100004300023CDE904630393836823FA01F1AD
:102F200011F001011AD1B2F1A07F17D104F01F03F3
:102F3000620903F5E0732AD0012A3BD11F4A52F8F7
:102F40002330DB070AD40DF103063246214628461A
:102F500001F07CFA1A4B98421CD0029603AA214633
:102F6000284601F035F9174B984220D1012221461D
:102F7000284601F0CFFABBE7B3F1C06F05D0B3F13B
:102F8000007F14BF01230223C1E70323BFE74FF0F3
:102F9000A042D4E73146284601F0B6FA094B9842E0
:102FA000DBD06FF00B00A4E76FF08500A1E76FF0B6
:102FB00015009EE751F82330FFDE00BF00030050EC
:102FC0000400AD0B0000AD0B38B545682B69B3B1FB
:102FD0001035284601F088FA044680B90146284693
:102FE00001F04EFA084B98420BD108492246284678
:102FF00001F026FA224605210620FFF711FB0020EA
:1030000038BD6FF00400FBE70000AD0B113000008D
:10301000420970B5034602D0012A17D070BD0D4E8B
:10302000326951680029F9D003F01F0301250C68AB
:103030009D400029F2D08A682A4002D04B68304671
:1030400098472CB1236821461C46F2E7024EE7E779
:103050002346F8E74C730000387300002DE9F04375
:10306000466840F20635D006337B87B002EA050594
:1030700054BFC2F34010032001F01F07B5F5837F52
:10308000144647EA43178DF8030044D00FD8062DA5
:1030900018D007D8B5B1022D3FD06FF0150007B09A
:1030A000BDE8F083B5F5807FF7D101250AE040F255
:1030B0000222954233D0B5F5407F32D0B5F5007F7E
:1030C000EBD1022522032ED5726801238B40C2F872
:1030D0000835326992BB07F01F037F092BD0012FFF
:1030E00079D13F4A02EB830284F48033D2F800178F
:1030F000C3F30043C4F3404444EA430421F4E161D0
:1031000044EA800421F0070144EA05230B43C2F896
:1031100000370020C3E70725D4E70425D2E70525BB
:10312000D0E70325CEE7630341BF012372688B40DC
:10313000C2F80C35CDE74FF0A042D3E710360DF1C1
:1031400002023946304601F081F914F4403F8046CE
:103150000CD13946304603F048FE224B9845D8D171
:103160009DF80210304601F0C9F9D2E701AB4FF0EB
:10317000000903AA39463046CDE90439CDE9019961
:10318000CDF80C9001F024F8164B984285D114F438
:10319000003315D09DF803308DF80E3084F4803460
:1031A000C4F300444B4603AA394630468DF80C5010
:1031B0008DF80D4001F0C6F80A4B9842CDD06CE76F
:1031C000CDE9043303AA0DF10303394630460393D6
:1031D00000F0FEFFF0E703F5E07352F82330FFDE66
:1031E000000300500000AD0B036803F01F025B09F1
:1031F000026004D0012B034818BF002070474FF035
:10320000A0407047000300502DE9F04FDFF8949183
:10321000DFF894A185B01546834600EB810140F2AA
:10322000FF18594503D1002005B0BDE8F08FDBF849
:1032300000305E04C3F3C322C3F3080400F1AC8082
:103240005B0C19F80270444508BF4FF0FF34222B85
:1032500000F2A580DFE803F012191F22252B22A31C
:10326000A3A3A33B68A3A3A3A3A3A3A3A3A36B812B
:103270008487A3A3A38A9194979A9D00C5F80C45CF
:10328000601C5ED10BF1040BCBE7C5F81445621C42
:10329000F8D000265FE0C5F80845F1E7C5F810450D
:1032A000F5E7631CC5F80845ECD0002604E0661C71
:1032B000C5F80C45E6D0012603A80394FFF794FF58
:1032C000039B012202FA03F3C0F80C3508E0C5F8AD
:1032D0000845002FDBD1631CD4D0002632460627D8
:1032E000DBF80030019303F40040002818BF0022EF
:1032F00003A8009218BF01260394FFF775FF039CF3
:10330000019B009A00EB8400C3F3412CD0F80047E6
:103310003B0243EA8C03134304EA0A04234343EACF
:103320004603C0F80037ADE7C5F80C45D1E7C5F84E
:103330006045601CDBF80030A4D0C3F30043002BD1
:10334000B9D003A80394FFF74FFF039B012606FAA9
:1033500003F3C0F808353246C2E7C5F86445E8E72C
:10336000C5F86845E5E7C5F86C45E2E7C5F82445CA
:10337000621C87D000220126B2E7C5F828457FE706
:10338000C5F83045F4E7C5F83445F1E7C5F83845E8
:10339000EEE7C5F83C4573E76FF0150044E76FF0C2
:1033A000850041E7E4860000F0F8FCFF2DE9F743D3
:1033B0000646002201210220FFF732F90220FFF722
:1033C00013F9776835693C684FF00008C4F8008548
:1033D0002E60D7F80C9001AA4146484603F0F5FB51
:1033E000002837DB019BD9F8002019791868FFF70E
:1033F0000BFF00282EDB6B7A3169012B03D0032BE6
:1034000026D14FF01008AB7A032B21D195F80BC0D1
:10341000BCF1000F02D0BCF1010F19D12A7A12B110
:10342000022A15D10E226B687068B3F5164F00683A
:103430007BD02DD8B3F5165F7AD016D8B3F5966F3A
:1034400078D00AD8B3F5967F77D0B3F5167F77D0CA
:103450006FF0850003B0BDE8F083B3F5166F72D04E
:10346000B3F5965FF4D15C4B3EE0B3F5E14F6DD020
:1034700007D8B3F5615F6BD0B3F5964FE8D1574BE2
:1034800032E047F6122E7345E2D14FF400032BE0F1
:10349000B3F5613F5ED013D8B3F5963F5DD009D840
:1034A0004DF6C02E73455AD0B3F5614FD0D14FF4CD
:1034B0006B0319E0B3F5E13FCAD14FF0EB7313E0B2
:1034C000B3F5612F4ED009D8DFF814E173454CD025
:1034D000B3F5E12FBCD14FF0E86305E0DFF804E17C
:1034E0007345B5D14FF08053C0F82435736848EA6E
:1034F0000C081B6842EA0802C3F86C250B1DD5E9CD
:10350000010183E803007B6899073DD505F11800A8
:1035100001F036F9344B98422AD03448344A01211C
:1035200003F09BF96FF0040094E74FF41D03DBE711
:10353000304BD9E74FF49E23D6E74FF4A033D3E7BF
:103540004FF41C33D0E74FF41D23CDE72A4BCBE7D4
:103550002A4BC9E74FF06C73C6E7294BC4E74FF419
:103560006503C1E74FF07063BEE74FF08063BBE7D0
:10357000287E04F10C0204F5907103F0AEFB2B7E63
:103580000120984000F0FAFB0823C4F800353B7A8C
:1035900053B9C4F81031D4F810316B69C4F834351C
:1035A0000123C4F8383523607B689A075CBF4FF469
:1035B0008073C4F804337B68DB0644BF4FF4800398
:1035C000C4F804332B69C4F8443500200123C4F83F
:1035D0004805A360E3603DE700B0130000A04E0083
:1035E00090D0030040420F000000AD0B4C7500006E
:1035F000EC8600000050270000C0750000F03A0083
:1036000000903A012DE9F041044607690D4603F0A8
:1036100099FC4FF02008B0B92C4B1B789BB1642665
:10362000606803F000FBF0B9012003F054FB013E99
:10363000F6D10021212001F00DFFF0E786F311887B
:10364000BFF36F8FF5E7EFF31186314688F31288E9
:10365000BFF36F8F606803F0E6FA80B986F31188D4
:10366000BFF36F8FEFE7EFF31186314688F31288CF
:10367000BFF36F8F606803F0D6FA0028DED03B6995
:103680001D70626838691368C3F844050120C3F8E7
:1036900048050020C3F82001D3F82051C3F8580191
:1036A0005268D3F85801D20608D56268126808201B
:1036B000C2F800054FF48002C3F8042301229A6087
:1036C00081F31188BFF36F8FBDE8F081B44500200E
:1036D00070B5012383400E4ABFF35B8FDC4352E891
:1036E000001F01EA040542E80056002EF7D1BFF39F
:1036F0005B8F4FF4803282400648C0F80823BFF346
:103700005F8FBFF36F8F0B4214BF0120002070BD8D
:10371000A02400200010014070B40E49D1E900340B
:10372000D01AC31844F1000422F07F46C1E90034E6
:10373000A6F50013B3F5400F09D2074B1B681A0A10
:103740001B069C19054B42F10005C3E9004570BCFE
:1037500002F004B800220020A42400200822002047
:1037600011B3BFF35B8F0123104A834052E800CFAF
:103770004CEA030C42E800C10029F7D1BFF35B8F8C
:103780000B4A4FF480338340C2F80433094BBFF334
:103790005B8F1B68BFF35B8FC340DB0742BF064BE9
:1037A0004FF40032C3F80021704700BFA02400206E
:1037B000001001409C24002000E100E00D4B18683F
:1037C000010A0006BFF35F8F0B4BD3F804351818BE
:1037D00041F10001B3F5801F0AD2084BD3E9002361
:1037E000904271EB030303D210F1807041F10001AC
:1037F000704700BFA42400200010014008220020D0
:103800002DE9F04F85B016461F469DF840A00446AE
:10381000FFF75EFF0190FFF7D1FFB04271EB0703A6
:1038200054D23E4B301A67EB0101984271F100010E
:103830004FD23B4B03EB0413D3E902239F4208BF53
:1038400096425ED037494FF4803804F1500508FAAB
:1038500004F8AD00C1F848832046ADB203F02AFA5F
:1038600026F07F4B05F1804504F5A87305F58835F2
:10387000DC464FF003090293029A2CF07F4341F893
:103880002230C1F84483D1F80435274A6FF0020092
:10389000C01A604420F07F40904232D9286868B155
:1038A000D1F804350393A3EB0B0020F07F40B0F573
:1038B000000F26D9204603F0FDF9039BBAF1000F53
:1038C00007D109EB030C09F10109D5E7BAF1000FA3
:1038D00009D06FF0150520460199FFF741FF2846F2
:1038E00005B0BDE8F08F0123104ABFF35B8FA34002
:1038F00052E8000F184342E800010029F8D1BFF355
:103900005B8F07490E98230101EB0412C8500F9BEF
:103910005360C2E902670025DDE700BF01008000B7
:10392000F021002000100140FDFF7F009C240020BA
:103930007FB51C4C1C4BC4F80833C4F848331B4BF0
:1039400000254FF0FF304FF0FF31C4F80855C3E9B0
:1039500002014FF48033C4F80433154B02264FF4B0
:1039600000320121C4F804631120C3F880212A46E3
:10397000FEF756FE1120FEF737FE0E4A0123A36024
:10398000236013600C4B0D4A0093CDE901550023D1
:103990002846FFF735FF3046FFF7E2F9284604B026
:1039A00070BD00BF0010014003000F00F021002097
:1039B00000E100E0A024002019370000FFFF7F0095
:1039C0002DE9F7432F4CD4F8043399070BD5D4F8DD
:1039D000043143B12C4A0023C4F80431D4F8043133
:1039E000136801331360D4F80433DA0329D5BFF325
:1039F0005B8F264B53E8002F22F0010143E80010B3
:103A00000028F7D1BFF35B8FD30702D4D4F840313D
:103A1000BBB10025C4F84051D4F84031FFF7CEFEC9
:103A2000EFF31182202383F31288BFF36F8F184BBB
:103A3000D3E90267B042B94106D282F31188BFF3DD
:103A40006F8F03B0BDE8F0834FF0FF384FF0FF39C0
:103A5000C3E90289D3E900101D604FF48033C4F834
:103A60004833C4F84051D4F8403182F31188BFF391
:103A70006F8F0029E5D0009032463B4628468847A4
:103A8000DFE700BF00100140A42400209C24002098
:103A9000F021002030B5431C124C85B005D0844283
:103AA000A8BF0446012CB8BF0124FFF787FE0E4BC8
:103AB0000C4DD3E90013401AB0F5000F10D22218B4
:103AC000AA4228BF2A4652184FF000000749009129
:103AD000CDE9010043F10003FFF792FE05B030BDD0
:103AE0002A46F0E7FFFF7F00002200201937000080
:103AF00008B5FFF763FE024B1B68C01A08BD00BF84
:103B0000002200204FF08053D3F83021082A06D13C
:103B1000D3F83431052B02D8024AD05C704700201C
:103B2000704700BF2F870000024AD2F80034002BF4
:103B3000FBD0704700E0014010B54FF08053D3F840
:103B40003021082A4ED14FF080420021C2F80C11DA
:103B5000C2F81011C2F8381502F54042D3F8041427
:103B6000C2F82015D3F80814C2F82415D3F80C14A1
:103B7000C2F82815D3F81014C2F82C15D3F8141471
:103B8000C2F83015D3F81814C2F83415D3F81C1441
:103B9000C2F84015D3F82014C2F84415D3F8241401
:103BA000C2F84815D3F82814C2F84C15D3F82C14D1
:103BB000C2F85015D3F83014C2F85415D3F83414A1
:103BC000C2F86015D3F83814C2F86415D3F83C1461
:103BD000C2F86815D3F84014C2F86C15D3F8443411
:103BE000C2F87035FFF78EFF18B13A4B3A4AC3F866
:103BF0008C26FFF787FF18B1384BFB22C3F8182536
:103C0000FFF780FF70B14FF080414FF08053D1F843
:103C1000E42ED3F8583222F00F0203F00F031343BF
:103C2000C1F8E43EFFF76EFF20B12D4B4FF4007258
:103C3000C3F840264FF08053D3F83031082B1AD107
:103C40004FF08043D3F80024D20744BF6FF0010245
:103C5000C3F800244FF08053D3F83431052B02D839
:103C6000204AD35C3BB14FF01023D3F808224FF029
:103C70008043C3F858254FF01023D3F80022002AC0
:103C800003DBD3F80432002B22DA174901234FF06B
:103C90001020C1F804351224FFF746FFC0F8004297
:103CA000FFF742FFC0F80442FFF73EFF0023C1F8D0
:103CB0000435FFF739FFBFF34F8F0C490C4BCA682F
:103CC00002F4E0621343CB60BFF34F8F00BFFDE708
:103CD00010BD00BF005000404881030000F00040CC
:103CE000009002402987000000E0014000ED00E064
:103CF0000400FA0530B50468CCB1BFF35B8FB4FAA9
:103D000084F3C3F11F03DBB201229A4024EA0202CA
:103D100050E8005FA54204D140E8002CBCF1000F40
:103D2000F6D1BFF35B8FE6D102480B7030BD02487D
:103D3000FCE700BF0000AD0B0200AD0B10B503683F
:103D4000CB40DB0714D401238B400268BFF35B8FA9
:103D500043EA020150E8004F944204D140E8001CBD
:103D6000BCF1000FF6D1BFF35B8FEED1014810BD5F
:103D70000148FCE70000AD0B0400AD0B014BC3F89C
:103D80000405704700F00140F7B5044618B101285A
:103D900023D003B0F0BD4FF080430222C3F80823C4
:103DA0000122DA60C3F80401D3F804310646012386
:103DB0008DF8073042F210754FF08047D4B1012CD6
:103DC000E7D1D7F80C3403F48033AEBB83B30120C2
:103DD00002F081FF013DF4D12AE04FF08043002240
:103DE000C3F808035860C3F80021D3F800310DF17F
:103DF0000706DCE7D7F8183403F480333EB9002B0C
:103E0000C7D0012002F067FF013DF3D1C1E7D7F829
:103E1000182402F003023260002BBAD09DF807008C
:103E2000012803D102F057FF013DC7D1012CB0D1C9
:103E3000054B00225A71ACE7D7F80C2402F00102BE
:103E40003270002BEAD1F3E7A8240020044B1A7942
:103E500022B9012218609A800248704702487047D0
:103E6000A82400200000AD0B0C00AD0B08B5074BDB
:103E70001B682BB10020FEF7C5FB08B9FEF7B4FBA9
:103E80004FF080430022C3F8182508BDA824002065
:103E900010B510B1012843D010BD4FF08043D3F8C6
:103EA0001814D3F81824C80321D502F00303012BFA
:103EB00004D013B10020FFF767FF00234FF08042CA
:103EC0000220C2F8183508224FF4827303F18043B0
:103ED0000021196002F180421C6801241460154A17
:103EE00012680AB34FF08043C3F80403D4E7D3F851
:103EF0001424D107E1D5D3F81C249207DAD40D4A53
:103F000012681AB10222C3F80423C5E7D3F80421CA
:103F1000002AFBD00022C3F80421D3F80431BBE708
:103F200000224FF48073D1E71A68002AFCD0196090
:103F30001B68B1E7A824002010B54FF08043D3F8E8
:103F400000216AB10022C3F80021D3F80021012228
:103F5000C3F80823114B587910B95A711B68984758
:103F60004FF08043D3F8042172B10022C3F804213A
:103F7000D3F80421D3F81824D3F81824920704D1D5
:103F80000122C3F818259A6010BD0222C3F8082345
:103F9000024BBDE810401B6801201847A8240020F0
:103FA000036803F01F025B09026004D0012B034881
:103FB00018BF002070474FF0A0407047000300502A
:103FC000034A430900F01F00D35C1844C0B2704795
:103FD0003587000070B50546FFF7F2FF0C4C08303E
:103FE0000E4634F81030DA0508D5C3F3432304EB4A
:103FF000C302284654F8333052689847A3682BB15F
:10400000E26831462846BDE87040184770BD00BFE1
:104010003400002008B5FFF7D3FF034B083033F816
:104020001000400B08BD00BF3400002008B5FFF7AA
:10403000C7FF034B083033F81000C0F3400008BD41
:104040003400002008B5FFF7BBFF034B083033F8FE
:104050001000C0F3401008BD34000020034611F0EA
:10406000010010B5CCB20DD1A207C4F3400012D5A7
:10407000094AD2F820055860C2F82005003818BF58
:10408000012008E04FF0A041D1F820251A60C1F8C6
:104090002025002AE8D010BD0003005010B5FFF71E
:1040A0008FFF124A083032F81030D9051CD5C3F3FF
:1040B000432123F4F85322F8103002F10E040020BB
:1040C00034F8023F13F4807F03D0C3F343239942B3
:1040D0000AD001303028F3D1002342F831300448AF
:1040E000BDE81040FFF72ABE10BD00BF340000201D
:1040F000AC000020F0B50546002004460126074626
:104100008C420BD1114BD3F87C2132B10022C3F881
:104110007C21D3F87C3140F00040F0BDE3B29B003D
:1041200003F580729B0806FA03F31D420BD002F1DF
:10413000804202F5C042D2F800C0BCF1000F02D0AC
:104140001760126818430134DAE700BF00600040CE
:10415000F7B506460846FFF733FF194F00F108058B
:104160000C4637F81530DB0727D5304602F019FE2C
:104170002046FFF767FF40B12046FFF74BFF31684D
:1041800000F5A270002341F820302046FFF786FF9B
:10419000002301A827F815300194FFF701FF019BC8
:1041A00000EB8300074BD0F80027134043F00203D5
:1041B000C0F80037044803B0F0BD0448FBE700BF77
:1041C00034000020F0F8FCFF0000AD0B0400AD0B44
:1041D0002DE9FF41164680460846FFF7F1FE0D46E1
:1041E0003168044609B32846FFF720FF18B1284676
:1041F000FFF728FF10BB0023CDE900338DF80E3008
:104200008DF80F300DF10F020B4628460DF10E010F
:1042100002F06FFD474A04F1080132F8113023F033
:10422000020343F0010322F81130736863B3284698
:104230001F785968FFF7FAFE10B1D1B13E4826E069
:104240003C4A04F1080032F8103023F02003DB046C
:10425000DB0C22F8103061B1032FEFD87168496888
:1042600091F800C0D8F80010A7B90CF5A27C41F86D
:104270002C70304A04F1080132F8113023F01C038D
:1042800043EA870322F81130B3684BBB2B4804B0D4
:10429000BDE8F08101EB8C0143EA4C33D1F810E525
:1042A0002EF0030EC1F810E5D8F8001001EB8C0ECB
:1042B00043F02003DEF8101522F8103021F44F31BE
:1042C00021F44071CEF810152902DEF8108501F4B2
:1042D0007C5141EA074141EA0801CEF81015C8E7D0
:1042E000D3E900672846FFF7D9FE002ECED0114D46
:1042F000D5E90023964203D19F4201D1002209E073
:104300000F480DF10F01FFF7F5FC0C4B9842BED1A1
:104310009DF80F2045F8326005EBC20308345F605A
:1043200035F8143043EA422343F4807325F81430FF
:10433000ACE700BF340000200400AD0B0000AD0B63
:10434000AC0000202DE9F0430C4685B080462046A5
:1043500011461E46FFF734FE054629B32046FFF7F7
:1043600065FE18B92046FFF76DFE18BB314F05F109
:10437000080937F8193013F01C0F02D04B78012BC5
:1043800018D001238DF80F300023CDE900134A1C0B
:104390008B1C20460DF10F0102F0ABFC37F81930F1
:1043A00043F0030327F81930002E41D02046FFF7D1
:1043B0003DFE18B9204805B0BDE8F08396F800C06E
:1043C000D8F800301B4F0CF5A272002143F82210E0
:1043D00005F1080237F8121021F02001C904C90CB8
:1043E00027F8121075781DB3D8F80000B67800EBE6
:1043F0008C002D04D0F8103523F4991323F4F853CE
:10440000C0F81035230203F47C5305F4403536051B
:10441000D0F810E52B4306F4801641EA4C313343C3
:1044200041F0200143EA0E0327F81210C0F81035BE
:104430000248C0E7340000200400AD0B0000AD0BC3
:10444000014BC3E9021270473400002010B5084642
:104450001446FFF7F7FD50B10846FFF7B1FD054BD5
:10446000083033F8103004485B0B237010BD03484C
:10447000FCE700BF340000200000AD0B0400AD0BD2
:1044800070B5164D95F8804006462CBB214660223B
:1044900005F1100002F0A0FE30682E6F21468E421A
:1044A0000ED10023C0F87C31D0F87C3140F30730C6
:1044B000FEF79AF801230A4885F88030AB6770BD93
:1044C000CBB29B0003F580727C2B08BF845001F1B6
:1044D000010108BF8358E2E70248F0E734000020FA
:1044E0000000AD0B0C00AD0B034B93F880000038BF
:1044F00018BF0120704700BF340000200148FFF7BB
:104500001DBC00BFA80000200148FFF7F3BB00BF9F
:10451000A800002073B503681646D3F80423002AC8
:10452000A8BF4FF000420546A8BFC3F804230846C1
:104530000C46FFF787FD00B30846FFF777FD0146FD
:10454000D8B92046FFF766FD04B2A40004F58072D6
:10455000034628688150296882582144D1F81025E3
:1045600042F00102C1F810252EB12968012202FA99
:1045700003F3C1F8043302B070BD2046FFF720FDFD
:104580000F4B083033F81030C3F38203042B12D0E2
:10459000052B12D001A80194FFF702FD019AD0F873
:1045A0001035D34003F00103991C204602B0BDE84A
:1045B000704002F0E7BB0321F7E70221F5E700BFF7
:1045C000340000202DE9F04F694BDFF8A881D3F8C3
:1045D0000403D8F87010C0B289B040F00040FFF773
:1045E00089FD051E2FDAC24600235AF87C1F06A853
:1045F000CDE90633FFF732FD5F4B01930DF118094A
:104600004FF0000B019A12F8013B0192DA0803F017
:1046100007031AF8022022FA03F3DA071CD409F17F
:104620000409BBF1000F14D0D8F870104FF000400F
:10463000FFF760FDD8F87C1006A8FFF70FFD0028F3
:10464000DAD125F000450124002D79D109B0BDE86B
:10465000F08F4FF0010BD5E7484B5B440293D9F83C
:1046600000100029DBD0029B91FAA1F11C78B1FA6D
:1046700081F141EA44142046FFF7A2FC083005947A
:1046800038F81070C808BB0819F80020039301F02F
:104690000701012303FA01F122EA010209F80020CF
:1046A00005A8FFF77DFC059A039B02F5E072C7F3AE
:1046B000820650F822205B073746C2F3014224D518
:1046C00020463946D6B2FFF785FC05A80594FFF7CA
:1046D00067FC059B03F5E07350F82330C3F30143F7
:1046E0009E4207D10021204602F04CFB3146204675
:1046F00002F048FB05A80594FFF752FC059B012238
:1047000002FA03F3C0F82035A9E7022A0CD10321ED
:10471000204602F037FB06F00503012BEAD13946AB
:104720002046FFF757FCE5E702212046039202F0FE
:1047300029FB032EF3D0039A032ADBD1022EEDE7E7
:1047400095FAA5F3B3FA83F304FA03F29B0003F19D
:10475000804303F5C04325EA0205D3F81005D3F8DA
:104760001015C0F30520C1F30141FFF733FC6BE7DF
:1047700000600040340000204587000045870000AD
:1047800001460148FFF7B6BAB800002008B5124B41
:10479000A8220021184602F01FFD032202610F49E2
:1047A00042610F4A8161C2614FF4005202620022ED
:1047B00082624262C26201660A49416610218166D4
:1047C000094902670346C266426711F8010D985411
:1047D0000132102AF9D108BDB0240020478700001B
:1047E000B4250020A4250020608700002DE9F84FA3
:1047F000DFF87C80182606FB008E00FB0666464428
:10480000DEF82440DEF828C07368A44507468946D0
:10481000154603EB040022D8DEF820B0ABEB040A07
:104820000AF1FF339A4203D802F0C8FC2C440FE08F
:1048300063449A4219D852462C4402F0BFFCB4EBB0
:104840000B0405D07068224609EB0A0102F0B6FCA1
:10485000182303FB078301205C62BDE8F88F0CF18D
:10486000FF3CACEB040C9445DED20020F5E700BF22
:10487000B0240020F8B5144B182700FB07751D4421
:1048800007FB00330E46DB6A012B14460AD0022BCD
:1048900014D023B9284602F0ACFA844208D9002487
:1048A0002046F8BD284602F0A4FA844228BF0446F8
:1048B00022463146284602F0A5FAF1E72846BDE82F
:1048C000F84002F0BABA00BFB0240020034B18220F
:1048D00002FB00339A6A586A801A7047B02400209D
:1048E00003484FF0FF324FF0FF3300F0B9B900BF7B
:1048F00008010020014800F02BBA00BF0801002089
:1049000010B50446FCF700FF0348044A012101F0FA
:10491000A4FF204602F0D2FA34750000618700003F
:104920002DE9F843044600AF0D46EFF3118820232C
:1049300083F31288BFF36F8F0428294A98BF294B4D
:104940009668117C94BF53F82030274BE9468AB013
:104950006A462648C2E9073140F201339384244B6A
:10496000C2E9050442F8103F224800234FF43151B8
:10497000FCF7AEFFCD4645B1EB69C3F3080323B1A5
:104980001D4A1C48012101F068FF2EB1304602F09B
:10499000E2FA08B1037803B91848E9468AB06A46D2
:1049A000174BD061C2E9053640F201331384154B31
:1049B00042F8103F00230F484FF41151FCF788FFD5
:1049C0002946CD462046FFF79BFF88F31188BFF3A9
:1049D0006F8F3046FDF798FDBD46BDE8F88300BFF8
:1049E000582500201077000070870000868700009F
:1049F0000500000134750000AE8700007E870000CE
:104A0000CF8700000400000138B5094B53F820405F
:104A1000013053F82050A54200D838BD636823B157
:104A2000204602F053FA0834F5E723689847FAE77E
:104A30002477000070B52B4B2B4C2C4D012286B0F7
:104A400003201A70FFF7E0FF00F0B2FF02F05AFAFD
:104A50000420FFF7D9FF2646AE4204F1300410D3FC
:104A600000F03AFC204C224EAC4226D300F048FC29
:104A7000FBF708FC1F4A137B23F00103137306B0F6
:104A800070BD54F80C3C059354F8103C049354F852
:104A9000143C039354F8183C029354F81C3C0193C3
:104AA00054F8203C009354E90A2354E90C0100F027
:104AB000D5F954F8303C5E65CDE7D4E90A23B3F16B
:104AC000FF3F08BFB2F1FF3F05D052EA0301206863
:104AD00003D102F042FA3034C6E73146183000F014
:104AE000C3FDF8E7B4450020F4740000F47400003E
:104AF000897000009022002008B50348034A002175
:104B0000121A02F0FBF908BD30010020B845002060
:104B100070B5002386B00122CDE90423134E144D55
:104B200001930F22CDE902321249142303FB0055F1
:104B300006EBC01604464FF4C07000FB04110E4B88
:104B400000954FF4A072304600F088F9737B0B4A51
:104B5000EE6023F0040373734FF4046304FB033328
:104B600013442C746B6006B070BD00BF102200208F
:104B70005825002040510020076F00000049002008
:104B8000BFB50020FFF740FF2D4B83F308882D4D64
:104B90002D4E6B692D4F43F400736B610024E023AD
:104BA00085F82230EC772C766C76AC7685F8204050
:104BB0006B6A43F4E0236B6285F82340FDF77AFCCF
:104BC000FDF7BEFD4FF0FF33AB62EB62FDF792FEE7
:104BD000FDF7DAFDFCF704FD1D4BB36040F2011256
:104BE0009A81C3E91844DC6602F05CF90120FFF702
:104BF0000BFF0220174DFFF707FF00F0A1FB164B3C
:104C000075610593012315490094CDE903434FF4E1
:104C100080523B46CDE90144284600F01FF96A7BEB
:104C2000064622F0040228466A7302F0D2F92046B2
:104C3000FFF76EFF3A4631462846FDF75FFD00BF9D
:104C40004051002000ED00E058250020354A0000CA
:104C5000102300209022002031880000C052002044
:104C60002DE9F341044617461E46EFF31188202331
:104C700083F31288BFF36F8FC368334A7BB18068B8
:104C80009168884219D057EA060318D188F3118831
:104C9000BFF36F8F6FF00F0002B0BDE8F081916835
:104CA00091F90E1021610133E3609368A36088F3EA
:104CB0001188BFF36F8F0020EEE72169F2E791F9C9
:104CC0000E1090F90E309942A8BF19466FF07E027F
:104CD0009142B8BF11468B422DDD02F01FF9054607
:104CE000CDE9007619482246414600F041FA0028F5
:104CF000E1D0EFF31186202383F31288BFF36F8F87
:104D0000A068D0B1236821699C420AD04BB193F9C5
:104D10000E309942A8BF19466FF07E039942B8BF82
:104D2000194602F0FBF840B10848314600F090FA0D
:104D30006FF00A00B0E70025D2E7002DF4D186F32A
:104D40001188BFF36F8FF3E758250020B545002089
:104D500038B58368044663B3194A926893422BD1ED
:104D6000C368012B03D9013BC360002038BDEFF3BA
:104D70001185202383F31288BFF36F8F0169806848
:104D800002F0CCF8204602F099F9A06058B190F9F1
:104D90000E2022610022826702F01BF90948294691
:104DA00000F056FAE1E7E06085F31188BFF36F8FFA
:104DB000DBE76FF01500D9E74FF0FF30D6E700BF13
:104DC00058250020B545002038B50446EFF311857D
:104DD000202383F31288BFF36F8F02F06FF948B17D
:104DE0000022826702F0F5F829460848BDE83840FD
:104DF00000F02EBAD4E902329A4218BF0133A36000
:104E000085F31188BFF36F8F38BD00BFB545002013
:104E100013B5EFF31181202484F31288BFF36F8F51
:104E2000846844B1013C846081F31188BFF36F8FC3
:104E3000002002B010BD52EA030406D181F31188AC
:104E4000BFF36F8F6FF00F00F3E7CDE90023024649
:104E5000014800F08DF9ECE7B54500202DE9F0435D
:104E6000073285B022F007020E461F4610990173E3
:104E700000F158037F32C0E916330446002322F0C4
:104E80003F020421836041733F2A0F98A073C4E955
:104E90000633E37306F14009A2F1400805D883F315
:104EA0001188BFF36F8F084602DFB51829462046E8
:104EB000FDF7A4F807300E9B20F00700A066C4E9B8
:104EC000189802930D9B01932D1A0C9B00932A4670
:104ED0003B4631462046FDF7DFFB00236365044B6C
:104EE0009B6803B1DB6EE366284605B0BDE8F0833E
:104EF00058250020F0B587B000250595109D049534
:104F00000F9D03950E9D0295DDE912760D9D01958D
:104F10000C9D00950446FFF7A1FFB6F1FF3F08BFC7
:104F2000B7F1FF3F05D056EA070305D1204600F050
:104F3000A1F9204607B0F0BD03493A46334604F1D3
:104F4000180000F091FBF4E78970000038B50D4DB2
:104F50002B4653F8184F9C4200D004B9EC68AB685C
:104F600038B95A7BD20604D1A26912B9DA897F2AEC
:104F700005D89C4202D0204600F0BEFA23466B6161
:104F800038BD00BF5825002008B590F90D20437B9F
:104F9000002A014604DA03F07F03437301F0DFFFC8
:104FA000044B9868431A58425841BDE80840FFF73F
:104FB000CDBF00BF5825002070B490F90D30427B62
:104FC000002B29DBD30627D183692BBB134962F061
:104FD0007F0242730A4652F8184F944218BF234684
:104FE000CC6923B9C0E900242060C8610CE090F9C5
:104FF0000E5093F90E60B5420AD0AE4208DD5A68F1
:10500000C0E900321060586070BC0020FFF79EBFFE
:105010009C42E7D01B68E4E770BC7047582500202D
:105020002DE9F041002A427B0E460CBF10210821D9
:10503000114204460FD141EA0203D20918D1437349
:1050400008291BD00120FFF781FFBFF35F8F637B2F
:1050500023F060036373274B9B68A34243D1EFF3B4
:105060000583002B3FD13046BDE8F041FDF762BA21
:1050700003F07F03437301F072FFE1E7A36813B10C
:10508000204601F074FF04F1180002F054F8A56DF9
:1050900004F15807AF4211D04FF0000875B128460F
:1050A00001F065FF05F1180002F045F8C5F87880B9
:1050B0002846FFF781FFA56DAF42EFD10D4DAB68DC
:1050C0009C42BFD1EFF30583002BBBD00120FFF73B
:1050D0003DFF094BAB6040F201129A810022C3E907
:1050E0001822DA66B1E786F31188BFF36F8FBDE847
:1050F000F08100BF582500201023002070B590F9E2
:105100000D20437B002A014604DA03F07F0343733A
:1051100001F025FF4B7B154A63F07F0310464B736C
:1051200050F8183FD469834208BF002323B9C1E96E
:1051300000042160D1610CE091F90E5093F90E60EA
:10514000B5420ED0AE420CDD5868C1E900300160B6
:1051500059609068431A5842BDE870405841FFF7C3
:10516000F5BE9C42E3D01B68E0E700BF5825002055
:10517000F8B5124B0C461146114A98681060DDE9EB
:105180000676EFF31182202282F31288BFF36F8F2D
:105190009D68284601F0F5FEB6F1FF3F08BFB7F164
:1051A000FF3F06D007493A46334605F1180000F0A4
:1051B0005BFA2046BDE8F840FDF7BCB95825002051
:1051C0007825002089700000F8B50446EFF31186B9
:1051D000202383F31288BFF36F8F437BDA0649B233
:1051E00019D18569BDB903F07F03437301F0B7FEA0
:1051F000437B164A817363F07F034373134653F86E
:10520000180F984218BF0546D0695DB9C4E900304F
:105210000460D46111E0A173002086F31188BFF30C
:105220006F8FF8BD95F90E70B9420BD08F4209DD32
:105230006B68C4E900531C606C600120FFF786FEB8
:105240000120EAE7A842E1D02D68DEE758250020DA
:1052500049B9EFF3058030B9054B5A699B689A420A
:1052600001D0FDF767B981F31188BFF36F8F7047E5
:105270005825002010B5EFF31184202282F3128804
:10528000BFF36F8F427B510704D484F31188BFF3BF
:105290006F8F10BD22F004024273FFF78DFE21468E
:1052A0000248BDE81040FFF7D3BF00BFB54500205E
:1052B000034648B9EFF3058232B9064A516992684C
:1052C000914201D0FDF736B983F31188BFF36F8F98
:1052D000704700BF58250020EFF31181202383F38E
:1052E0001288BFF36F8F054B9A68D37B013BD37352
:1052F00081F31188BFF36F8F704700BF58250020DE
:1053000038B5EFF31185202484F31288BFF36F8F33
:105310000A4B9A68D37B0133D3730020FFF716FE44
:1053200085F31188BFF36F8FEFF3118084F3128838
:10533000BFF36F8FBDE83840FFF7BABF5825002094
:10534000024B03F11802C3E90622704758250020DA
:10535000F8B5EFF31185202383F31288BFF36F8F25
:1053600019498868437B03F07F03437301F0F7FD1D
:105370008B685A7B084662F07F025A7350F8182FE8
:10538000CC69824208BF002222B9C3E9000423602D
:10539000CB610CE093F90E6092F90E70BE420ED014
:1053A000B7420CDD5168C3E900210B605360012056
:1053B000FFF7CCFD2846BDE8F840FDF7BBB8A24298
:1053C000E3D01268E0E700BF5825002050EA01034F
:1053D0002DE9F04105460E4603D1FFF7B9FF002045
:1053E0002BE0831C71F1FF3329DB01F0B9FE2C188F
:1053F000EFF31188202383F31288BFF36F8F124FCE
:10540000124BB8681860FFF7BFFDB86810492A460C
:105410003346183000F028F9BA68537B43F0100384
:1054200053734046FDF786F801F09AFE201A63EBAD
:105430000303012873F10003D1DBBDE8F0816FF0B5
:105440000104241AD4E700BF582500207825002045
:1054500089700000B1F1FF3F08BFB0F1FF3F08B510
:1054600006D10A4B986801F0C3FD4FF0FF3008BD2C
:10547000FFF7ACFF4FF47A7147F6FF730022C0FBD1
:105480000132D80B40EA4240F1E700BF5825002026
:10549000014B9868704700BF58250020044BC01A84
:1054A000044BC0105843044B01221A54704700BFEC
:1054B00090230020ABAAAAAAB5450020C3897F2B60
:1054C00012D80A4B1B6863B1094B90F90E201B6878
:1054D0009A4209DB437BDB0606D1064BC31A18BF91
:1054E000012303F0010070470023FAE78025002024
:1054F0007C2500201022002070B50E4B0E4C1E7C27
:1055000006EB460304EBC3040546204601F013FEF8
:105510000A4B002228469A55FFF7D0FF48B1084BA6
:1055200008491A68013A2046D317BDE8704000F0D8
:105530009BB870BD5825002090230020B545002061
:10554000802500209D54000038B5EFF311852023FD
:1055500083F31288BFF36F8F104B114A9C68106859
:10556000A04206D1FFF7C8FF85F31188BFF36F8F04
:1055700038BD00211B7C11600A4AD35C002BF3D09C
:105580002046FFF79BFF0028EED0637BDB0602D1AD
:105590002046FFF7B3FD2046E4E700BF5825002072
:1055A00078250020B545002008B50648064A074979
:1055B000121A01F0A5FCBDE80840054A0549064855
:1055C00001F09EBC000000202C010020708800002B
:1055D000000000007088000000000020034B1B68E2
:1055E0000BB9FEF785BA0020704700BF8425002064
:1055F00030B570B10B4B5B6898420AD0036843B179
:10560000D3E90421D0E90445121941EB0501C3E9AE
:105610000421D0E9003213605A600023C0E900334E
:1056200030BD00BFBC00002010B50E4B1C689C4272
:1056300004D1FFF7D3FF6FF0004010BDFFF7CEFF9E
:10564000002CF8D0D4E904321B1A62EBE072B3F1FB
:10565000004F72F10001EEDA002AACBF18460020BC
:10566000EBE700BFBC000020B3F1FF3F08BFB2F181
:10567000FF3FF8B504461D4616465ED08160EFF345
:105680001187202383F31288BFF36F8F013275F1E6
:10569000FF3324DA2E49D1E900206FF001039B1A71
:1056A0004FF0FF3262EB00009E1B60EB0500012E05
:1056B00070F1000301DA01260020C4E90460254EE0
:1056C000D6F800C07568B44508BF4FF0000CBCF1B7
:1056D000000F0DD1C4E900652C6074601CE0FFF779
:1056E0007DFF013645F10005361845EBE070E4E733
:1056F000DCE90420D4E90431934271EB000E1DDA99
:10570000D21ADCF8043060EB0100CCE90420C4E9D3
:1057100000C31C60CCF804403368B34209D09C42FB
:1057200007D10D4B1C6824B9FFF77EFF2146FEF719
:10573000B1F987F31188BFF36F8FF8BD9B1A61EB46
:105740000001AC45C4E90431C4D0DCF800C0BEE7B8
:10575000A8230020BC000020842500202DE9F84F5C
:10576000EFF3118C202383F31288BFF36F8FDFF8E0
:10577000B0A0DFF8B0902C4FC9F80000DAF80000B4
:105780000024504508BF00200025D7E90021D9F8A2
:105790000030E04678B3D0E9046C4FEAE37EB342D0
:1057A0007EEB0C0B05DAF61A6CEB0E04C0E9046410
:1057B00021E0B21841EBE671C0E90445C7E90021D8
:1057C000FFF716FF88F31188BFF36F8F8368984740
:1057D000EFF31188202383F31288BFF36F8FD9F87A
:1057E0000030DAF800009B1B5045C446C9F8003071
:1057F000CBD1D7E900219A1841EBE3730024C7E924
:105800000023C9F80040FFF70FFF2146FEF742F9D9
:1058100088F31188BFF36F8FBDE8F84FFFF794BE90
:10582000BC00002084250020A823002010B5EFF341
:105830001184202383F31288BFF36F8FFFF7CEFE0E
:10584000054A0346D2E90001181841EBE37184F3DD
:105850001188BFF36F8F10BDA8230020F8B5044650
:10586000EFF31187202383F31288BFF36F8F026851
:1058700022B187F31188BFF36F8FF8BDD0E90A36E4
:10588000581C46F10001022871F1000127D3012BB9
:1058900076F10001BCBF012316465D1E46F1FF36BE
:1058A00001F062FC013041F10001401946EB0101B9
:1058B000012871F1000139DB01F056FC013041F1A2
:1058C00000016FF00102401946EB0103121A4FF07C
:1058D000FF3161EB030318492046FFF7C5FE236B38
:1058E00001332363236A6BB187F31188BFF36F8F92
:1058F000236A20469847EFF31187202383F3128809
:10590000BFF36F8F54F8185FA542B2D0002DB0D00E
:10591000284601F087FB0023AB6787F31188BFF3AC
:105920006F8F2846BDE8F84001F053BB6FF00102CD
:105930004FF0FF33CFE700BF5D5800002DE9F04185
:1059400005461C4690461F46EFF31186202383F33D
:105950001288BFF36F8FB4F1FF3F08BFB2F1FF3F72
:1059600005D186F31188BFF36F8FBDE8F081531C1A
:1059700074F1FF3309DB012A74F10003BCBF01227B
:10598000002412F1FF3844F1FF37284601F0D3FB21
:10599000DDE906010023C5E90A012B6303494246FC
:1059A0003B462846FFF760FEDBE700BF5D5800007E
:1059B000014800F081BB00BF398800000CB430B54D
:1059C00089B005460C461C22002101A801F004FC08
:1059D00002238DF806300E4B0293059523462CB119
:1059E000B4F1004F28BF4FF00043013B1D440DAA06
:1059F0000C99069501A8009200F00CF814B1059BD3
:105A000000221A7009B0BDE8304002B0704700BFF4
:105A1000AF7200002DE9F04F8DB043680293837898
:105A200015469A07804640F10D8100240E78002E1D
:105A300000F00A81252E0BD04B1C03930134029BEE
:105A40004146304698470028C0F2F6800399EDE7BA
:105A50004E788B1C252E0393F0D00027B946BB4609
:105A6000BBF11F0F38D8A6F12003102B0AD8DFE8AE
:105A700003F02A0909300909092109090928092D12
:105A800009091F00A6F13003092B33D92A2E37D17B
:105A90001BF0400F55F8043B40F08280002BA7BF5D
:105AA0004BF0200B9946C3F100094BF0280B01E0A5
:105AB0004BF0010B039B13F8016B0393002ECFD126
:105AC00030E04BF0020B4BF0040BF3E74BF0080B0C
:105AD000F0E74BF0100BEDE7BBF17F0F19D8A6F103
