:020000040000FA
:10000000C8AF0020C9050100C9E20100B505010023
:10001000B5050100B5050100B5050100B5050100F4
:100020000000000000000000000000002D0701009B
:10003000B505010000000000C5060100B50501007E
:10004000B1080100B1080100B1080100B1080100C8
:10005000B1080100B1080100B1080100B1080100B8
:10006000B1080100B1080100B1080100B1080100A8
:10007000B1080100B1080100B1080100B108010098
:10025000B108010029000200B1080100B108010045
:10026000B1080100B108010013000200B10801004B
:10027000B1080100B1080100B1080100B108010096
:10028000B1080100B1080100B1080100B108010086
:10029000B1080100B1080100B1080100B108010076
:1002A000B1080100B1080100B1080100B108010066
:1002B000B1080100B1080100B1080100B108010056
:1002C000B1080100B1080100B1080100B108010046
:1002D000B1080100B1080100B1080100B108010036
:1002E000B1080100B1080100B1080100B108010026
:1002F000B1080100B1080100B1080100B108010016
:10030000B1080100B1080100B1080100B108010005
:10031000B1080100B1080100B1080100B1080100F5
:10032000B1080100B1080100B1080100B1080100E5
:10033000B1080100B1080100B1080100B1080100D5
:10034000B1080100B1080100B1080100B1080100C5
:10035000B1080100B1080100B1080100B1080100B5
:10036000B1080100B1080100B1080100B1080100A5
:10037000B1080100B1080100B1080100B108010095
:10038000B1080100B1080100B1080100B108010085
:10039000B1080100B1080100B1080100B108010075
:1003A000B1080100B1080100B1080100B108010065
:1003B000B1080100B1080100B1080100B108010055
:1003C000B1080100B1080100B1080100B108010045
:1003D000B1080100FDFF0100B1080100B1080100F2
:1003E000B1080100B1080100B1080100B108010025
:1003F000B1080100B1080100B1080100B108010015
:10040000B1080100B1080100B1080100B108010004
:10041000B1080100B1080100B1080100B1080100F4
:10042000B1080100B1080100B1080100B1080100E4
:10043000B1080100B1080100B1080100B1080100D4
:10044000B1080100B1080100B1080100B1080100C4
:10045000B1080100B1080100B1080100B1080100B4
:10046000B1080100B1080100B1080100B1080100A4
:0C047000B1080100B1080100B108010052
:10048000064A074B02604FF41A725B78828008229A
:10049000C371002382710372704700BF7FD30000D5
:1004A000382C0020064A074B02604FF490725B7AAA
:1004B00082800822C371FF2382710372704700BFDC
:1004C000A7CE0000382C0020F8B5C41D0028054632
:1004D00024F007040CBF0020204600F0E5FA071EB8
:1004E00002DA6FF00B00F8BD254EB1887088033139
:1004F000F3790330B27989B280B20AF06BFD00283B
:10050000EFDB3C4473783178002D04F10304194487
:1005100024F0030400FB01F10CBF0020204600F092
:1005200047FC23180DB9002BDBDB717A184679B133
:100530000333002D728923F003040CBF00202046F2
:1005400000F0A8FC0028CCDB20440DB90028C8DB53
:10055000317A91B1737A83B1C41D002D24F0070460
:100560000CBF0020204603F0BBF90028B9DB0DB119
:100570000020B8E72018B6D5B3E7002DF8D1B2E7D0
:10058000382C00201FB572B6194BDC68ECB9BFF3EC
:100590004F8F1849184BCA6802F4E0621343CB60CE
:1005A000BFF34F8F00BFFDE7B2FBF6F22B465D1C99
:1005B000002AF9D1DBB203F110056D4405F80C2CCB
:1005C0000A2233B901A8A047E1E7024600230A2620
:1005D000EDE7013BDBB203F110050DEB0506B0FBC7
:1005E000F2F502FB1500303006F80C0C2846E8E75F
:1005F000382C002000ED00E00400FA050A4B07B596
:10060000DA886846ADF800209A885B88ADF8042047
:10061000ADF8023001F0D4FD18B1FC219C20FFF7A9
:10062000B1FF03B05DF804FB382C002038B5054657
:1006300040B309F055FA10B94FF0FF3038BD09F05A
:10064000E5F8B0F5FA7FF7D8104C1148E56000F0F6
:10065000A7F9002323744FF4807323801B23638046
:10066000A38040F20323E3804FF4847323811F238C
:100670006381EFF3108472B600F0E2FC04B962B655
:100680000020DBE76FF01500D8E700BF382C002012
:10069000FD05000010B5002840D1234C237C032B1E
:1006A00039D059B1002A3CD00239052936D8DFE8C3
:1006B00001F0031227352A2D137863700020FFF70D
:1006C00003FF0028B7BF012302236FF00B00237440
:1006D000A8BF237410BD13791BB353790BB31188D2
:1006E000FB291ED853881B3B9BB2E02B19D81A2933
:1006F00017D913689288C4F802300C4B9A80DDE752
:1007000013786372DAE713886381D7E71388FF2BC6
:1007100007D82372D2E74FF0FF30DBE76FF02C00F1
:10072000D8E76FF01500D5E7382C00203A2C0020D0
:10073000F8B50D46064620B319B311F0070420D1D1
:10074000114F3B7C012B02D16FF00B00F8BD032B46
:1007500002D14FF0FF30F9E700F060F80028F8D040
:100760002846FFF7B1FE0028EEDB0CF06DFE3046A8
:10077000214601F0ABFDFFF741FF032320463B7408
:10078000E4E76FF01500E1E7382C002010B5064CC7
:10079000237C032B03D101F0B1FD02F0D7FB0AF05B
:1007A00012FD0020207410BD382C002050B1074BE2
:1007B00003F1140253F8041B934240F8041BF9D1CF
:1007C000002070476FF01500704700BF51630200B2
:1007D00008B501F045FD03490120BDE8084000F0DF
:1007E0005BB900BFA504000008B501F04DFD034949
:1007F0000020BDE8084000F04FB900BF81040000B0
:1008000002680020014B1A60704700BF4C2C00208A
:10081000014B1B68184700BF4C2C0020024B186886
:10082000003818BF012070474C2C00202DE9F743F9
:100830000446264E071D2548376002F09FFB02281C
:10084000054607D12149204609F084FF284603B018
:10085000BDE8F0830428F9D13378072B18D13E2066
:1008600000F04AF878B9F37801A93279684643EA8A
:100870000223ADF800300AF09DF90028DBD05321A7
:100880000820FFF77FFE052000F076F80028EAD068
:100890003146204609F096FFB0F5817F01D37221E1
:1008A000EEE70028C7D094F8008094F80290404604
:1008B00000F022F80028BED0B8F13E0FC6D148465D
:1008C00000F05AF80028C1D1B5E700BF502C002035
:1008D000074B4FF0FF3141F6FF72C3E900120549A3
:1008E0000022C1E900221F21C3E90212704700BFA4
:1008F00000210020942C00203F280CD801380B4BFD
:10090000C0F3421200F01F0053F8223023FA00F027
:1009100000F001007047FF2806D04038044BC0F3B8
:10092000421200F01F00EFE7012070470021002075
:10093000942C0020074B0146006849681A4603C200
:1009400040F48C221A6041F0107242F4FF625A6047
:10095000704700BF002100200246024B006851682A
:1009600003C37047942C00200246024B0068516874
:1009700003C3704708210020431EF428DBB21FBFC9
:10098000064A590903F01F0302EB81021DBF90685C
:10099000D84000F001000020704700BF0021002077
:1009A000014B1860704700BF9C2C002010B5FFF76A
:1009B0008FFF0AF008FD034B04461B6803B19847FC
:1009C000204610BD9C2C00200A8870B595B2C67CCC
:1009D000C2F30E020488023602F118033444C35AEB
:1009E000A4B233442344013BB3FBF4F303FB0422DE
:1009F000438892B29342044B8BBF2B40AB431343CB
:100A00009BB20B8070BD00BF0080FFFF4A1E062A0C
:100A100008B50346084604D84FF4D1711520FFF7F6
:100A2000B1FD094A914202D940F2A311F6E711B98A
:100A300003B1196008BD2BB11B680022C3E9012175
:100A40001A1D1A600430F5E7FAFFFF7F10B5114B4D
:100A500000EB41041A786389B3FBF2F303FB022332
:100A6000013A1A44B2F5706F0279807828BF0023EA
:100A70001A440B18B2FBF0F100FB11215B1AB3FB17
:100A8000F0F100FB113313446FEA43436FEA534321
:100A9000638110BDA02C0020024B03EB8003596042
:100AA000704700BFA02C00202DE9F04F10F0070A7E
:100AB00085B0054604D040F261111720FFF762FDB2
:100AC000524F044607F10C06B146B04657F8043BB6
:100AD0008DF80BA03BB101A898479DF80A30082B70
:100AE00001D9E821E9E79DF80B1041BB05B1316060
:100AF0004F4506F10406E9D1002D6ED00022DFF843
:100B000010910227964689F8002058F827A0013F47
:100B1000BAF1000F54D09AF804609AF802C0FF2E80
:100B20005FD039460023481C37D19C44BCF1FF0FED
:100B30003ED90AB189F800E040F22711BDE79DF8DF
:100B40000AC04B1D60465A0004EB4303022838BF1D
:100B50000220441E40422344BDF808406444CCF1C6
:100B6000000C0340013C04EA0C04B4F5803F01D3BF
:100B7000F821A2E775B19A1A0120326091701480B1
:100B8000D0709DF80C00107101984FEA104C108144
:100B9000A2F806C004FB0134AAE758F8210028B1E6
:100BA00090F804B0B34504BF80781B180139BAE748
:100BB000DBB2E6458AF804303CBF5FFA8CFE0122C6
:100BC0007B1CA2D10AB189F800E0022640F6FF6A38
:100BD00058F82670B7B9013EFAD2601B05B0BDE8DF
:100BE000F08F0023E5E707EB410309F101093846DF
:100BF000A3F80AA0FFF72AFF5FFA89F1BB788B42BE
:100C0000F1D8E8E74FF00009F6E700BFA42C002078
:100C1000A02C002038B54FF6FF7302460380184B16
:100C200003EB81031869A8B184780379B3FBF4F16D
:100C300004FB1133DBB2194600EB4105B5F90A504C
:100C4000002D0EDB0131B1FBF4F504FB1511C9B227
:100C50008B42F1D1002038BD6381BDE838400AF0F5
:100C600095B900EB41046389C3F30E031380C27886
:100C7000002AF1D14FF4D5711720FFF783FC00BF94
:100C8000A02C00201C4B03EB810370B51C690546AA
:100C900044B3030404D54FF4DC711720FFF772FC52
:100CA000014620460AF055F9FF28014604D02046A7
:100CB000BDE870400AF06AB9A078B5FBF0F300FB1C
:100CC0001353DBB219460A1D04EB4206B6F9026063
:100CD000002E09DB0131B1FBF0F200FB1211C9B2A9
:100CE0008B42F0D1002070BD8B4201D00023E37015
:100CF00004EB42025580DAE7A02C0020094B03EBFD
:100D00008103014610B51C6920460AF022F9FF282C
:100D1000014604D02046BDE810400AF037B9002053
:100D200010BD00BFA02C0020F8B5104B074603EB08
:100D3000810301461C6920460AF00BF9FF2805468D
:100D400011D0E288238953EA024606D001462046A4
:100D50000AF01CF901463846B04720462946FFF7FD
:100D600075FE0020F8BD0520FCE700BFA02C002088
:100D700038B50E4B0446827903EB8203186908B933
:100D8000052038BD8278E1799142F9D24B1CE3719C
:100D900000EB41035D89B3F90A30002BF3DBA5803A
:100DA0000AF0F4F820600020EBE700BFA02C002040
:100DB00070B5044610F003000E4603D04E211820F3
:100DC000FFF7E0FBFFF722FE054624B1034831465A
:100DD0000460FFF71BFE284670BD00BFBC2C00203E
:100DE0002DE9F14FDFF870B01E4607460D46DBF8DF
:100DF000003090469DF828A09DF82C901BB96021EA
:100E00001820FFF7BFFB52460921404609F021FF99
:100E10004A4684B20921304609F01BFF81B2DBF853
:100E2000000021440AF069F8386018B9286001B060
:100E3000BDE8F08F04445346414609222C603868CF
:100E400009F0CAFE4B4609223146286801B0BDE8C8
:100E5000F04F09F0C1BE00BFBC2C002070B50E469B
:100E6000044609F009FF0546304609F005FF044B2A
:100E70002A1821461868BDE870400AF063B800BF20
:100E8000BC2C0020024B186808B10AF02AB8704741
:100E9000BC2C00201F2AF8B5044613460ED8920039
:100EA000033222F00303B3F5803F2DD2184DACB1CD
:100EB000A00710D05F210920FFF764FBFF2B4FEA4A
:100EC000420204D9FF339A42A8BF1A46E8E77C2AB7
:100ED000B8BF7C22E4E729706C602B8122F003020A
:100EE00028230127120403FB01F06B680025120C74
:100EF000EEB2B14200D8F8BD14B126181F705E6082
:100F0000104401352833F3E74FF0FF30F3E700BF1B
:100F1000C02C0020154A002170B553681578C8B25E
:100F2000854203D8AB210920FFF72CFB1C4618464D
:100F3000013114F8286B0EB92346F0E700219970AF
:100F400001241289996103F126055C709208D96128
:100F500003F11E04596824F8022FA54243F8041F28
:100F60001144F8D100234361037070BDC02C0020F0
:100F70004B782DE9F04106460C4602F0040702F0DA
:100F8000FB05E3B1A5BBFF23A3707B0804EB570768
:100F90003A7D032A02D1022D18BF0133E218012144
:100FA000117503F10C01002204EB830324F81120D6
:100FB0005B68A27030463360B280BDE8F081002DDE
:100FC000E1D1012301F11E028D6120464B7004F135
:100FD000260C1A4BCD611B8949689B0822F8023FF9
:100FE000944540F8041F1944F8D100236361CAE70F
:100FF000D1F8048014220021A01861700CF0F8FBD5
:101000000E4B1B89B3F5FF7F0FD25A089B1A9BB278
:1010100008EB0301C4F804802384A1606284C4F84F
:101020000C80A3842161E284ADE7B3F5EE6F4FF04D
:10103000FF02EBD940F27263EAE700BFC02C002048
:101040001F4B4FF0FF3000211A6801235360C2F894
:101050000803C2F80015C2F804351A4A1268536032
:10106000C2F80803C2F8001540F6FE71164A174888
:10107000C2F80815B0F90020002A0CDB510902F073
:101080001F02934001F12002114941F82230BFF3C1
:101090004F8FBFF36F8FB0F90030002B09DB5A0977
:1010A000012103F01F03994002F16003084A42F84E
:1010B0002310054B40F6FE72C3F80825704700BFA9
:1010C000A03400209C34002000200850B4340020BC
:1010D00000E100E00A460648192302F8033BC36812
:1010E000C1F803300369536043699360704700BFE0
:1010F000D02C0020024B5A8C02435A845B6A18475A
:10110000D02C0020014B00215B6A1847D02C002016
:1011100010B5154C05F03AFC05F00AF8208DFFF7E4
:10112000F1FF237E63B12246104904F1190052F801
:101130000C3BE36063685360A36893600BF0CAF8EC
:101140000B4B228D93E8030002F0FAFB236B188807
:1011500002F07CFBA36B94F8341094F835009847A8
:10116000002384F83C3010BDD02C0020D5100000A6
:10117000FC2C0020034B93F83C300BB1FFF7C8BFA9
:10118000704700BFD02C002070B51D4C0646256B63
:10119000636C95F88C20236494F8483095F86910B6
:1011A00003EB82002EB9FF2803D195F868308B42FB
:1011B00001D005F09FFA95F88C30D3B1E06C05F0C2
:1011C0009DFC0123E16C84F87030206CD5E93A2352
:1011D000C4E9182304F030FF16B9304605F0D6FCF8
:1011E00095F86810002005F019FD022384F83C30C2
:1011F00070BD206C05F082FC04F09AFFECE700BFA4
:10120000D02C002008B5094B93F83C20022A04D0CA
:1012100040F24F212720FFF7B5F9DA7A42F00102B8
:10122000DA72BDE80840FFF773BF00BFD02C002082
:1012300003280B4B10B5044605D19A6FD278022AC9
:1012400001D1002010BDD86F09F095FD0028F9D11B
:10125000032CF6D001F014FA80F00100C0B2F1E7DF
:10126000D02C00202DE9F043474C85B00546884638
:1012700094F83C30012BDFB204D040F20451272017
:10128000FFF780F9266B02A8A16F09F09EFF96F880
:101290007C309DF808903BB10021042086F87C103A
:1012A000FFF728FF86F87E70B9F1030F25D0BDF84F
:1012B0000C30002B18BF022796F88C3086F882700D
:1012C000ABB10123216B94F8487084F8703091F829
:1012D0006900D6E93A23C4E9182309F093FF0022F4
:1012E00003462A49009202203A4604F0E5FD6DB11A
:1012F00005B0BDE8F043FFF70BBF96F882301BB98D
:10130000A16F0220FFF7F6FE0327D5E7B8F1000F23
:10131000EED0D4F88030284698470028E8D094F8DA
:101320003430002BE4D194F8843023B194F8850054
:10133000FFF77EFF0546606C0AF041FFD4F8883065
:10134000B3B9B4F88C30B3FA83F35B09628C9107BC
:1013500010D5A26F137803F00303032BC8D1D37801
:10136000022BC5D1002005B0BDE8F043FFF70CBF4C
:101370000123EBE7002ABBD1012814BF002303F0AF
:1013800001032B43EED1B3E7D02C0020202D002009
:1013900010B5094CD4F8883023B940F2F641272023
:1013A000FFF7F0F8B4F88C201846216C033208F0EF
:1013B0003FFD206410BD00BFD02C0020064B10B5AF
:1013C00093F83C2002F0FF0422B91C7602F0B0FA38
:1013D000204610BD0C24FBE7D02C00200A4B0B4A02
:1013E00070B506460D461A60FFF7E8FF18B1F42104
:1013F0002720FFF7C7F8064C012104F18E000AF000
:10140000CEFE6664E56470BD482100201C1C00000F
:10141000D02C0020024B012283F89120704700BF9E
:10142000D02C0020F0B585B0754C02AE0A9F86E83E
:10143000030094F83C1001F0FF0511B90AB103B1A3
:1014400027B940F283112720FFF79CF896E80300A4
:1014500004F12C0C84F8915084F8345084F89250A4
:1014600084F8355084F8935084F894506584258529
:10147000C4F880306262A7638CE80300256B05F036
:101480006BF904F055FE95F9700005F5807705F0CD
:10149000BFF96E6AE86905F0C1F9304605F020FB36
:1014A00095F89C0005F0C4F904F150060BF01EFA03
:1014B00095F8692000F17601012005F053FA514BAF
:1014C000186805F013FB2B69E3676B69C4F8983063
:1014D00005F1F0031868083353F8041C3246BB4288
:1014E00003C21646F6D15968474A236BD5F8000166
:1014F00093F8686003C293F88620A2F125010129C0
:1015000003D993F8871025295DD193F83E322BB18A
:10151000012E03D0012B0CBF0126022605F1300756
:10152000314638460AF013FF31460AF08CFCAB8F87
:1015300095F86910834228BF0346384684F89C30EA
:101540000AF0F5FE95F8691095F88C700429B5F845
:10155000446008BF03210AF076FC0FB9043080B262
:10156000864295F88C3028BF0646F6B284F89D6016
:1015700084F8486093B10123D5E93A0184F87030CA
:10158000C4E9180195F8690009F03CFE0022034601
:101590001E4900920220324604F08EFC0120FFF723
:1015A000F3FD002323606360A360B5F8803063809F
:1015B0002B88238095F89C302371EB6E0BB10122B0
:1015C0001A6005B0F0BD203A012A0DD823290DD0AC
:1015D00093F8263113F0010202D19B079ED5022217
:1015E000012E18BF164699E7232905D193F8262125
:1015F00093F861301340EDE7032E08BF04268DE712
:10160000D02C002048210020382D0020202D002043
:1016100008B50C4B93F83C201AB9BDE80840FFF719
:1016200077BD93F83C20022A04D040F231212720D4
:10163000FEF7A8FF1B6BD3F8B001BDE8084005F02A
:1016400079BA00BFD02C0020014B1876704700BF3C
:10165000D02C0020014B93F893007047D02C002031
:10166000024B93F82900C0F3C0007047D02C002033
:10167000014B93F892007047D02C00202DE9F043E5
:10168000314D85B004460F4602A8296C2E6B09F037
:101690009CFD14F00109BDF80C8004F0020428D070
:1016A000002385F89E3094B1FFF772FE0DF102021F
:1016B00001A9D5F8980009F00AFC019809F0EDFBA2
:1016C000012238604146D5F8980009F095FBB9F140
:1016D000000F0BD0D6E93A32013342F10002C6E9DD
:1016E0003A3296F88430013386F8843005B0BDE88C
:1016F000F08395F89E30032B20D801A252F823F0F6
:10170000A7160000111700002B1700002B17000070
:10171000002CEBD0FFF73CFE00224146D5F89800A4
:1017200005B0BDE8F04309F067BB002CDED0D5F86A
:10173000980005B0BDE8F04309F0C5BB40F2A241F6
:101740002720FEF71FFF00BFD02C00202DE9F04F0F
:101750000023A94C89B080468946276BCDE9043324
:1017600094F83C30022B04D040F28B512720FEF736
:1017700009FF216C06A809F028FD97F88C30B8F114
:10178000000F00F027819DF819B0BDF81C60002BF8
:1017900039D004F0DBFCB0BB6EB197F8843003F0B5
:1017A00001035B450BD1012384F83530FFF7B0FC12
:1017B00009B0BDE8F08FA4F88C60002006E0A4F822
:1017C0008C603146D4F8980009F0F6FA238D9DF824
:1017D0001A2043F40073C4F88800238597F88330F7
:1017E00003F001039A4263D0256B95F88230002BF9
:1017F0003DD0022B13D104A9E06F09F086FA38B965
:1018000040F23B41B2E7A4F88C60002ED5D0D8E777
:10181000D5E93832013342F10002C5E938320021FE
:1018200095F87E3085F8821023B1102085F87E105F
:10183000FFF760FC95F87D30A3B14FF0000A85F802
:101840007DA000F007FF10B940F252418EE75146EB
:101850000820FFF74FFCD5E93832013342F100028E
:10186000C5E9383295F88330013385F88330238D0C
:101870004FF0000A43F40063238597F8843003F0A7
:1018800001035B4544D19DF81830256B022B11D81C
:10189000EBB995F88430013385F88430002E37D0C9
:1018A000D5E93A32013342F10002C5E93A322FE07C
:1018B000C246E2E7032BECD1238D0120216C43F4D7
:1018C000805385F87C002385FFF714FCE1E7002EA8
:1018D000DFD0238D95F88C5043F48053238504F09A
:1018E000BBFE042894F89D3006D1002D0CBF1F22AA
:1018F0001B22934228BF1346B34261D3D4F88830E9
:1019000033B194F89130002B73D02020FFF7FAFB0D
:10191000002697F88B308BB1002597F86800D7E93F
:10192000382384F87050C4E9182309F06BFCFB22BB
:10193000034632490420009504F0BEFAB9F1000FC5
:101940005ED1638C94F89210180708D5A26F1378B3
:1019500003F00303032B02D1D378022B50D00129CB
:101960004ED8D4F8803001209847002848D094F809
:101970003430002B44D11EB105A90120FFF77EFEB3
:10198000256B002395F88C208DF80D3094F84830A5
:1019900095F8681003EB8203FF2B03D195F86930AB
:1019A0008B4202D0FF2004F0A5FE95F88230032B75
:1019B00000F21B81DFE813F07B00A600000111019B
:1019C00094F83430012043F0100384F8343006F0EA
:1019D00043FF9DE70BB104F0CDFB94F89230002655
:1019E0000133B24684F89230238D43F4806323851B
:1019F0008FE746468DE700BFD02C0020202D002029
:101A000005F018F9002E4DD14FF00109238D5A062B
:101A100006D44020FFF776FB238D43F04003238557
:101A2000BAF1000F0DD0B4F80720B4F80530134315
:101A3000B7F8802013431EBFB4F809300133A4F86F
:101A40000930B8F1000F00F0DC80B4F80530013344
:101A5000A4F80530002384F892306D4801F0E4FECC
:101A6000049830B109F019FA216B0022027201F0DA
:101A7000C9FA059B33B1216B00221A720C2205981A
:101A800001F08EFAB9F1000F7FF490AE238D1B06A2
:101A90003FF58EAE8020FFF735FB238D43F08003AA
:101AA000238585E605A90320FFF7E8FDACE794F858
:101AB0009C305848ADF80E30A5F8583000F0BAFD0B
:101AC00028B1012385F87D3084F894301CE00DF1B5
:101AD0000D020DF10E01E06F09F0F5F8A06788B175
:101AE00095F8C73073B99DF80D302BB903800121EB
:101AF0008370A06F0AF053FBA36FBDF80E205A70DD
:101B00000123E1E7444BA367D4F878B095F883202C
:101B10009BF80000D20000F0F30300F0030002F095
:101B20000802134395F88420920002F00402134344
:101B30008BF80030FFF77CFB9BF8003023F010039C
:101B400043EA00138BF8003095F88B30A06F002B20
:101B50004ED04378002B4BD0E06C04F0CFFF002236
:101B6000D5E9380184F87020C4E91801E16CA06F50
:101B700005F09EF918B9A16FE06C04F0F1F995F841
:101B800069100120012505F049F8A06F84F89350F1
:101B90000AF015FBA36F84F884001B7884F83C508E
:101BA00003F0030384F88530002E3FF42FAF05A91E
:101BB0000220FFF763FD29E7B5F858300DF10D025B
:101BC0000DF10E01E06FADF80E3009F07CF8A06762
:101BD000002895D140F2F121C8E50E4800F02AFD19
:101BE00000288DD140F2FB21C0E540F20931BDE56E
:101BF00004F084FF04F09CFA0021A06F0BF04BFC72
:101C0000BDE7B4F807300133A4F8073025E700BF7B
:101C1000FC2C0020482D00205E2D00200512000025
:101C20004D170000651200007511000010B501216C
:101C30000020FFF763F8044670B90121FFF722F88E
:101C4000044620B940F293313920FEF79BFC034B48
:101C500093F906100BF0F9F8204610BD702D002006
:101C600008B50AF027F800F051FE00F075FB0AF005
:101C700009FB01F047FE00F083FF0022084B1B2107
:101C80004FF4A4701A60074B98801A805980064858
:101C9000064B186099805A745A829A829A7508BDC8
:101CA0004C210020702D002003021B009C310020DD
:101CB000044B41F64C52C3E902221B221A74FFF76F
:101CC000CFBF00BF9C31002073B5234D0446AB68E5
:101CD0000363224B83610AF073FF064600F02CFB7E
:101CE0008306297C53BF1B236B88AA881A46A4F855
:101CF0005A301B4BA4F85C201B6884F838106687A8
:101D00001BB194F9701020889847164E2046314632
:101D10000AF0BAF801236A8804F110006978E385B3
:101D20000332AB88019192B216F8121C0333009172
:101D30009BB204F11401FFF753F8236923B940F271
:101D4000CC613920FEF71EFC636913B940F2CD6106
:101D5000F7E7002002B070BD9C31002000093D0073
:101D600050210020AE310020F7B504460D460BF09F
:101D70009FF800286DD020460BF076F938B1B5F801
:101D80000130013B7F2B02D9122003B0F0BD204669
:101D90000BF06EF908B90C20F7E720460BF006F8B7
:101DA0000028F8D120460BF041F806460028F2D171
:101DB000204602F0C7FE0028E6D042F21073B5F8C4
:101DC0000170E97820465F430BF03AF920460BF0AA
:101DD00043F9014648B93A46204602F0C1F8B0B38B
:101DE00041F6A5413920FEF7CDFB31460DF1060045
:101DF000FEF710FF054608B90D20C6E7314609F089
:101E0000A6FFBDF80630204629462B800BF03AF994
:101E100020460BF033F988B9216A20460BF030F9DF
:101E200001462846FFF750FF3A462946204602F071
:101E300097F8024620B141F6C841D3E70121F0E707
:101E4000054B9B681BB105F58D712846984700200E
:101E50009BE7422099E700BF702D0020024B1B68D2
:101E600003B118470C2070474C210020034B5A88BF
:101E700002801B7883700020704700BF9C310020D7
:101E800037B5837805461A2B08D8042B04D9144A91
:101E900022FA03F3DB0705D412241AE0292B01D020
:101EA0003B2BF9D12888B0F5706FF5D2694609F05F
:101EB00041FF88B9019B93F8182102F0FF046AB929
:101EC000AA7883F81921FF2283F8182168460AF0BE
:101ED000B4F9204603B030BD0224FAE70C24F8E739
:101EE0002000380438B50278447802F0010302F08B
:101EF000020254EA030101D1112038BDBAB9857834
:101F0000002DF9D0002B18BF002400E01D4620460C
:101F100009F088F90028EFD0284609F083F9002855
:101F2000EAD0054B00209C74DD749882E5E7002B15
:101F3000ECD000242546EAE79C31002013B5008848
:101F4000694609F0F7FE18B10224204602B010BD20
:101F5000019A92F8DC31DBB292F8A820002AF3D182
:101F600013F0FB0FF0D0019890F82A310BB13A240E
:101F7000EBE790F8D23003F0FF04002BF7D190F894
:101F8000C9309B0706D1FF2380F82A3168460AF042
:101F900054F9DAE70249CA300AF09CF9D5E700BFE4
:101FA0005FC80000F7B5077805460C46EF2F0FD83D
:101FB00090F901204378002A0ADB8278900707D144
:101FC00013F010001DD1990603F0030202D51AB1D7
:101FD000122442E0032AFBD01E07F9D42979EA78BB
:101FE000EE7942EA0122697942EA0142A97941EA9D
:101FF00006212E7A41EA06418A42E9D81F2A0FD8E3
:10200000E6E713F0600FE3D103F00702052A05D0DD
:1020100003F00F010D22CA40D107D9D51A07DDD52B
:102020006A7A013A062AD3D8AA7A032AD0D813F0BA
:10203000040102D1023A012A03D8EA7A012AC7D858
:1020400011B9AA7C032AC3D82A7D48B1012ABFD17D
:102050002A7E012ABCD830B91124204603B0F0BD35
:10206000022AF5D1B4E7DB0712D46B782A7D03F09E
:102070001803082B11D1022AEED101213846FEF7B0
:102080003DFE064678B10AF091FEB8B10C24E4E7B3
:1020900000F016F90028E8D1DEE7022AEDD02B7F08
:1020A000002BEAD0D8E701213846FEF7EBFD0646C3
:1020B00040B3154B93F906100AF0C7FE30460AF0FC
:1020C000C8FF29462070E87430460AF00DFFEB7E09
:1020D0000446002BC1D00028BFD10246316B6846B0
:1020E000FEF746FF2246306B012108F0BAFF316B44
:1020F00068460422FEF73CFF22462146306B08F07A
:10210000B0FFAAE70724A8E7702D002030B50279B8
:102110008BB00346042A4FD84088B0F5804F4BD887
:10212000264900248D5C1144ADF800404A798DF8B1
:10213000084042F010028DF8244042EA45028D7AB0
:10214000C97B42EA850242EAC102694602F01F02E7
:102150008DF80020BDF80020ADF809201A888DF810
:102160000E00000A8DF80B20120A8DF80D408DF834
:102170000C208DF80F008DF810405A7BD3F8070023
:102180008DF811205A79059002A88DF812209A79BD
:102190008DF81320B3F80B209B7BADF818208DF839
:1021A0001A307F238DF81B304FF00113CDE907342F
:1021B000FFF7F8FE0BB030BD1220FBE7D42B020076
:1021C0000278034672B1427862B142881A2A09D96C
:1021D00082881A2A06D90068034A106000209B886A
:1021E00093807047122070479C31002002680020C5
:1021F000014B9A60704700BF9C3100200378A3F127
:102200000A02112A9BBF024A002012201374704751
:102210009C31002008B502F07DFC01F08DFF0248E2
:10222000BDE8084002F060BC7C2D00200B4A012371
:1022300010B5144682F8023102F074FC0BF0C2F8BB
:1022400009F036FD04F203112046FFF7C7F800201D
:1022500008F0A4FEBDE8104000F088BE7C2D0020F0
:1022600010B5064C064904F5027009F0E1FB04F5CF
:1022700003700449BDE8104009F0DABB7C2D002052
:10228000542100205C21002010B5094C094904F5B7
:10229000027009F0CDFB04F50370074909F0C8FB93
:1022A00004F504700549BDE8104009F0C1BB00BF4A
:1022B0007C2D0020642100206C210020742100204E
:1022C000014B93F8020170477C2D002010B5074C9C
:1022D00000F028FED4F8080209F0A2FBFFF7E8FCA2
:1022E00000F042FF012384F8143210BD7C2D002041
:1022F000014B93F8140270477C2D002010B5074C59
:10230000D4F80C0209F08CFBD4F8100209F088FB19
:10231000FFF7A6FC002384F8143210BD7C2D0020AA
:10232000C208044900F0070001238340885C03438E
:102330008B54704710210020014BD3E900017047F6
:1023400010210020034B1868C0F30020400040F02B
:10235000010070471021002008B507F057FA00234C
:10236000074A32F82310814205D302EB83029378A7
:10237000044A137008BD01330C2BF2D10023F7E798
:10238000E82B0200912F002010B54468238884F8C0
:102390006711A4F8683194F86830012B06D0022B3D
:1023A00004D04FF461710620FEF7ECF884F86A312E
:1023B00094F86930012B01D0022BF2D184F86B31F3
:1023C00004F5AF70034909F085FF002384F8243138
:1023D00010BD00BFABBA000040680749038800F297
:1023E0005110A0F8093010F8F13CC37210F8F03C1D
:1023F000037309F069BF00BFC1BA00002DE9F043C3
:1024000089460979456885B099F8058001F007018A
:10241000044695F8866008F007084B1E08F1FF3265
:102420000B4002EA0802134395F88720232A3BD188
:1024300005F18707FBB9404609F083FB00283DD032
:1024400095F86830984239D095F8262118EA020F9D
:1024500011D0212E32D095F8612018EA020F2DD12B
:10246000013B01384D4ADBB2C0B2032B105C20D8CF
:10247000D35C834222D995F82431012B53D11E21FC
:102480002046FFF781FF212E51D16368182283F87F
:102490000921092283F8862093F8C230002B3ED10F
:1024A0004FF43171AE2007E0212E75D105F186077A
:1024B000C0E74FF40F710620FEF764F8084609F0F4
:1024C00040FB38B195F86930834203D095F8273145
:1024D0001942D0D0B9F8066003AB284642460093B3
:1024E000334609F03BFB6368054678BB93F824212B
:1024F000012A28D101462046FFF746FF3D70636858
:1025000003F18702974202D1002283F88720636893
:1025100003F1870297423BD1204609F0A4FF002037
:1025200005B0BDE8F083002385F82431ABE7002334
:1025300020463B7009F097FF1821204605B0BDE802
:10254000F04309F0B8BF83F82401D8E7B3F880203E
:10255000A3F83C62013EB61A47F6FD72B6B2964247
:1025600006D92822204683F8A92000F061FFCEE793
:1025700093F887200D2A02D00A3A012A01D82A228C
:10258000F0E7BDF80C20A3F83E2225233B70BEE700
:10259000002283F8C220C2E70220C1E7182C020003
:1025A000044B002283F822204FF6FF729A84DA84CB
:1025B0001A857047922F0020054B9A8C824201BFEA
:1025C000002283F822204FF6FF729A84704700BFE2
:1025D000922F0020014BD884704700BF922F00201B
:1025E000084B4FF6FF72998C914206D193F8222046
:1025F000012A04D0036001207047002303600020FB
:10260000704700BF922F0020064B93F82220012A2A
:102610001BBF0120DA8C002083F8220018BF9A84A7
:10262000704700BF922F0020014B1885704700BFF4
:10263000922F0020064B0246198D988C884205D1B6
:1026400093F8220018B101201360704700207047F2
:10265000922F0020094B998C1A8D914201D00020B5
:1026600070474FF6FF729A8493F82220002AF6D022
:102670000022012083F82220704700BF922F002003
:10268000054B998C1A8D914203BF93F82200B0FA42
:1026900080F0400901207047922F002050B90A4A6B
:1026A0000120134603F8010B0868C2F801008A886C
:1026B0009A807047012805D1034B0A68D8719A6047
:1026C0008A889A81704700BFBC2F002050B90B4BFD
:1026D000187888B1D3F80120B3F805300A600120DA
:1026E0008B807047012806D1044BD87920B19A68B5
:1026F0009B890A60F3E70020704700BFBC2F0020D1
:1027000010B9044B18787047012806BF014BD879DF
:1027100000207047BC2F0020F7B58A8800238DF871
:102720000600ADF8042008680B4A8DF80730014612
:10273000147802F5A872019DD8B2844201D808200D
:1027400007E052F8087F01335668AE4208BF8F4257
:10275000F2D103B0F0BD00BFD02F0020084B0146DE
:10276000002230B55C7803F20113D0B2844201D864
:10277000082004E013F8015F01328D42F5D130BD2D
:10278000D02F0020F0B5254D89B095F8984105F27D
:1027900099116846224607F04BFB2146684609F02E
:1027A000A8FA0446B8B300EB400102A8C9B2FEF78C
:1027B0002FF8631E95F8A1610124DBB295F89811FA
:1027C00005E0721CB2FBF1F001FB1022D6B206F15B
:1027D00020020DEB020010F8202C002AF1D103EBAF
:1027E000430100F8204C06EB460220312A4469449C
:1027F00011F8187C82F8A27111F8177C11F8161CD8
:1028000082F8A37182F8A411013BAA19DBB282F805
:102810009941FF2BD2D109B0F0BD00BFD02F0020CD
:1028200070B5064688B00C46002A4ED0294A92F868
:10283000A131D01890F8991119B9FF212820FDF77E
:10284000A1FE03EB43010133114491F8A251E5705D
:1028500091F8A35191F8A41125716171002180F8BC
:10286000991192F89811B3FBF1F001FB103382F843
:10287000A13192F8C23123B9174902F5DD7009F090
:1028800026FD65790D220021684605F03F0545F0DB
:10289000400565710AF0ACFFE37804AA69468DF83B
:1028A0000F30304623798DF80D508DF80E3004230B
:1028B0000AF008FF9DF81F3023709DF81E306370EA
:1028C0009DF81D30A37008B070BD03216018FDF79E
:1028D0009FFFD6E7D02F002085270000044B5A78B1
:1028E000824286BF1B1893F84A010020704700BF40
:1028F000D02F0020044B5A78824286BF1B1893F8D1
:1029000042010020704700BFD02F0020064B00225C
:102910004FF461711A8083F8C32183F8C421A3F8AE
:10292000C61183F8C2217047D02F0020014BB3F8A5
:10293000C6017047D02F00200A4B30B55C78844226
:102940000ED9184490F802012B3003EBC004A5798E
:102950000D7053F8300010600120A388938030BDC3
:102960000020FCE7D02F00200246074810B590F861
:10297000C34124B1417821B1023003F0B9F92046B6
:1029800010BD0C46FBE700BFD02F00202DE9F74F0C
:102990002F4C9A46804689466378834256D923183D
:1029A00093F8425185F00105F9B193F84A31E3B942
:1029B00045F002070135BAF1000F18D1FA070AD520
:1029C000062104EB0810524601FB0841823001F554
:1029D0008571FFF725FFBB0734D504EB081052467D
:1029E00049460230FFF71CFF2CE02F46E3E794F83E
:1029F000A1614FF0010B002DE0D0A31993F89911BC
:102A0000019399B90092DAB100F07EFB019B06EBCD
:102A10004601009A4FEA102C83F899B1214481F8BD
:102A2000A201000C81F8A3C181F8A401013694F839
:102A30009831013DB6FBF3F103FB1166F6B2DAE71C
:102A400047F00407384603B0BDE8F08F0027F9E7E8
:102A5000D02F0020074B5A78824209D91A1892F8D1
:102A600042212AB9062202FB003000F5857070472A
:102A700000207047D02F0020064B5A78824281BF39
:102A80001B1893F83A01B0FA80F0400998BF002073
:102A9000704700BFD02F002030B5002442F21075DF
:102AA000A0F84040B0F844404C43B4FBF2F4A0F826
:102AB0004440541E05FB0343B3FBF2F3A0F842303D
:102AC000084BB3FBF2F30133A0F84830838F05FBCA
:102AD0000344436B5943B4FBF2F4B1FBF2F184635A
:102AE000416330BD005A6202034B80F870101B68CE
:102AF0000BB10088184770477C2100200B2808B5CF
:102B000004D940F2C7112920FDF73CFD014B33F8F1
:102B1000100008BD1C2C0200074B93F9003018442C
:102B2000142804DC10F17F0F03DB40B2704714203F
:102B300070476FF07E007047983100207F2307B503
:102B40000DF107008DF8073004F05CF803469DF99D
:102B5000070053B1094B5B785B425BB21844142801
:102B600006DC10F17F0F05DB40B203B05DF804FB1B
:102B70001420FAE76FF07E00F7E700BF98310020DD
:102B8000024B00221A705A70704700BF9831002023
:102B90000346407898B1DB783F2B05D8084AD35CD0
:102BA0001B1A58425841704703F10C02D2B2042A52
:102BB00004D8034A134413F8B43CF1E701207047EA
:102BC000342C02003F2908B5C17003D80B4B5B5C65
:102BD000437008BD01F10C03DBB2042B04D8074B92
:102BE0000B4413F8B43CF3E7FF2904D040F23A4118
:102BF0002A20FDF7C7FC0123EAE700BF342C0200BE
:102C00002DE9F347894669461546984609F092F83A
:102C1000044620B9019E35B9012386F88D30012084
:102C200002B0BDE8F08737692946384607F0F5FF5E
:102C300001460028F4D0164B5B88AB4225D33846BA
:102C400008F027F996F88D3082460480002B8470B6
:102C50000CBF4946022109F0A2FA41462A460AF170
:102C6000030007F0E5F82946384608F011F818B9CE
:102C70007E212B20FDF786FC684609F0DEFA019BD9
:102C8000A3F8A24186F88D40C9E72046C8E700BFF7
:102C90009C310020024B987DC04300F0010070473A
:102CA0009C31002083230B70014B1B78CB70704745
:102CB000B43100202DE9F84FD0F804800D46D8F843
:102CC0001460304608F0D7F8044618B9FF211020E8
:102CD000FDF758FC0146304608F0DBF8B4F800B0C8
:102CE00082461FFA8BF9B9F1000F02D140F20311AD
:102CF000EDE71E4BC71C1B688BB9B8F80030A5F870
:102D000006B0AB8000236B729AF8003003F0030327
:102D1000012B0FD0022B0DD040F21D11D7E74A46F0
:102D20003946B8F80000984704460028E5D1204607
:102D3000BDE8F88F30462B7208F0B1F8044610B9A0
:102D40004FF49371C3E7B9F1FB0F02D940F235118B
:102D5000BDE7286810B94FF49B71B8E74A46394679
:102D600007F066F8304607F0F5FFE0E78021002025
:102D70002DE9F3478246894605270026DFF848817A
:102D8000D9F8103053B11B7A1BB980211020FDF700
:102D9000F9FBD9F81040B4B9002071E0D9F804402B
:102DA000237A012BF8D0EFF3108372B6D9F8042000
:102DB0001268C9F8042003B962B6C9F81040237A32
:102DC0000BB9A621E2E7257AEDB227726B1E0B2B19
:102DD0006AD8DFE803F066061C3463693D696969F7
:102DE0006958636813B94FF4D771CFE7204651464D
:102DF00098470420EFF3108272B6237A052BD9B2DC
:102E00005CD12672C9F81060B2B962B614E063688A
:102E100013B940F2B711B9E7514620469847034627
:102E2000ADF80400C0B2C3F30723012B3FD0022B3F
:102E3000E0D10023C9F810300028A1D020E0636859
:102E400013B940F2BF11A1E7204698470020D1E70F
:102E500063680BB9B52199E70B2200248AF800209A
:102E60000122198818698AF80220AAF803108AF842
:102E700005208AF8064007F06DFF0420C9F81040CD
:102E800002B0BDE8F087D8F8003051462046984798
:102E9000034660B10220C9F81060F1E74FF4FB71FE
:102EA00074E740F2F91171E74FF4FE716EE7257295
:102EB0000028E5D1002B7FF463AF6DE711B940F234
:102EC0001D2163E700209FE78421002038B5134CC3
:102ED00014220021201D0AF08BFC0125257404F129
:102EE00008031422002104F11800C4E901330AF098
:102EF0007FFC84F8245004F11C03094AC4E906331A
:102F00000023E362236384F83430C4F83530C4F816
:102F1000393084F83D30136038BD00BFB431002033
:102F20008021002010B5084C2378FF2B04D04FF4EB
:102F3000A0711020FDF726FB06F0AEFE2070BDE864
:102F40001040FFF7C3BF00BF1D21002010B5034C88
:102F5000207806F0BBFEFF23237010BD1D2100204A
:102F6000014B187806F0C2BE1D210020014B024A19
:102F70001A60704784210020B52C000010B5064966
:102F80000446FFF7F5FE28B920460449BDE8104085
:102F9000FFF7EEBE10BD00BFCC310020B8310020DD
:102FA000134610B5027A22B140F299211020FDF7A4
:102FB000E9FA0A4601460248BDE8104009F064B942
:102FC000B8310020044890F834301BB903492C3044
:102FD00009F077B9704700BFB43100207BC2000010
:102FE0000346064890F83E203AB190F83D2022B9B9
:102FF000034900F8353B09F064B97047B43100204B
:10300000A52C00000A4610B5037A23B140F2A12195
:103010001020FDF7B7FA014607230248BDE810402B
:1030200009F032B9CC3100201346027A0AB103729A
:1030300070470A460146014809F026B9B831002018
:103040001B234FF01B128384038482618382C2603E
:10305000038539B94FF4A473034AC3844384C2611E
:10306000C3820261704700BF480148010346084619
:10307000F0B4B3F85420B3F84840B3F85610944273
:10308000B3F84460DF8F28BF1446B3F84C20B3F880
:1030900042508A42DC8728BF0A46B3F84610914264
:1030A000A3F8422038BF1146A64238BF2646A742A1
:1030B000A3F84610A3F844601FD1AA1A18BF012232
:1030C000B3F84A50B3F85040B3F85270A5429E8FFF
:1030D000B3F8401028BF2546B3F84E40BC429D8748
:1030E00028BF3C46AE42A3F8404002D1A14200D1E5
:1030F0002AB10449F0BC09F0EDB80122E0E7F0BCC8
:10310000704700BFDBC20000094AD2E90003434018
:1031100083EAB01181EA43214FEAF343116053601F
:10312000044B58434FEAF06000EB8000704700BF4B
:10313000F4310020BB79379E094AD2E900034340AD
:1031400083EAB01181EA43214FEAF34311605360EF
:10315000044B58434FEAF06000EB8000704700BF1B
:1031600020210020BB79379E10B50A4C0821094860
:10317000FDF74EFBD4E900321343F7D0064CFFF7BE
:10318000DBFF2060FFF7D8FF236860601843F6D0AC
:1031900010BD00BF20210020F4310020174B184A39
:1031A0009A60184A5A60184A1A60184A9A62184A6D
:1031B000DA62184ADA60184A9A61184A1A63184A99
:1031C0001A62184ADA64184A9A64184A5A62184B02
:1031D000184A9A60184A5A62184ADA62184A1A61FA
:1031E000184A5A61184A9A61184A1A63184A9A6426
:1031F000184ADA64184A9A63704700BF8821002091
:103200004BC500007BC50000E7C50000A3C6000059
:10321000F7C60000593500000DC7000091370000C7
:103220003D360000DBC70000F7C700008536000010
:103230009C22002067C50000ADC700002FC700001A
:10324000D3C6000053C70000DD3500007DC8000074
:1032500025C8000017C8000093C70000054B064AA8
:103260009A65064A1A66064B064A9A65064ADA6560
:10327000704700BF88210020DFBB0000FD23000055
:103280009C22002029BB000091BC0000252A034697
:10329000084610B518D8012A19D9023A232A16D897
:1032A000DFE802F01A15252424311533152439449A
:1032B0004815154C24245F5F7575151515151515E2
:1032C00015151515157C878FFF2A00F082804FF4A5
:1032D000A1615120FDF756F91A785B68012A02D1E5
:1032E00093F8103101E093F81931037110BD59685A
:1032F000D1F8BE214260D1F8C22182605B68D3F868
:103300000431C360F2E75B68EAE701461846BDE8AE
:10331000104000F007BA10230371592343710023B2
:1033200083712023C37130230372DFE75B6893F856
:103330000A31DAE7BDE8104000F0E4B95A681B78BA
:103340004BB992F8103133B192F80D31037192F804
:103350000C314371CAE792F80B31037192F80A31CC
:10336000F7E75B68B3F854200271120A4271B3F8B0
:1033700012218271120AC271B3F850200272120A2D
:103380004272B3F8103183721B0AC372AEE75B68F6
:1033900093F82621027193F82731DAE7114A14686D
:1033A000002CA3D001461A4623202346BDE8104036
:1033B00018470C4A1468002C98D001461A4624205D
:1033C000F3E7084A1468002C90D001461A462520DD
:1033D000EBE75B68BDE8104093F83722D3F838126A
:1033E00008F0F1BEB02300203F2803D8064B53F865
:1033F0002000704700F10C03DBB2042B01D8B43875
:10340000F4E70020704700BF882100203F2803D840
:10341000064B53F82000704700F10C03DBB2042B7D
:1034200001D8B438F4E70020704700BF9C22002088
:10343000F7B5456804464FF6FF772E690DF1020196
:103440000DF101023046ADF8027007F03CFC01A915
:10345000304607F05AFC40B1019807F01EFD616844
:1034600000220272FFF7CEFDE8E7044905F1A00053
:1034700003B0BDE8F04008F027BF00BFD9C400008A
:10348000F0B5044685B00D46FF2600F8856C10F8AF
:10349000863CF3B1184F3B781BB148211F20FDF744
:1034A00071F80C21381DFDF7B3F93E70002304F8C4
:1034B000853C07232A4602F8033BD4F80930C5F8B7
:1034C0000330D4F80D305360D4F81130936005B058
:1034D000F0BD01A80C21FDF79BF9A4F51373039A25
:1034E000C3F8042101AB03CB44F88E0C44F88A1CCA
:1034F00004F8866CDAE700BFFC31002010B5054CFB
:1035000023782BB90C21201DFDF782F9FF232370AE
:1035100010BD00BFFC310020024690F8C631BBB997
:1035200090F8C73103F0FF010BB100207047094B41
:1035300018780028F9D01970D9680433C2F804113A
:1035400003CBC2F8BE01C2F8C211FF2382F8C63114
:1035500001207047FC310020426838B592F887306E
:1035600004460D463BB1132B05D0113B0B2B8CBFF2
:103570000120082038BD92F8C83013B9204608F061
:1035800068FF6268D5F80E30C2F8B631D5F812304F
:10359000C2F8BA316368D5F81620C3F800211A883A
:1035A000A3F855226A68C3F85722AA68C3F85B22B9
:1035B0006368AA89A3F85F226368002583F8C6516F
:1035C0006068054900F5137008F07BFE63681522FA
:1035D000284683F88720CDE78134000038B543685A
:1035E000044693F887201C2A04D04FF4DE711F2074
:1035F000FCF7C8FF002293F8C8101D8803F5C970B6
:1036000083F8C72069B10B4983F8C820A3F89C51FF
:1036100083F89B2108F055FE6368002283F8872019
:1036200038BD012283F89B11A3F89C51024983F80D
:103630009E21EFE78FC6000081C6000038B54568BF
:10364000AB6F13F0010417D14A680C4B8968134023
:103650000B4AC5F8D830C3F307630A4043F00803A8
:10366000C5F8DC2085F8DB3008F0F3FEAB6F2046B0
:1036700043F00103AB6738BD0120FCE72FC904F715
:103680006FDB0080406808B590F88630042B24D1A9
:103690004B688A68C0F8D830C3F30763C0F8DC20F1
:1036A00043F0080380F8DB30002380F8C23080F854
:1036B000863090F8743103F0FF020BB1002008BD92
:1036C000038800F5B670427243814B68C3608B6813
:1036D0000349036108F0F5FDF0E70120EFE700BFC3
:1036E00071C70000406890F8743143B9038800F551
:1036F000B670034943811A23437208F0E2BD704754
:1037000071C7000010B50446FEF716FE034A044BCD
:1037100002400B406260A36010BD00BF2FC904F7D8
:103720006FDB008037B50C464568FEF705FE084B99
:10373000084A03400A4095F8D81000930B400192C4
:103740008DF800306B4603CB6060A16003B030BDE4
:103750002FC904F76FDB008038B5DB04154604D5AC
:10376000037D13B10023436338BD446B01344463CC
:1037700009F065F8836B9C42F6D300230349436349
:103780002846BDE8384008F0A5BD00BFCDC7000001
:1037900038B54468054694F88630012B02D0A36FF3
:1037A00098073CD494F8C9309A0715D40A79D807F9
:1037B00084F8D320B1F80520A4F8D420B1F807206C
:1037C000A4F8D62043F0020284F8C9200FD5154989
:1037D00004F1CA0008F07EFD94F8C930D90711D46D
:1037E000A36F9A0708D555214020FCF7CBFE94F82B
:1037F0002A31002BEBD1EFE743F002032846A36701
:1038000008F027FE94F88630012B4FF0000301D01A
:10381000002038BD84F8863084F8C230F8E70120F3
:10382000F7E700BF5FC8000070B545680446FFF7C2
:1038300085F9054B014685F885001B681BB12046BC
:10384000BDE87040184770BDB8230020024B1B68CC
:1038500003B11847704700BFB4230020F0B51F4DD7
:1038600000242B7814709BB1013B6D68DBB21E1BEA
:10387000012E0FDC05EBC40655F8347076688E42D5
:1038800008BF874227D0B84271EB060612D21470E7
:103890000020F0BD1E197710C6F3470655F837C053
:1038A00005EBC70E8445DEF804708F412CBF33460C
:1038B0003446DCE705EBC30455F8335064688C42AA
:1038C00008BF854206D0A84271EB040428BF01332B
:1038D0001370DDE71C4601201470DAE71C3200206B
:1038E00010F0070208B503D063214820FCF74AFE18
:1038F00018B1034B197258601A70C80008BD00BF98
:103900001C320020014B00221A7070471C3200202C
:103910000A460648822302F8033B0368C1F80330D5
:103920004368536083689360704700BF253200206E
:1039300016220021014809F05BBF00BF253200209C
:1039400082B002AB03E903000D48437DB3B15306D7
:1039500014D50A880C30B1F8803020F80C2CD1F83E
:10396000182220F80A3C40F8082CD1F81C220549FE
:1039700040F8042C022202B0FFF756BB02B0704799
:103980002532002011390000094B53F8203003F58F
:10399000224370B5B13316464FF47A720C46B3FB2E
:1039A000F2F5344403F074FA2C44204470BD00BF97
:1039B000702D02002DE9F04F8BB0044698460F465B
:1039C000039290F8699008F06EF8824694F87300BC
:1039D000FFF794F8824408F089FF94F8873000F1EB
:1039E0004D061FFA8AFA0293039B83BB94F8DC31DD
:1039F000032B2CD1029B0D2B29D1B4F83C32BB42B6
:103A000025D1D4F8E4312046B4F8B421C4F8D0313B
:103A1000A369C4F8D431B4F82A321344C4F8D831B5
:103A200002F01CF9D4E99023A262B4F83E22A3610B
:103A3000A285D4F84822226241F64B5293428CBFB1
:103A40000023012384F87230022384F8DC31B4F8B7
:103A5000285204F5FC73B4F880E07D1B0493A7EBB7
:103A60000E0E2DB20FFA8EFE002D10DA7546D4E937
:103A70008423C4E98823012294F8DC31032B00F26B
:103A80006C81DFE813F00600FB0055001D01424683
:103A9000F2E70121002008F00CFA8146A06A5146A5
:103AA000484405F067FE5146C4F8E001A06905F0FE
:103AB00061FE07A9C4F8E40108A803F0CBF8079B4E
:103AC0000093DDE90823D4E9880104F0C6FE8346AB
:103AD000204608F023FFA26AD4F82C3294F869003B
:103AE000D51803F0DDF9D4F8E01100F52240203DAF
:103AF0004FF47A73B13032466D1A3031AD1BB0FBE2
:103B0000F3F04D44A38DA5EB0B0503EB41012D1AFA
:103B100094F86900FFF738FFD4F82C32C4F8E801B4
:103B2000EB1ACC2B59D840F2FC413020FCF72AFD8F
:103B3000A36A5146D4F8D401184405F01BFE51463F
:103B4000C4F8E001A06905F015FEC4F8E4012046C0
:103B500008F0E4FEA36AD4F8D4511D44B4F8B4319B
:103B6000002B40F08780B8F1000F00F0838094F8BC
:103B7000690003F095F9D4F8E011D4F8183200F593
:103B800022406D1A94F86920B130203D1D448D4BC0
:103B900053F822204FF47A7302F2E732D4E9849A80
:103BA000B2FBF3F2A5EB0905B0FBF3F01544AD1B36
:103BB0002D1AD4F8D821D4F8D03194F8690002FB3A
:103BC0000313A18D3246303301EB4301FFF7DCFED6
:103BD0000123C4F8E80184F8DC31A369D4F8E421B6
:103BE000A93B9B1A9E1B0023864284F8F831D4E936
:103BF000883228BF064604F130005B19C4F8B06172
:103C000042F10002C4E9823208F08FFB3044A4F88C
:103C10002872C4F8FC01D4E98223C4E98823B4F8EB
:103C2000A031DB1B1BB2002BD4BF002201225200AB
:103C300084F80022029A0D2A00F09280B8F1000F59
:103C400040F0918094F8DC31002B00F0A880A1694D
:103C500004F5FC70D4F8E431C91A08F0C4F880B255
:103C6000002800F09C80149B03B1188001200BB049
:103C7000BDE8F08FD4F8E0116D1A9AE7D4F8E4218A
:103C8000A369B4F8B4C19B1AD4F8D811F444D4F899
:103C9000D0015D43D4F8E031ACEB010C30330CF1D2
:103CA000FF3C00FB0133A18D94F8690002FB0C334B
:103CB000324601EB4301FFF767FEC4F8E8018CE7E9
:103CC000D4F8E4A1A369A3EB0A035D4394F886301A
:103CD000252B03D094F88730252B09D1B4F83C323A
:103CE000FB1A1B0404D494F83F32002B18BF9946EA
:103CF000B4F8B4C142B3BCF1000F25D1D4E9862396
:103D0000D4E98401904271EB030302D34FF4AA611A
:103D10000BE794F869104FF47A7B2A4B203A53F85A
:103D20002130D4E98401CDE9040103F2E73103F540
:103D300022430498B133121AB1FBFBF1B3FBFBF33E
:103D40000A44D21A921B15440CEB0E013246484627
:103D50000AFB01F130314900ADE74FF4AD61E4E613
:103D6000B8F1000F1BD0B4F8C80110B3B4F8CA11F1
:103D700094F8CC214D1CA4F8CA1101FB02229042F8
:103D80000DDD002B0BDD0023A4F8CA5184F80032AE
:103D9000FFF7BAF900F00700013084F8CC0104F510
:103DA000FC7194F8F70104F0F7FB20B940F2B1512F
:103DB000BBE60146DCE7039B83F0010384F8F431A2
:103DC000002054E7702D0200F7B5044618B9E2212F
:103DD0003020FCF7D7FB072900F2BC80DFE801F0B8
:103DE0000484464641BA33B704F0CCFCC4E9400130
:103DF000204600F0CFFFD4F8F400A43804F018FDFA
:103E000010B940F27B21E3E7204609F02DF9054681
:103E1000F8B90146204609F050F800F1AE06D4F892
:103E2000F400B04209D2301A0321192838BF1920F2
:103E300004F019FC051E18BF0125C4F8F4602046E3
:103E400009F02CF93DB1204603B0BDE8F04009F07F
:103E500026B90025F3E7D4E94023C4E93A2303B0A7
:103E6000F0BD03B0BDE8F04002F000BF09F030F84B
:103E7000002307460E4684F8F93004F0E7FA0722DB
:103E8000A7FB023502FB0655D4F8EC200192D4F8CA
:103E9000E8209B18019A45EB0205D4F8CC2032B1FA
:103EA00057EA060203D0984271EB050216D20222AD
:103EB00084F8F820D4F80821D4F80CC1121A6CEB5D
:103EC000010C94F818E1BEF1000F09D1012A7CF130
:103ED000000E11DA204600F065FF05E00122E7E759
:103EE000012A7CF1000CF5DB94F8C80004F0C6FA56
:103EF000002384F81031B2E7984271EB050E0ED220
:103F00003E430CD01B1A65EB01019A427CEB010089
:103F100005DB012B71F10000A4BF1A468C460F4946
:103F2000012394F8C800914284F811314FF0000346
:103F300084F8F03073EB0C03B8BF0A4604F1F001CB
:103F400004F096FC00288AD140F2EF6140E74FF47C
:103F500080713DE74FF482713AE700BF0040420FA5
:103F60002DE9F04104460E46154690F8103103F055
:103F7000FF071BB10C273846BDE8F08101464748D2
:103F800004F08CFA20288046F4D05722394604F1F8
:103F9000C90009F02DFC84F8C880C4F8CC60FF2368
:103FA00084F8103136B1FFF7C7F800F00700013090
:103FB00086F8CC0102234FF00008A4F8F83084F80A
:103FC000F08005F02DFC00F14906204609F04CF880
:103FD0000146B6B2002839D007F065FD00F5CD6185
:103FE000284689B205F0C6FB2844AE3DC4F8F4006B
:103FF00004F02CFA3018A4F8268041F10001C4E93D
:104000004001012084F8D00009F0E5F82D1AC4F829
:10401000D4504FF0FF356FF0004194F8C800D4E958
:104020004023C4E94251002504F1F001C4E93823DA
:10403000C4E93A2384F8115142F2107204F018FCDA
:1040400038BB40F2EB113020FCF79CFA2046DFF839
:10405000508008F032FFAE30C4F8F400B8F8000029
:1040600048B1E08C38B1FFF767F8B8F80030B0FB22
:10407000F3F202FB1300064404F0E8F9361841F1AC
:104080000001C4E94061002DC3D0AD1941F1000128
:10409000C3E72946204609F004F86CE7C93D000053
:1040A00048320020F0B5002385B0CDE9003301236C
:1040B0008DF806306846FCF75BFE70B11D4E01239B
:1040C0000027B370CDE9027702A8FCF751FE054640
:1040D000C8B10023B37005B0F0BD009808F039FDF9
:1040E000E8E790F8F70104F089FA94F8F70104F092
:1040F0002FFB94F8F70184F8DC5104F0BFF920237A
:1041000084F8F731DEE7029B002BDDD093F8F7212E
:10411000202AD9D018884FF6FF739842D9D0294663
:10412000FCF7ECFD04460028DBD140F237113020CB
:10413000FCF728FA48320020044B0022DA709A700B
:1041400042F210721A80FFF7ADBF00BF4832002064
:10415000014BD870704700BF4832002008B502F00C
:1041600081FA044B5A6882422ABF9878002080F076
:10417000010008BD48320020F7B5044606297AD868
:10418000DFE801F0042715252B3074003B4B9B78AA
:1041900003F0FF025BB900920123B0F8A411FFF70E
:1041A00009FC38B140F21E713020FCF7EBF9042312
:1041B00084F8DC3102F040FC04F04BF90023B4F841
:1041C0008020A4F82A32A4F8F22184F8F53103B053
:1041D000F0BD032380F8DC31F9E709F052F9C4E9B6
:1041E0008601F4E790F8690008F088FB7730D4F88E
:1041F000E4319528A569214F8CBF0020C0F19600BD
:10420000C218954288BFED1AFB7894BF00252D1A7D
:104210001BB9236B9D4228BF1D46D4F8B06104F141
:10422000300008F082F80644022004F087FA0221E8
:10423000AD1B25EAE575854228BF0546284604F0F2
:1042400012FA00B92E4401234FF480723146204601
:1042500008F0C1F8D4F8B0317860A069184404F0CF
:10426000E7FA0028B3D140F2A3319DE703B0BDE8DF
:10427000F04008F053BB40F2ED7195E74832002062
:104280002DE970430C4615466ABB0246174994F85F
:10429000C80004F025F920B940F2FD713020FCF788
:1042A00071F902F0DFF984F8D0500646D4E940896C
:1042B00084F810510121D4F8CC0007F048FDD4F85F
:1042C000CC00C0E9848994F8C830C0F82C6280F82A
:1042D000F731C0E9888908F011FC02F0ADFBBDE8B8
:1042E000704304F0B6B840F61801D7E737C90000AC
:1042F000014B1880704700BF483200200346074A30
:104300001068D3F85120C0F80320B3F85520A0F866
:10431000072093F8501007F0C7BE00BF50320020AE
:1043200070B504460E461346407F6588324615F048
:10433000040118BF04F15F01FEF728FB41070546A1
:1043400021D4C2070BD50123607F84F85030FEF7DB
:1043500081FB0368C4F851308388A4F85530AB075B
:1043600001D4012070BD094B01211868D4F85F30D9
:1043700084F85E10C0F80930B4F86330A0F80D304E
:1043800007F09BFEEDE70020ECE700BF5032002075
:1043900038B5C38D04460F4D0133C3F30E03C385F7
:1043A000AB7C2BB102F020FC01F000FD0023AB74CC
:1043B00000232B7194F871302BB101212046BDE808
:1043C000384008F071BC637C13B1E28D9A42F4D29C
:1043D0000021F3E75032002010B5094C2379012B5E
:1043E00002D02379022B05D1A37C1BB102F0FCFB88
:1043F00001F0DCFCE069BDE81040FFF7C9BF00BF79
:104400005032002070B5294C2379012B07D0237935
:10441000022B04D040F65C412D20FCF7B3F8A0B984
:104420000125A37C1BB102F0DFFB01F0BFFC002DD6
:104430003AD0E06908F0B2FB002830D002F0A6FACA
:10444000236ABDE870409B6818472168E26911F84B
:10445000095B02F1510392F85020E80907F02BFCA8
:104460000028DDD00021206807F04CFE0028D7D0BE
:104470002379E069012B05D02379022B02D040F685
:104480003541C9E7237905F00F01226A03F1804322
:104490005269013B52F8233098470546C1E7E0696D
:1044A000BDE87040FFF774BF70BD00BF5032002000
:1044B0000346074AD06903B909B9FFF769BF137901
:1044C000126A03F180431269033B52F82330184704
:1044D0005032002003292DE9F043054685B01746E8
:1044E00007D14388980723D40024204605B0BDE8AF
:1044F000F083428890F87030D107DBB2F4D5002BFE
:10450000F2D14FF00108DFF8D49099F81260C6B1EB
:1045100007F006FC0828387016D002AA0DF1070132
:10452000FEF70AFA38B940F6D4612D20FCF72AF8D4
:104530004FF00208E7E702A99DF8070008F0CCF960
:1045400006463B78082B08D1D9F8001011F8030B68
:10455000C0F3801008F0C0F90646D9F8001005F144
:10456000580395F8572011F8030BC0F3801007F09B
:10457000A2FBD9F80010044611F8030BC0F3801019
:1045800007F0C4FB8146FEF777FA40B1B9F1080F96
:104590001BD04846FEF7A2F980F00103D8B23A7862
:1045A000082A14D01CB96C7FA21A544254416A885C
:1045B00053079AD4002897D176B9EC7C444518BFAC
:1045C000002C0CBF012400248FE70020E7E780F0D7
:1045D00001022240D4B2EAE7344686E75032002096
:1045E0002DE9F04F85B00823052104460DF107029F
:1045F0008DF80730FFF76EFF064620B900263046DB
:1046000005B0BDE8F08F744F396807F11403FA7CE8
:1046100011F8030BC0F3801007F04DFB8046002813
:10462000ECD13B6840F2E249216A184691F88E20AD
:1046300010F8035B02EA55121D4602F0010281F8F0
:104640008E20D3F80320C1F803208288A1F8072028
:1046500015F81F1B226AC1F38011917002A9D3F8CB
:104660001F00029028790871D3F80F00D061587D9F
:104670001D7D000440EA0520DD7C28435062B3F82C
:10468000190082F8728009FB00F090619D7DC5EBF6
:10469000451005EB800505EB85056D009585B3F8A4
:1046A000170009FB00F09062B3F81B001084B3F808
:1046B0001D00508493F8243003F01F005B0982F83A
:1046C0009A0082F87330256A94F912A005F18E00E1
:1046D00007F045FC40F20113A5F868304FF0FF0BDE
:1046E00085F86AB0414605F13000FEF7A9FC514655
:1046F0002846FEF7F9F9236A84F87B8004F18601E5
:104700001A8884F899B0A4F87C204FF6FF729DF8BF
:104710000700A4F89A209A69B2FBF9F2A4F8922053
:104720001A8CA4F894205A8CA4F8962093F873203D
:1047300084F89820227F5AB394F85020012A27D178
:1047400094F8562002F0C002402A21D1D4F851201A
:10475000C4F88620B4F855208A8008289A7803F196
:10476000030504F18C0184F87F2004F18002D3F862
:10477000033027D0C4F88C30AB888B8004F17F01E4
:10478000FEF7DAF840B940F6BB312D20FBF7FAFE10
:104790000022C4F88620DFE794F87F3043F002035C
:1047A00084F87F3004F172000C4907F08AFD0C4B4D
:1047B0000022206A1B683A71002B3FF420AF21468B
:1047C00098471CE7C4F88030AB8893800023C4F876
:1047D0008C308B80E6E700BF50320020D1CD000046
:1047E000C0230020032973B5044604D0052956D000
:1047F000012002B070BD08230DF107028DF80730CB
:10480000FFF768FE0028F3D0237C294D03B39DF801
:10481000070094F8BE30DBB92378082804F1C10200
:1048200084F8BF302CD004F1C001FEF785F820B920
:1048300040F64A712D20FBF7A5FE94F8C03043F0F6
:10484000020384F8C0301B4904F1B60007F039FDBB
:104850002B680622042620465A701E70FFF74EFD74
:10486000E16B94F84020286807F03DFC28682E7121
:1048700002F044F90021286808F00DFE0020B8E796
:104880002868034613F8031BC1F3801184F8C01095
:10489000D0F80310C4F8C1109B889380D3E7064B6F
:1048A0001B68002BEAD0984780F00100C0B2A0E757
:1048B00050320020B9CD0000BC230020F8B50446DA
:1048C0000F4619B300F12805284608F061FCA0B98D
:1048D00063881A072ED5284608F06FFC064628463E
:1048E00008F056FC301AC0B208F075FC494A9368CB
:1048F00003442846936008F02AFC284608F02CFC64
:1049000001F096FF2179252001F0F4FE414E0023AD
:1049100094F85E203068037043706388103B0D2B61
:1049200068D8DFE803F063675F0C67446767676711
:10493000676767442046BDE8F840FFF729BD0623B6
:104940004370202303702046FFF7D8FC638823F0D0
:1049500008039BB2152B05D094F83820616B3068A2
:1049600007F0B2FB306802F0C9F80021306808F0A7
:1049700092FD032321790020337101F083FF054666
:1049800007B9F06063881B0704D508F021FC0544D3
:10499000C4F8D8506388103B0D2B36D8DFE803F0FD
:1049A00038352F2F352F353535353535352F0C2307
:1049B00021214370034603F8091B52B1D4F85F204C
:1049C0000121C0F80920B4F863209A8007F075FB34
:1049D000B9E7A26DC0F80920B4F85C209A8094F879
:1049E0005710F3E7062303704370ACE7022303700C
:1049F0000623F9E740F236612D20FBF7C3FD21794C
:104A00000120BDE8F84002F009B940F6CF41F3E7D4
:104A1000F8BD00BF5032002038B543880446102B43
:104A200004D10121BDE83840FFF748BF0B4DAB7CF6
:104A300023B101F08FF9402002F0CAF8286802F093
:104A40005DF8608810F0040002D1217902F0E6F8E8
:104A5000002002F09BF801232B7138BD503200205A
:104A6000024B0121D869FFF729BF00BF5032002057
:104A700010B5134CA37C1BB102F0B6F801F096F907
:104A8000E06908F08BF870B12379012B10D12379FC
:104A9000226A03F18043E069D268013BBDE810401F
:104AA00052F823301847E069BDE81040FFF770BCAA
:104AB0002379022BEBD040F65E312D20FBF762FD0F
:104AC00050320020074810B5037903F0FF0433B9D2
:104AD00018222146043008F08BFE204610BD0C241D
:104AE000FBE700BF5032002010B50023084C2371B3
:104AF0002060FFF7E7FF20B140F2EF212D20FBF708
:104B000041FD236A13B940F2F221F7E710BD00BF5F
:104B100050320020014B024A1A6270475032002086
:104B2000E84D0000034B044A1A60044B044A1A6023
:104B3000704700BFBC230020E1450000C0230020D7
:104B400081420000F8B5057D0446AF1EFFB2002D7E
:104B50003AD0012F2DD800F1580190F8570007F0F6
:104B6000D5F80828064624D0FDF7C4FE10BB023D48
:104B700018BF0125012F84F8505066778CBF00279D
:104B800001272777FDF7D2FE054603F05FFC0022E0
:104B9000164B84F85E20E5FB0301C4E912011146BF
:104BA0002046FFF7BDFB70B940F27A412D20FBF79C
:104BB000E9FC0826022D09D104F151010020FDF77E
:104BC00085FD80B90020F8BD0826F5E7E37E002BBF
:104BD000F8D0D4F815300125C4F85130B4F81930A4
:104BE000A4F85530C6E70025C4E700BF40420F00D7
:104BF000F0B5464E85B00446327902F0FF0312B993
:104C00000278FF2A04D140F6B9112D20FBF7BAFC37
:104C10003382B3607371B37180F871303C4B684676
:104C200004F1280500933B4B01933B4B0293336AFD
:104C30005B68039301F05AFF01F08EFD01F0D4FF91
:104C400001F0B4F8354801F0E9FD354801F048FFBE
:104C5000284608F07CFA284608F07EFA01F0E8FDC4
:104C60002179252001F046FD94F9120001F0D0FDD4
:104C700004F13401206B06F012FA074604F13C01FE
:104C8000206B06F033FA0546E7B194F82430CBB137
:104C9000B4F92E50ED43ED0F237F13B963885B0702
:104CA00009D56FF00043D4E912129A4208BFB1F15E
:104CB000FF3F0ED1A5B930680330FDF755FEB07443
:104CC00005B0F0BD002DE7D094F82550002DDFD1C0
:104CD000E2E703F0BBFBD4E9122390429941E9D308
:104CE000012229462046FFF71BFB50B1FDF71EFEAF
:104CF000054603F0ABFB0B4BE5FB0301C4E91201D6
:104D0000D9E7002DD7D040F6F6117EE750320020CB
:104D1000714A000005440000B1440000D6BE898EEF
:104D20005555550040420F0073B50446FFF760FF2C
:104D300000212046FFF7C2FDA36E0BB101221A60CD
:104D40006388DB0720D50023104E256ACDE90033A8
:104D5000FF23F3746846FCF70BF8A8B9009CA54242
:104D6000F8D005F10A036A7A04F10A01607A06F0C4
:104D7000A2FF0028EED0A378F374D4F80300044B0C
:104D80007061B4F807209A8002B070BD50320020E4
:104D900064320020024BD8611B6A1B68184700BFB1
:104DA0005032002043881B0710B504460ED5036A15
:104DB0003C220849723042721B884381FF2380F8ED
:104DC00027304FF6FF73038507F07BFAFF2384F843
:104DD000713010BDD1CD000023CE0000194A000073
:104DE00029CE0000E5470000294D0000D94300000E
:104DF000614A0000D84D0000DC4D0000E44D000089
:104E00000138022808B503D9C3212F20FBF7BAFBCC
:104E100013290A4B05D811290CD8102907D0D12104
:104E2000F3E71529FBD103EB4003D88801E033F801
:104E3000100008BD03EB40039889FAE7BA2C020082
:104E40000C4A0346117889B9906833B9B0F8581004
:104E5000828F91420AD8FFF781B993891B0707D542
:104E600090F88800073818BF01207047002070476D
:104E700001207047743200202D4AF8B5034694890A
:104E800090681C43402B948104D10421BDE8F84074
:104E9000FFF772B9802B01D10521F7E703F0030476
:104EA000032C04D140F6D6213120FBF76BFB13F025
:104EB000020418BF1161DD0705D55161C9780629C3
:104EC0000DD00B2917D02CB11169C97805291DD037
:104ED0000B2927D09B0644BF08231370F8BD90F818
:104EE00087101829EFD1002600270121C0E9386773
:104EF00080F88B10E7E790F88710122901BF002196
:104F000080F88B10012180F8C810DCE790F887103A
:104F10001629DFD1002400250121C0E93A4580F897
:104F20008C10D7E790F887101129D3D10021F6E72C
:104F30007432002037B5044601A8FDF751FB20B9B3
:104F400040F6BB013120FBF71DFB22220021019816
:104F500008F04EFC019D0321284607F020F92B782C
:104F6000214623F010032B700198FDF72BFE2246FB
:104F700001990548FEF78AF9FDF746FB10B940F69E
:104F8000C501DFE703B030BD78320020264B70B595
:104F90009C6894F83E5294F83F62002D3DD194F8FD
:104FA0006810002E3BD194F8693084F8681084F8BA
:104FB0006930FF2384F86A301C4B1B680BB1204614
:104FC000984794F82431012B01D0354303D00021B8
:104FD0001748FDF7D9F904F13006304607F0A5F976
:104FE00004F2351105462046FEF740F8204606211A
:104FF000FFF7C2F8304607F098F98542044610D210
:1050000003F092FB0146601B192838BF192003F0FA
:105010002AFBB0FA80F0400970BD2946C1E733464B
:10502000C3E70120F8E700BF74320020D02300203E
:1050300078320020154B1B6910B51979436893F835
:105040008620092A09D193F809218A4205D1002234
:1050500083F8862083F8C22010BD9A6F12F00804EE
:1050600006D022F00802BDE810409A6707F0FBB9AD
:10507000FF2905D1332283F8344283F88620EBE7F9
:1050800040F25C513120FBF77DFA00BF7432002002
:10509000F8B50D790446A5F10E03DBB2152B0DD83A
:1050A000012640F2512206FA03F7174208D142685E
:1050B000152B92F8862028D0082B08D00020F8BDA8
:1050C000024631462846BDE8F84008F088B8212A53
:1050D00001D02E2AF2D1204607F0B2F9636893F886
:1050E0008720222AEAD093F8D9201A21204622F0DC
:1050F000010283F8D920626892F8D93023F00803BE
:1051000082F8D930FDF740F9D8E7282AD6D1034BE9
:105110001B68002BD2D09847D0E700BFCC230020DB
:105120002DE9F041A0F10E0400291346E4B208BFB6
:105130001F21172C0AD8012640F25127A6403E42D3
:1051400007D116F4600F23D1082C07D00020BDE84A
:10515000F0810021BDE8F04108F041B8546894F8AE
:105160008620212A08D11846FDF70EF9002384F87D
:10517000863084F8C230E9E72E2AE7D194F88720F8
:10518000A2F120010629F1D92E2AEFD02A21EAE73F
:10519000054A1468002CD9D00A4601461846234611
:1051A000BDE8F041184700BFC82300202DE9F743B0
:1051B0007F4D0646AC68002840F0A480AB891A07F2
:1051C00024D594F80E31FE2B04D140F2DF5131206A
:1051D000FBF7D8F9FE2384F80E3194F887301A2BA8
:1051E00006D184F8C700281D07F03DF984F88760D0
:1051F00094F88630202B33D0332B3FD094F888306E
:10520000072B02BF02232B7684F80E31AB89DB0714
:105210003DD4AB895F0700F1AB80990740F1B280C4
:10522000AB68012283F80F212B69DF780D2F00F086
:10523000A680112F00F0B180072F00F0B080384613
:10524000FEF7E4F80346002840F09A80FF2F40F074
:10525000A880AA68332182F8340282F8861091E08F
:1052600094F88730A3F12002062A05D92E2B03D00B
:10527000212384F88630C1E72E23FAE7012384F83E
:105280003532002384F8863084F8C230B6E7D5F88A
:105290000890D5F8148099F88730113B0B2B0BD868
:1052A00098F80330023BDBB2092B7DD840F2333251
:1052B00022FA03F3D80777D54046FDF769FC98F842
:1052C000037020B939463B4807F0F5F849E0012F53
:1052D00001D9162F30D199F8860007F0D9F840B1DE
:1052E00099F88630202B04D0212B07D12E2389F862
:1052F00086303846FEF778F803462AE0162F14BFAA
:10530000022620262B781B0712D594F88730113BF4
:105310000B2B4BD9002501A903200195FCF7AEF911
:10532000019B2BB11D720C2221460198FDF738FE1E
:10533000304603B0BDE8F083112F0ED005D8072FFB
:1053400014D00D2FD5D11C4B08E0142FD1D11B4BFD
:105350001B681BB998F80310B5E7194B6969154824
:10536000984700283FF455AF0646CBE7154BF5E7C5
:1053700094F88820062A04BF01222A764DE7124BB2
:105380000C489847AB89DA06BCD594F887300A2BCD
:10539000B8D10B2384F88730B4E70C4BF0E70C4B03
:1053A000EEE740F2D25112E70826ABE70820C0E74B
:1053B00074320020783200201DD30000C423002066
:1053C00065D3000091500000ADD20000CBD20000A8
:1053D000355000002DE9F74FB64F0E468046B9898B
:1053E000BC688D0504F1780A54BFB4F8B8200023D6
:1053F000504653BF0132A4F8B83084F8AF31A4F856
:10540000B82007F07AFF30B10B4604F596722146BA
:105410005046FEF7A1F9BB8903F4C0632BB194F8A1
:105420008A30002B47D0032B4CD094F88A20BB89BC
:10543000012A04D1180544BF022284F88A20B8F159
:10544000000F40F09580590657BFB4F8C821424676
:10545000013292B2A4F8C82103F00A020A2A0DD13F
:105460003A69D278022A09D123F008033046BB8179
:10547000FFF79CFE30430823C6B2BB813046FFF7DE
:1054800095FEBD68304395F80E31C6B2FE2B3CD177
:10549000DEBB95F88830063B012B36D995F81831DC
:1054A000ABB195F8193101220221A5F8BC6085F84D
:1054B000103128462BE1012184F88A102046FEF79E
:1054C0005BFEB2E70223012184F88A30F6E795F803
:1054D0008790A9F110095FFA89F9B9F10C0F40F230
:1054E000ED80AB6FDA0702D532460921E1E7980774
:1054F00040F1938032460C21284607F0BEFE95F815
:10550000C93043F0010385F8C930B4F8A83194F8E4
:10551000AC510133A4F8A831002D00F0FD81FCF757
:105520009FF810B10023A4F8A83194F88A1001293B
:1055300040F2278294F88830072B40F00582B4F8B7
:10554000B830022B40F21D82B4F8BA500135ADB22A
:10555000B4F880302B44A4F8A03194F8AD31002B7E
:1055600000F013820123B4F880201344A4F8A4317E
:10557000BB89BD685B0657BFB5F8B4310023B5F8E9
:10558000A6219B1858BF9BB2A5F8B43195F81831E5
:1055900023B995F88830063B012B06D8B5F8BC3006
:1055A000B5F8A6211344A5F8BC3095F8C21031B166
:1055B000B5F8BE30B5F8A6211344A5F8BE3095F96C
:1055C000C620002AC1BFB5F8C430B5F8A6011B1823
:1055D000A5F8C43095F8A93063B9B8F1000F40F0D0
:1055E00065823B7E022B40F0178295F81031062B26
:1055F00018BF162395F8A82022B92F4885F8A9309E
:10560000FDF716FF284607F0E6FE002384F8AB31CD
:1056100003B0BDE8F04FFDF71DB8590702D532467B
:10562000132146E71A0706D595F80831324685F862
:10563000103107213DE713F0300F35D095F81B31BD
:10564000002B4AD195F81A31CBB195F8873005F582
:105650008D7105F23E22252B24D095F88630A3F1DA
:10566000250043424341284606F063FEAB6F23F01A
:10567000200343F01003AB67002385F81A31AB6FAA
:10568000DA062AD505F235112846FDF7EFFCB5F804
:10569000523000221521A5F81031B5F85630A5F882
:1056A000123106E70123DEE75B0616D5002224212E
:1056B000FFE600BF7432002078320020D7F808B02F
:1056C0009BF88730113B0B2B0ED8DFE803F01D0D44
:1056D0000D0D232C0D0D0D0D0D55B86890F887306C
:1056E000222B4FD0312B4AD095F88630002B59D140
:1056F00095F88730103B0C2B5CD995F8B630002B11
:1057000058D001221221D4E600220B21584607F07E
:10571000B4FDFAE65846FDF7FFFE00283FF4F5AE6B
:1057200000220421F2E79BF83032012B08D100223D
:105730000521584607F0A1FD00238BF83032E4E63E
:105740009BF83032022BD9B27FF4DFAE9BF8C85001
:1057500025B1062300228BF81031EAE70321062247
:10576000B34806F08FFE9BF8D8302A4613F0040F9A
:105770000CBF0D211121DCE700220621C6E7002223
:105780001121C4E790F82431022B02D10022172105
:10579000BDE790F82431012BA6D190F82531002BDC
:1057A000F4D0A1E7092B05D195F80931012285F83C
:1057B00010313EE7B9F10C0F7FF6A7AED7F808908D
:1057C00099F886B0BBF1000F40F08C8099F82B312E
:1057D0003BB101220E21484607F04FFD89F82BB15D
:1057E000ADE799F82A3193B199F8C9B01BF00303DA
:1057F0000DD14BF0010B01220C214846019307F01B
:105800003CFD89F8C9B0019B89F82A3197E799F8DE
:105810001A3133B399F81B311BBB99F8873009F55E
:105820008D7109F23E22252B19D099F88630A3F10B
:10583000250043424341484606F07BFD002389F89A
:105840001A3101221421484607F017FDB9F85230E9
:10585000A9F81031B9F85630A9F8123155E60123EC
:10586000E9E799F82431012B4BD199F82531002B28
:1058700047D199F88730A3F12002062A41D92E2B6F
:105880003FD099F86800012806D0022804D04FF4D0
:1058900061710620FAF776FE99F86910012901D0A6
:1058A0000229F4D1022899F826210BD0012A14BF2D
:1058B0000022012242B90A3B042B13D901221621EE
:1058C000484624E7022AF2E7022999F8272116D050
:1058D000012A14BF00220122002AECD000215448E2
:1058E000FCF752FD95F88630002B7FF40EAE95F84C
:1058F0003432002B3FF409AE0122FF21D9E5022A00
:10590000E7E74C4B1B68002BECD049489847FE2832
:105910000146E7D00122D3E7FBF79CFE08B1A4F8CB
:10592000A851FBF7A5FE00283FF4FFAD94F8AF3176
:105930000133DBB2022B84F8AF3182BF0023A4F81D
:10594000A83184F8AF31F0E594F8B6301BB194F883
:1059500086300F2B15D1B4F8BA505046B4F8B83091
:10596000ED1A033D07F0C9FC68B1D4F8B030D4F8A3
:10597000AC20033B9B1A9D42A8BF1D46012D3FF75B
:10598000E6AD0125E4E52B46F5E7012D7FF6EAAD0E
:1059900094F8873013B10B2B7FF4E4AD94F8863084
:1059A000002B7FF4DFAD94F88830002B7FF4DAAD64
:1059B00002297FF4D7AD94F8AF31002B7FF4D2AD3C
:1059C0002069B4F82E9005F0CFF900283FF4CAAD55
:1059D00094F80E31FE2B7FF4C5ADB4F8A231012B43
:1059E0007FF6C0ADB4F8A821238C9A42BFF4BAADBB
:1059F000013D9B1AADB29BB2B5FBF9F59D4228BFA4
:105A00001D4605FB09F3003D03F1010318BF012505
:105A10009BB284F8AA51A6E5012B0DD195F88930E7
:105A2000002B7FF4E7AD00212846FEF7A5FBECE54F
:105A300078320020D42300205EB1F00634D4310740
:105A400034D4B20634D4B30734D140F657213120D0
:105A500020E739B1B5F8BE10B5F8C030994201D38E
:105A60002223C7E5002A05DDB5F8C420B5F8C0300B
:105A70009A42F5D2B5F8BC20B5F8BA309A420AD2AB
:105A800095F88A20B5F8B83052B1B5F8BA209A42E4
:105A9000C9D80823AEE595F81831002BE0D1EFE71F
:105AA000052BC0D93E23A5E51E23A3E53D23A1E593
:105AB00023239FE52A239DE573B5634B002501262B
:105AC000044698601E719D811D701D76FF2380F82D
:105AD000AB310088FCF77EFD2088FCF7A5FDB4F80B
:105AE000A231E3B194F80E31FE2B18D194F818319D
:105AF000ABB194F88830063BB34210D994F8193111
:105B0000204632460221A4F8BC5084F8103107F038
:105B1000B4FB022084F8AA51FFF70CFA03E094F8D2
:105B20000E01FE28F8D1B4F8A61104F17806E38D31
:105B30000139B4F8A821304689B2B1FBF3F313441C
:105B4000A4F8A831B4F8B8300B44A4F8B83007F082
:105B5000D4FB20B1D4F8AC300B44C4F8AC30B4F86A
:105B6000A2310025012B9CBF0133A4F8A23109B159
:105B700084F8AF5194F8873084F8AA51A3F10A024F
:105B8000012A1DD8B4F88030B4F83C229B1A1904BD
:105B90002FD404F23E2104F18E0006F0E0F984F8DF
:105BA0008750FF2384F8C330B4F8A621214630463D
:105BB00006F01CFA98B34FF41E613120FAF7E2FCAC
:105BC000252B16D1B4F83C22B4F880309B1A1A0465
:105BD0000FD484F88750FFF7D9F9014630B984F81B
:105BE000240102B0BDE87040FFF7F4BB84F82451F3
:105BF000DAE794F8863003F0FD03252BD4D1B4F80E
:105C00008030B4F83C229B1A1B04CDD4002384F8C6
:105C10008630FFF7BBF901460028C5D1E1E70B4B01
:105C20000B4900930B4A0C4B03C9FBF7FBFB94F8A1
:105C30008730113B0B2B04D802B0BDE87040FBF756
:105C4000E9BB02B070BD00BF74320020D553000024
:105C500078320020794E0000414E0000D0F84432E6
:105C60008269934210B5044604D1D0F84812026A02
:105C7000914215D0228804F5C0700F49A4F88A21FA
:105C800040F2E242B3FBF2F3A4F88C31B4F84832AC
:105C9000A4F88E31B4F84A32A4F8903106F01AFB19
:105CA0000221204606F053F8002384F887300323AE
