:020000040800F2
:10000000000004201300000811000008110000087F
:10001000FEE708B50D4B0E48DA1C121AC11E22F07D
:1000200003028B4238BF0022002100F040FF094B41
:100030000948DA1C121AC11E22F00302994288BF35
:100040000022064900F026FF00F00AF8BC04002058
:10005000000000200000002000000020D40F000855
:10006000F8B500F07BFC0024184F194E3C25B4FB7A
:10007000F5F2234605FB124239460020013400F018
:10008000FBFE06FB04F3B3F1333F07D8B4FBF5F2F4
:10009000002005FB12420F4900F0EEFE06FB04F3C0
:1000A0000D4AB2EB730F0BD33C22B4FBF2F12302E7
:1000B00002FB11420020094903F5002300F0DCFE99
:1000C000074B002B03F1FF33FBDCCFE7CE0E00081C
:1000D000CDCCCCCC0B0F000899999919530F00087F
:1000E00080841E000369C26893429CBF81685B18CC
:1000F000013B981A70472DE9F041D0E9028405468A
:10010000A8EB04064068964220440F46144406D9E2
:1001100000F0C0FEBFF35F8FEC60BDE8F0813246B7
:10012000A4EB080400F0B6FE22466868B919EFE7B0
:100130002DE9F8430646894617464FF00008C56882
:100140003369B4689D4228BF1B19641BBC4228BF99
:100150003C46013B5B1B9C4228BF1C4670684946DD
:100160002246284400F096FEB3682544AB4208BFFF
:100170000025A044A1443F1BBFF35F8FF560002F13
:10018000DED14046BDE8F88308B5154BA822002112
:10019000184600F08CFE032212490261426100F110
:1001A000A8028161C2614FF4806202620022826211
:1001B0004262C262016600F5956141661021034604
:1001C00081660267C2664267BFF35F8F064911F816
:1001D000010D98540132102AF9D1BFF35F8F08BD89
:1001E00000000020910F0008AA0F0008FF2307B5A8
:1001F0008DF80430064B022203445B7C01A90548BC
:100200008DF80530FFF794FF03B05DF804FB00BFE5
:100210009A0F0008180000202DE9F84F224F804661
:100220003B788946532B164601D0FFF7ADFF1823C4
:1002300003FB087BDBF82850DBF824A0554530D9B8
:10024000DBF8204008FB0333641BB44228BF34466C
:100250003B44596848462944224600F01BFEDBF81F
:1002600020302544AB4208BF0025A144361BAAEB31
:10027000050A564528BF56465EB1182308FB0333CE
:100280003B44596832462944484600F003FE344452
:1002900035441CB1182303FB0877BD622046BDE836
:1002A000F88F0024E3E700BF000000202DE9F84F9D
:1002B000DFF88080824698F800308946532B164636
:1002C00001D0FFF761FF182707FB0A873D6FD7F8BA
:1002D0006CB05D452BD9BC6E796E641BB44228BFEF
:1002E000344648462944224600F0D4FDBB6E2544DE
:1002F000AB4208BF0025A144361BABEB050B5E45A6
:1003000028BF5E4656B1182303FB0A83596E324656
:100310002944484600F0BEFD3444354424B1182336
:1003200003FB0A88C8F870502046BDE8F88F002407
:10033000E3E700BF0000002010B50B46EFF3118487
:100340004FF0200181F311881946FFF765FF84F310
:10035000118810BD10B50B46EFF311844FF020014A
:1003600081F311881946FFF7A1FF84F3118810BDAE
:100370002DE9F84F144618222B4E0F4602FB00625F
:10038000516A936A0546994223D1136A013BA342FD
:1003900028D34FF0180A0AFB056305FB0AAB1B6A5A
:1003A000A3EB01080AFB056906EB0B035868D9F8B3
:1003B00024304445184424D22246394600F06AFDD0
:1003C000BFF35F8FD9F824302344C9F82430BDE847
:1003D000F88F936A9942936A24BF126A9B18013B73
:1003E0005B1AD4E7182202FB0562906A2044C31A04
:1003F000106A9362936A8342CBD3936A1B1A936207
:10040000F8E73946424600F045FD4744BFF35F8FA9
:100410000023C9F82430D9F82030A4EB080403F1F4
:10042000FF38002CBED1D2E700000020182370B5A1
:10043000114C0E4603FB0044636F6034012B1546DC
:100440000AD0022B14D023B92046FFF74BFE854279
:1004500008D90025284670BD2046FFF743FE854297
:1004600028BF05462A4631462046FFF744FEF1E7FD
:100470002046BDE870405BE600000020F8B5182774
:1004800000FB0775114B0E461D4407FB0033DB6A6A
:100490001446012B0AD0022B14D023B92846FFF7AB
:1004A00021FE844208D900242046F8BD2846FFF7E3
:1004B00019FE844228BF0446224631462846FFF7EB
:1004C0001AFEF1E72846BDE8F84031E600000020BA
:1004D000F8B50B4B04461B780D46532B164601D03E
:1004E000FFF752FEEFF311874FF0200181F31188DF
:1004F000324629462046FFF799FF87F31188F8BD59
:1005000000000020F8B50B4B04461B780D46532B1A
:10051000164601D0FFF738FEEFF311874FF02001A8
:1005200081F31188324629462046FFF7A7FF87F35B
:100530001188F8BD0000002038B5054608460C4675
:1005400000F0BDFC214602462846BDE83840FFF7D2
:10055000D9BF1822F0B50C4D02FB0054666A276A19
:10056000731C9F4208BF0023A76A9F4209D000FB6B
:10057000022215446A689155BFF35F8F01206362C0
:10058000F0BD0020FCE700BF00000020F8B5144CCF
:10059000064623780F46532B01D0FFF7F5FDEFF306
:1005A000118C4FF0200181F31188182202FB0645BF
:1005B000696A286A4B1C984208BF0023A86A9842BF
:1005C0000BD006FB0222144462685754BFF35F8FBE
:1005D00001206B628CF31188F8BD0020FAE700BFA0
:1005E00000000020F8B5194C054623780E46532B21
:1005F00001D0FFF7C9FDEFF311874FF0200181F320
:100600001188182202FB0542506A116A431C994264
:1006100008BF0023D16A022902D1916A9942FBE7FF
:10062000182202FB0541D1F828C09C450BD005FBE0
:100630000222144462681654BFF35F8F01204B629C
:1006400087F31188F8BD0020FAE700BF0000002002
:1006500007B501220DF107010020FFF77BFE0128FD
:1006600014BF4FF0FF309DF8070003B05DF804FBA6
:1006700008B5FFF7EDFF0028FBDB08BD10B5064C01
:100680002378532B01D0FFF77FFDE36E206FC01A54
:1006900018BF012010BD00BF000000201822034B2E
:1006A00002FB0033D86E1B6FC01A70470000002099
:1006B0001822034B02FB00339A6A586A801A70476B
:1006C000000000202DE9F041184C1D46237880469B
:1006D000532B0F46164601D0FFF756FDEFF311825C
:1006E0004FF0200181F311880020182101FB004305
:1006F0005B6E1BB1636901308342F7DC636983423F
:1007000010DD182303FB00440023C4F860806766F3
:10071000A6662367E3666567BFF35F8F82F3118880
:10072000BDE8F0814FF0FF30F8E700BF0000002087
:100730002DE9F0411A4C1D4623788046532B0F4675
:10074000164601D0FFF720FDEFF3118C4FF020018A
:1007500081F311880020182200FB022323445B68E8
:10076000411C1BB1236908468B42F5DC2369834297
:1007700013DD182300FB033244F80280A11803FBA9
:10078000004400234F602662A3626362E562BFF308
:100790005F8F8CF31188BDE8F0814FF0FF30F8E7F0
:1007A000000000202DE9F041164C1E462378054636
:1007B000532B8846174601D0FFF7E6FC022D1DD8C3
:1007C000EFF3118C4FF0200181F3118865B11820EF
:1007D00005FB000344F80380E2180023576000FB88
:1007E0000542166293625362182303FB0544069B7D
:1007F000E3628CF311880020BDE8F0814FF0FF30F8
:10080000FAE700BF000000202DE9F843164E1F460E
:1008100033780546532B8946904601D0FFF7B4FC48
:10082000022D1DD8EFF311824FF0200181F31188C2
:1008300055B11824002304FB0564C4F86090C4F883
:100840006480A7662367E366182303FB0566089B9D
:100850007367BFF35F8F82F311880020BDE8F883D0
:100860004FF0FF30FAE700BF0000002070B50D4EDA
:10087000044633780D46532B01D0FFF785FC022C3C
:100880000DD8EFF311824FF0200181F31188182366
:1008900004FB0333F55082F31188002070BD4FF044
:1008A000FF30FBE70000002070B50D4C05462378B3
:1008B0000E46532B01D0FFF767FC022D0DD8EFF346
:1008C00011834FF0200181F31188182202FB0544A7
:1008D000266683F31188002070BD4FF0FF30FBE7E0
:1008E0000000002070B50D4C054623780E46532BB2
:1008F00001D0FFF749FC022D0DD8EFF311834FF023
:10090000200181F31188182202FB0544E66283F37B
:100910001188002070BD4FF0FF30FBE70000002081
:1009200070B50D4C054623780E46532B01D0FFF7CA
:100930002BFC022D0DD8EFF311834FF0200181F332
:100940001188182202FB0544666783F31188002092
:1009500070BD4FF0FF30FBE70000002014E473B5DA
:100960001C4D04462B78532B01D0FFF70DFCFF23C1
:100970000F2C8DF804302AD8174B23445B7C8DF85C
:100980000530EFF311864FF0200181F31188EA6AF8
:1009900002F00302022A0AD1104801A985F8B844DE
:1009A000FFF7C6FB002086F3118802B070BD0B482C
:1009B000FFF798FB012807D90222084801A985F80A
:1009C000B844FFF798FBEDE74FF0FF30EBE74FF04F
:1009D000FF30EAE7000000209A0F0008180000200E
:1009E0002DE9F047234D82462B788846532B01D0C2
:1009F000FFF7CAFBBAF10F0F38D8404600F05FFA94
:100A00008146EFF311864FF0200181F311881A48D7
:100A1000FFF768FBEC6A074604F00304012C0BD0D7
:100A2000022C04D0FCB909F10403834216D85046C5
:100A3000FFF7DCFB4A4608E0032814D95046FFF7CD
:100A4000D5FB3A1F4A4528BF4A4641460A48FFF7A8
:100A50006FFB044695F8B804FFF7C8FB86F31188CE
:100A60002046BDE8F0874FF0FF34F7E74FF0FF3442
:100A7000F6E700BF0000002018000020182300FB4C
:100A8000033302481844FFF72DBB00BF00000020CD
:100A90001822064B02FB00339A6A586A824289BFC9
:100AA0001B6A801A9B18181A704700BF00000020AC
:100AB000826810B504464068531C834205D82068FC
:100AC0008154A360E3680133E360D4E901329A42C0
:100AD0000BD121682069FFF715FDA368984215BF67
:100AE0004FF0FF330023E360A36010BD2DE9F84F02
:100AF0001646054688460A464FF0010A9946DDE942
:100B00000A43B24212D2CA4538BFCA4613F0010B9B
:100B100001D184B90024EB68002B3CDB0127B9F13B
:100B2000010F1ED909F1FF397743F8E7B2FBF6F25E
:100B30000AF1010AE5E79B0711D5B9F1000F14BFCF
:100B4000202730275445E6D939462846FFF7B0FF1D
:100B5000EB68013C002BDEDB002CF3D1DAE7202729
:100B6000F0E7B8FBF7F39E42DED9DFF84890B8FB18
:100B7000F7F3284619F8031007FB1388FFF798FFCF
:100B8000EB68002B03DBB742B7FBF6F305D2BBF1F2
:100B9000000F00D05CB9BDE8F88F1F46E7E72021C1
:100BA0002846FFF785FFEB68013C002BF3DB54453B
:100BB000F5D8F0E7C20F00082DE9F04F00230D46ED
:100BC000402116469BB0CDE90613CDE908300DF162
:100BD000280A0390CDF814A015F8011B39B9089D17
:100BE000002D00F33C8108981BB0BDE8F08F25294B
:100BF00040F0BB804FF0000907E0302B0FD149F0E7
:100C0000020901E049F001090D46294611F8013BAE
:100C10002D2BF7D0F1D8232B13D02B2B0ED0002463
:100C2000294611F8013BA3F1300009280CD80A220B
:100C300002FB04330D46A3F13004F1E749F0040947
:100C4000E2E749F00809DFE72E2B37D16B782A2B32
:100C50001FD1012733680235191DD3F800B0316068
:100C6000284610F8011B01F0FB0CBCF1680F05468B
:100C7000F7D0782909D86F2924D8632971D039D8B9
:100C8000252972D0582900F0C080089B002BA3DAD8
:100C9000A5E74FF0000B0D465F464FF00A0C2846C3
:100CA00010F8011BA1F1300EBEF1090FD8D80CFBD2
:100CB0000B1105460127A1F1300BF0E74FF0000BB7
:100CC0005F46CDE770390829DFD801A050F821F040
:100CD0004F0E00088B0C00088B0C00081B0E000840
:100CE0008B0C0008F90D00088B0C00088B0C000819
:100CF0000B0E00086429C8D131684FF00108081DA7
:100D000030600A200F6887EAE771A1EBE7710929D3
:100D10002FDCD84538BFD84684BB00240899002969
:100D2000B3DB002F39DA2D217F4205A8FFF7C0FE83
:100D300008990029A9DB09F00301022905D1BBF1BB
:100D4000000F02D1002C4CD10024089900299CDB13
:100D50005B460A223946CDE9004905A8FFF7C6FEE1
:100D600093E733681A1D1978326005A8FFF7A0FED3
:100D70008BE7B1FBF0F108F10108C8E7002F09F09B
:100D8000020123DB19F0040F20D1D9B1BBF1000F10
:100D900008D108990029FFF678AF19F0040FCAD0DE
:100DA0002B21C2E719F0010FB8D1002CB5D0A04516
:100DB000B4D2202105A8FFF77BFE0899013C002949
:100DC000F3DAABE719F0010FEFD0E2E7013C11B124
:100DD000BBF1000FA2D019F0010F9FD1002CE4D17C
:100DE0009BE7A045B1D2302105A8FFF761FE089925
:100DF000013C0029A6DAA8E75B460A223168081DF3
:100E00003060CDE900490968A7E75B463168081DF5
:100E10003060CDE900491022F5E73268111D3160DC
:100E200014680CB90027134C14F8011B00293FF477
:100E30002CAF1FB1BBF1000F3FF427AF05A8FFF7A0
:100E400037FE089A0BF1FF3B002AEDDA1DE7316807
:100E500000220B1D33600823CDE90032DBE7079C3D
:100E600024B1224651460398FFF74CFB2C440894CA
:100E7000B9E600BFBB0F00080EB403B503AB53F8CF
:100E8000041B01AA0193FFF797FE02B05DF804EB83
:100E900003B070470A44431E914200D1704710B519
:100EA00011F8014B914203F8014FF9D110BD0244F2
:100EB0000346934200D1704703F8011BF9E703464C
:100EC00013F8012B002AFBD1181A013870475B3048
:100ED000303A30303A253032642E3030302C3030D9
:100EE000305D203C696E663E206170703A20486536
:100EF000617274626561742025642066726F6D2072
:100F000045465233324D4732340A005B30303A3076
:100F1000303A253032642E3030302C3030305D2085
:100F20003C77726E3E2073656E736F725F6472768B
:100F30003A2054656D7065726174757265207265D2
:100F40006164696E6720686967683A2034352E32BB
:100F5000430A005B30303A30303A253032642E306C
:100F600030302C3030305D203C6572723E20666C33
:100F70006173685F6D67723A2057726974652066A5
:100F800061696C6564206174203078253038780A96
:100F9000005465726D696E616C0000000000000015
:100FA0005454522052454747455300303132333470
:100FB0003536373839414243444546284E554C4C26
:100FC00029003031323334353637383941424344E1
:040FD0004546000092
:0400000508000000EF
:00000001FF
